:0400000007EF00F016
:0A000800738234ED0DF006EF22F0D4
:1010000000656E74657220796F75722070617373FC
:101010003A00706C65617365207472792061676154
:10102000696E00636C6F7365207468652067617416
:101030006500636F727265637420706173733A0048
:101040006F70656E207468652067617465006372F7
:101050006561746520706173733A0077726F6E67B3
:1010600020706173733A00706173732073617665E9
:0D107000640057454C434F4D0025690000BA
:10107E00000E0101E36F000EE46F000EE56F000E2F
:10108E00E66F88EF0AF0AC98AC94B896B5C0D9FF6D
:10109E00B6C0DAFFDECFE1F1DDCFE2F1E1C18EF0D5
:1010AE00E2C18FF00001906B916B000E76EC14F0A4
:1010BE008EC0A0F08FC0A1F090C0A2F091C0A3F09E
:1010CE00000E00019C6F240E9D6FF40E9E6F4A0E53
:1010DE009F6F52EC0FF09CC0E7F19DC0E8F19EC0EF
:1010EE00E9F19FC0EAF1000E0001A06F000EA16FA2
:1010FE00800EA26F420EA36FE7C19CF0E8C19DF077
:10110E00E9C19EF0EAC19FF052EC0FF09CC0D1F104
:10111E009DC0D2F19EC0D3F19FC0D4F1000E01014B
:10112E00D56F000ED66F800ED76FBF0ED86FD3EC73
:10113E000AF0D1C1E3F1D2C1E4F1D3C1E5F1D4C1DA
:10114E00E6F1B5EF0AF0AC98AC84B896B5C0D9FF0D
:10115E00B6C0DAFFDECFE1F1DDCFE2F1E1C18EF014
:10116E00E2C18FF00001906B916B000E76EC14F0E3
:10117E008EC0A0F08FC0A1F090C0A2F091C0A3F0DD
:10118E00000E00019C6F240E9D6FF40E9E6F4A0E92
:10119E009F6F52EC0FF09CC0E7F19DC0E8F19EC02E
:1011AE00E9F19FC0EAF1000E0001A06F000EA16FE1
:1011BE00800EA26F410EA36FE7C19CF0E8C19DF0B7
:1011CE00E9C19EF0EAC19FF052EC0FF09CC0D1F144
:1011DE009DC0D2F19EC0D3F19FC0D4F1000E01018B
:1011EE00D56F000ED66F800ED76FBF0ED86FD3ECB3
:1011FE000AF0D1C1E3F1D2C1E4F1D3C1E5F1D4C11A
:10120E00E6F1B5EF0AF0AC98AC94B886B5C0D9FF4C
:10121E00B6C0DAFFDECFE1F1DDCFE2F1E1C18EF053
:10122E00E2C18FF00001906B916B000E76EC14F022
:10123E008EC0A0F08FC0A1F090C0A2F091C0A3F01C
:10124E00000E00019C6F240E9D6FF40E9E6F4A0ED1
:10125E009F6F52EC0FF09CC0E7F19DC0E8F19EC06D
:10126E00E9F19FC0EAF1000E0001A06F000EA16F20
:10127E00800EA26F410EA36FE7C19CF0E8C19DF0F6
:10128E00E9C19EF0EAC19FF052EC0FF09CC0D1F183
:10129E009DC0D2F19EC0D3F19FC0D4F1000E0101CA
:1012AE00D56F000ED66F800ED76FBF0ED86FD3ECF2
:1012BE000AF0D1C1E3F1D2C1E4F1D3C1E5F1D4C159
:1012CE00E6F1B5EF0AF0AC98AC84B886B5C0D9FF9C
:1012DE00B6C0DAFFDECFE1F1DDCFE2F1E1C18EF093
:1012EE00E2C18FF00001906B916B000E76EC14F062
:1012FE008EC0A0F08FC0A1F090C0A2F091C0A3F05C
:10130E00000E00019C6F240E9D6FF40E9E6F4A0E10
:10131E009F6F52EC0FF09CC0E7F19DC0E8F19EC0AC
:10132E00E9F19FC0EAF1000E0001A06F000EA16F5F
:10133E00800EA26F400EA36FE7C19CF0E8C19DF036
:10134E00E9C19EF0EAC19FF052EC0FF09CC0D1F1C2
:10135E009DC0D2F19EC0D3F19FC0D4F1000E010109
:10136E00D56F000ED66F800ED76FBF0ED86FD3EC31
:10137E000AF0D1C1E3F1D2C1E4F1D3C1E5F1D4C198
:10138E00E6F1B5EF0AF0AC88B896B5C0D9FFB6C095
:10139E00DAFFDECFE1F1DDCFE2F1E1C18EF0E2C1A5
:1013AE008FF00001906B916B000E76EC14F08EC0F6
:1013BE00A0F08FC0A1F090C0A2F091C0A3F0000EDB
:1013CE0000019C6F240E9D6FF40E9E6F4A0E9F6F50
:1013DE0052EC0FF09CC0E7F19DC0E8F19EC0E9F120
:1013EE009FC0EAF1000E0001A06F000EA16F800EEB
:1013FE00A26F400EA36FE7C19CF0E8C19DF0E9C15A
:10140E009EF0EAC19FF052EC0FF09CC0D1F19DC04E
:10141E00D2F19EC0D3F19FC0D4F1000E0101D56F61
:10142E00000ED66F800ED76FBF0ED86FD3EC0AF0BA
:10143E00D1C1E3F1D2C1E4F1D3C1E5F1D4C1E6F1FA
:10144E00B5EF0AF0AC88B886B5C0D9FFB6C0DAFFE2
:10145E00DECFE1F1DDCFE2F1E1C18EF0E2C18FF03E
:10146E000001906B916B000E76EC14F08EC0A0F024
:10147E008FC0A1F090C0A2F091C0A3F0000E0001A9
:10148E009C6F240E9D6FF40E9E6F4A0E9F6F52EC52
:10149E000FF09CC0E7F19DC0E8F19EC0E9F19FC03E
:1014AE00EAF1000E0001A06F000EA16F800EA26F78
:1014BE00400EA36FE7C19CF0E8C19DF0E9C19EF01C
:1014CE00EAC19FF052EC0FF09CC0D1F19DC0D2F159
:1014DE009EC0D3F19FC0D4F1000E0101D56F000E56
:1014EE00D66F800ED76FBF0ED86FD3EC0AF0D1C176
:1014FE00E3F1D2C1E4F1D3C1E5F1D4C1E6F1B5EF28
:10150E000AF0000120EE02F0B551D926B651DA22CA
:10151E00DF500101E16FE26BE251000AD8B49AEF9D
:10152E000AF0B5EF0AF0E151000AD8B44AEF08F01C
:10153E00010AD8B4AAEF08F0030AD8B40AEF09F0EA
:10154E00010AD8B46AEF09F0070AD8B4CAEF09F055
:10155E00010AD8B429EF0AF0B5EF0AF0E3C18EF014
:10156E00E4C18FF0E5C190F0E6C191F040EC1AF0C5
:10157E0000018E51AF6EE3C18EF0E4C18FF0E5C174
:10158E0090F0E6C191F040EC1AF000018FC08EF0A1
:10159E008F6B8E51B06E12000101D451800BDD6F36
:1015AE00D451D425DF6FD3AFDFEF0AF0E1EF0AF0AD
:1015BE00E2EF0AF0DF81DF51D8B4E8EF0AF0EAEF8C
:1015CE000AF0FFEF0AF0DF29D8A4F0EF0AF0F2EFED
:1015DE000AF0FAEF0AF0000ED16F000ED26F000E75
:1015EE00D36F000ED46FD38F000ED46F07EF0BF0B6
:1015FE00000ED16F000ED26F000ED36F000ED46F9F
:10160E00D851800BDE6FDD51DE19D8B411EF0BF01F
:10161E0013EF0BF014EF0BF0DD8DD851D825DE6FE4
:10162E00D7AF1CEF0BF01EEF0BF01FEF0BF0DE81B0
:10163E00DE51D8B425EF0BF027EF0BF03CEF0BF09B
:10164E00DE29D8A42DEF0BF02FEF0BF037EF0BF0B8
:10165E00000ED56F000ED66F000ED76F000ED86F2E
:10166E00D78F000ED86F44EF0BF0000ED56F000E23
:10167E00D66F000ED76F000ED86FDF51DE5DD8B07B
:10168E004BEF0BF04DEF0BF074EF0BF0DDAD52EFB7
:10169E000BF054EF0BF056EF0BF0800EDD1BDFC19D
:1016AE00E0F1DEC1DFF1E0C1DEF1D1C1E0F1D5C183
:1016BE00D1F1E0C1D5F1D2C1E0F1D6C1D2F1E0C194
:1016CE00D6F1D3C1E0F1D7C1D3F1E0C1D7F1D4C186
:1016DE00E0F1D8C1D4F1E0C1D8F1000EE06FDF51D6
:1016EE00DEC1D9F1DA6BD95F000EDA5BDABF89EFB2
:1016FE000BF0DA5109E11A0ED95DD8A089EF0BF083
:10170E008BEF0BF0C2EF0BF0D151D211D311D411DC
:10171E00D8A494EF0BF097EF0BF0010E98EF0BF0AF
:10172E00000EE06F000ED16F000ED26F000ED36F61
:10173E00000ED46FDEC1DFF1CBEF0BF0E0A1AAEF0C
:10174E000BF0ACEF0BF0B2EF0BF0D890E0310109DB
:10175E00E06FB4EF0BF0D890E033D1A1B9EF0BF0FE
:10176E00BBEF0BF0BCEF0BF0E08FD435D433D3339B
:10177E00D233D133DF2BDE51DF5DD8A0C9EF0BF0B2
:10178E00CBEF0BF0A5EF0BF0DDBDD0EF0BF0D2EFF2
:10179E000BF012EF0CF0DF51D8A4D8EF0BF0DAEF0C
:1017AE000BF0E4EF0BF0000ED16F000ED26F000EB7
:1017BE00D36F000ED46F33EF0DF0D551D127D65124
:1017CE00D223D751D323D851D423D4A1F1EF0BF088
:1017DE00F3EF0BF09FEF0CF0E0A1F8EF0BF0FAEF48
:1017EE000BF000EF0CF0D890E0310109E06F02EF42
:1017FE000CF0D890E033D1A107EF0CF009EF0CF00C
:10180E000AEF0CF0E08FD435D433D333D233D13347
:10181E00DF2B9FEF0CF0D551D15DD651D259D75158
:10182E00D359D451800AD96FD851800AD959D8B01A
:10183E0023EF0CF025EF0CF050EF0CF0D151D55DED
:10184E00D96FD251D659DA6FD351D759DB6FD451E4
:10185E00D859DC6FFF0ED925D16FFF0EDA21D26F6A
:10186E00FF0EDB21D36FFF0EDC21D46F800EDD1B4C
:10187E00E06DE051D8A446EF0CF048EF0CF058EFB5
:10188E000CF0010ED127000ED223D323D42358EF10
:10189E000CF0D551D15FD651D25BD751D35BD85115
:1018AE00D45BD151D211D311D411D8A461EF0CF065
:1018BE0063EF0CF098EF0CF0E051D8A469EF0CF048
:1018CE006BEF0CF098EF0CF0000ED16F000ED26F94
:1018DE00000ED36F000ED46F33EF0DF0D890D137CA
:1018EE00D237D337D437E0AF7FEF0CF081EF0CF067
:1018FE0082EF0CF0D181E0A187EF0CF089EF0CF0B4
:10190E008DEF0CF0D880E0378FEF0CF0D890E037E9
:10191E00DF51D8B495EF0CF097EF0CF098EF0CF078
:10192E00DF07D3AF9DEF0CF09FEF0CF075EF0CF0CF
:10193E00000EDE6FE0AFA6EF0CF0A8EF0CF0C0EFDC
:10194E000CF0E0C1D9F17F0ED917D8B4B1EF0CF07D
:10195E00B3EF0CF0B7EF0CF0010EDE6FC0EF0CF032
:10196E00D1A1BCEF0CF0BEEF0CF0C0EF0CF0B3EF5A
:10197E000CF0DE51D8B4C6EF0CF0C8EF0CF0F3EF5C
:10198E000CF0010ED127000ED223D323D423D4A1E1
:10199E00D3EF0CF0D5EF0CF0F3EF0CF0D1C1D9F181
:1019AE00D2C1DAF1D3C1DBF1D4C1DCF1DC35DC33E9
:1019BE00DB33DA33D933D9C1D1F1DAC1D2F1DBC19C
:1019CE00D3F1DCC1D4F1DF29D8B4F0EF0CF0F2EF93
:1019DE000CF0F3EF0CF0DF2BDF29D8B4F9EF0CF09D
:1019EE00FBEF0CF003EF0DF0DF51D8A401EF0DF07B
:1019FE0003EF0DF015EF0DF0000ED16F000ED26F4C
:101A0E00000ED36F000ED46FDF51D8A411EF0DF07E
:101A1E0013EF0DF015EF0DF0000EDD6FDFA11AEFD5
:101A2E000DF01CEF0DF01FEF0DF0D38F20EF0DF02A
:101A3E00D39FD890DF31D46FDDAF28EF0DF02AEFB2
:101A4E000DF02BEF0DF0D48FD1C1D1F1D2C1D2F167
:101A5E00D3C1D3F1D4C1D4F112000600FACF80F075
:101A6E00FBCF81F0E9CF82F0EACF83F0E1CF84F0B3
:101A7E00E2CF85F0D9CF86F0DACF87F0F3CF88F0BA
:101A8E00F4CF89F0F6CF8AF0F7CF8BF0F8CF8CF049
:101A9E00F5CF8DF0F2A856EF0DF058EF0DF061EF87
:101AAE000DF0F2A25DEF0DF05FEF0DF061EF0DF0B6
:101ABE007FEC2AF0F0A666EF0DF068EF0DF071EFF7
:101ACE000DF0F0A06DEF0DF06FEF0DF071EF0DF06A
:101ADE0068EC2AF0F0A876EF0DF078EF0DF081EFBC
:101AEE000DF0F0A27DEF0DF07FEF0DF081EF0DF018
:101AFE0051EC2AF0F2AC86EF0DF088EF0DF0B4EF5A
:101B0E000DF0A0A68DEF0DF08FEF0DF0A4EF0DF000
:101B1E00A1A694EF0DF096EF0DF0A4EF0DF002D804
:101B2E00A2EF0DF00500FA6E3850FD6E3950FE6EC4
:101B3E00FF6AFA501200B4EF0DF09DA6A9EF0DF05A
:101B4E00ABEF0DF0B4EF0DF09EA6B0EF0DF0B2EFCF
:101B5E000DF0B4EF0DF096EF0DF0F2A6B9EF0DF01B
:101B6E00BBEF0DF0D6EF0DF0F2A0C0EF0DF0C2EF0F
:101B7E000DF0D6EF0DF081A8C7EF0DF0C9EF0DF007
:101B8E00D6EF0DF06B04D8A4CFEF0DF0D1EF0DF022
:101B9E00D6EF0DF0000E6B6E000E45EC29F0F2A69E
:101BAE00DBEF0DF0DDEF0DF0F8EF0DF0F2A0E2EF50
:101BBE000DF0E4EF0DF0F8EF0DF081B8E9EF0DF058
:101BCE00EBEF0DF0F8EF0DF06B50D8A4F1EF0DF038
:101BDE00F3EF0DF0F8EF0DF0010E6B6E010E45EC0C
:101BEE0029F0F2A6FDEF0DF0FFEF0DF01AEF0EF05B
:101BFE00F2A004EF0EF006EF0EF01AEF0EF081AA2F
:101C0E000BEF0EF00DEF0EF01AEF0EF06A04D8A4E3
:101C1E0013EF0EF015EF0EF01AEF0EF0000E6A6EC7
:101C2E00000E23EC29F0F2A61FEF0EF021EF0EF0BE
:101C3E003CEF0EF0F2A026EF0EF028EF0EF03CEF88
:101C4E000EF081BA2DEF0EF02FEF0EF03CEF0EF0EE
:101C5E006A50D8A435EF0EF037EF0EF03CEF0EF0D1
:101C6E00010E6A6E010E23EC29F0F2A641EF0EF082
:101C7E0043EF0EF05EEF0EF0F2A048EF0EF04AEFDB
:101C8E000EF05EEF0EF081AC4FEF0EF051EF0EF056
:101C9E005EEF0EF06904D8A457EF0EF059EF0EF078
:101CAE005EEF0EF0000E696E000E01EC29F0F2A64A
:101CBE0063EF0EF065EF0EF080EF0EF0F2A06AEF1C
:101CCE000EF06CEF0EF080EF0EF081BC71EF0EF0A7
:101CDE0073EF0EF080EF0EF06950D8A479EF0EF08E
:101CEE007BEF0EF080EF0EF0010E696E010E01EC2F
:101CFE0029F0F2A685EF0EF087EF0EF0A2EF0EF0B0
:101D0E00F2A08CEF0EF08EEF0EF0A2EF0EF081AE81
:101D1E0093EF0EF095EF0EF0A2EF0EF06804D8A43C
:101D2E009BEF0EF09DEF0EF0A2EF0EF0000E686E20
:101D3E00000EDFEC28F0F2A6A7EF0EF0A9EF0EF0E2
:101D4E00C4EF0EF0F2A0AEEF0EF0B0EF0EF0C4EF57
:101D5E000EF081BEB5EF0EF0B7EF0EF0C4EF0EF041
:101D6E006850D8A4BDEF0EF0BFEF0EF0C4EF0EF02A
:101D7E00010E686E010EDFEC28F09DACC9EF0EF07F
:101D8E00CBEF0EF0D4EF0EF09EACD0EF0EF0D2EF04
:101D9E000EF0D4EF0EF0D0EC2BF0F2AAD9EF0EF03D
:101DAE00DBEF0EF0E4EF0EF0F2A4E0EF0EF0E2EF58
:101DBE000EF0E4EF0EF01CEC2AF09DA0E9EF0EF011
:101DCE00EBEF0EF0F4EF0EF09EA0F0EF0EF0F2EF50
:101DDE000EF0F4EF0EF0A4EC2BF09DA2F9EF0EF046
:101DEE00FBEF0EF004EF0FF09EA200EF0FF002EFEC
:101DFE000FF004EF0FF0B4EC2BF0A0A209EF0FF0F0
:101E0E000BEF0FF014EF0FF0A1A210EF0FF012EF87
:101E1E000FF014EF0FF09EEC2BF09DA819EF0FF0C2
:101E2E001BEF0FF024EF0FF09EA820EF0FF022EF24
:101E3E000FF024EF0FF0CEEC2BF09DAA29EF0FF050
:101E4E002BEF0FF034EF0FF09EAA30EF0FF032EFC2
:101E5E000FF034EF0FF0D2EC2BF08DC0F5FF8CC0ED
:101E6E00F8FF8BC0F7FF8AC0F6FF89C0F4FF88C069
:101E7E00F3FF87C0DAFF86C0D9FF85C0E2FF84C0BA
:101E8E00E1FF83C0EAFF82C0E9FF81C0FBFF80C093
:101E9E00FAFF7392110000019F51800BAC6F9F519E
:101EAE009F25B36F9EAF5EEF0FF060EF0FF061EF07
:101EBE000FF0B381B351D8B467EF0FF069EF0FF0A5
:101ECE007EEF0FF0B329D8A46FEF0FF071EF0FF084
:101EDE0079EF0FF0000E9C6F000E9D6F000E9E6F3F
:101EEE00000E9F6F9E8F000E9F6F86EF0FF0000EFD
:101EFE009C6F000E9D6F000E9E6F000E9F6FA35184
:101F0E00800BAC1BA351A325B46FA2AF91EF0FF0C2
:101F1E0093EF0FF094EF0FF0B481B451D8B49AEF61
:101F2E000FF09CEF0FF0B1EF0FF0B429D8A4A2EF91
:101F3E000FF0A4EF0FF0ACEF0FF0000EA06F000E3D
:101F4E00A16F000EA26F000EA36FA28F000EA36FE3
:101F5E00B9EF0FF0000EA06F000EA16F000EA26F72
:101F6E00000EA36FA051A111A211A311D8A4C2EF0C
:101F7E000FF0C4EF0FF0DCEF0FF0000E9C6F000EB1
:101F8E009D6F000E9E6F000E9F6F800E9E137F0E34
:101F9E009F13AC519F139CC09CF09DC09DF09EC0A2
:101FAE009EF09FC09FF01FEF11F0B351D8A4E2EF47
:101FBE000FF0E4EF0FF0EEEF0FF0000E9C6F000E3F
:101FCE009D6F000E9E6F000E9F6F1FEF11F0B451AC
:101FDE00B3C0A4F0A56BA45F000EA55B7F0EA42575
:101FEE00AD6F000EA521AE6F9CC0A8F09DC0A9F0EC
:101FFE009EC0AAF09FC0ABF0000E9C6F000E9D6FAE
:10200E00000E9E6F000E9F6F000EAF6F000EB06F32
:10201E00000EB16F000EB26F000EB46F4FEF10F0E6
:10202E00B451D8B41DEF10F01FEF10F036EF10F0D2
:10203E00D890A837A937AA37AB37D8909C379D3799
:10204E009E379F37B2AF2EEF10F030EF10F031EF1A
:10205E0010F09C81D890AF37B037B137B237A0515E
:10206E00A85DA151A959A251AA59A351AB59D8A003
:10207E0043EF10F045EF10F04EEF10F0B28DA0517F
:10208E00A85FA151A95BA251AA5BA351AB5BB42B74
:10209E00190EB46555EF10F057EF10F017EF10F062
:1020AE00A851A911AA11AB11D8B460EF10F062EFCC
:1020BE0010F07AEF10F0AF817AEF10F0D8909C37D5
:1020CE009D379E379F37B2AF6FEF10F071EF10F064
:1020DE0072EF10F09C81D890AF37B037B137B2376E
:1020EE00AD07D8A0AE079EAF7FEF10F081EF10F0D6
:1020FE0065EF10F0000EB46FB2AF88EF10F08AEFFC
:10210E0010F0AEEF10F0FF0EAF15A46FFF0EB0156E
:10211E00A56FFF0EB115A66F7F0EB215A76FA45156
:10212E00A511A611A711D8B49FEF10F0A1EF10F0D2
:10213E00A5EF10F0010EB46FAEEF10F09CA1AAEF58
:10214E0010F0ACEF10F0AEEF10F0A1EF10F0B451B4
:10215E00D8B4B4EF10F0B6EF10F0DAEF10F0010EC5
:10216E009C27000E9D239E239F239FA1C1EF10F05D
:10217E00C3EF10F0DAEF10F09CC0A4F09DC0A5F0F4
:10218E009EC0A6F09FC0A7F0A735A733A633A533F0
:10219E00A433A4C09CF0A5C09DF0A6C09EF0A7C01D
:1021AE009FF0AD4BAE2BAEBFE5EF10F0AE5108E198
:1021BE00AD29D8A0E5EF10F0E7EF10F0F2EF10F038
:1021CE00000EAE6FAD69000E9C6F000E9D6F000E7F
:1021DE009E6F000E9F6FAEBFFFEF10F0AE5106E187
:1021EE00AD05D8B0FDEF10F0FFEF10F00DEF11F0D0
:1021FE00000EAE6F000EAD6F000E9C6F000E9D6F49
:10220E00000E9E6F000E9F6F000EAC6FADC0B3F050
:10221E00B3A114EF11F016EF11F019EF11F09E8F1C
:10222E001AEF11F09E9FD890B3319F6FD0EF0FF041
:10223E001200106E27EF12F0E80E0B6E000E0C6EF1
:10224E00C1EC27F0EA0E0B6E000E0C6EC1EC27F0FF
:10225E00EC0E0B6E000E0C6EC1EC27F0EE0E0B6E3C
:10226E00000E0C6EC1EC27F05CEF12F0E80E0B6E58
:10227E00000E0C6EC1EC27F0EA0E0B6E000E0C6E0B
:10228E00C1EC27F0EC0E0B6E000E0C6EC1EC27F0BD
:10229E00EE0E0B6E000E0C6EEBEC27F05CEF12F0F8
:1022AE00E80E0B6E000E0C6EC1EC27F0EA0E0B6EF4
:1022BE00000E0C6EC1EC27F0EC0E0B6E000E0C6EC9
:1022CE00EBEC27F0EE0E0B6E000E0C6EC1EC27F051
:1022DE005CEF12F0E80E0B6E000E0C6EC1EC27F0E8
:1022EE00EA0E0B6E000E0C6EC1EC27F0EC0E0B6EB0
:1022FE00000E0C6EEBEC27F0EE0E0B6E000E0C6E5D
:10230E00EBEC27F05CEF12F0E80E0B6E000E0C6E8D
:10231E00C1EC27F0EA0E0B6E000E0C6EEBEC27F004
:10232E00EC0E0B6E000E0C6EC1EC27F0EE0E0B6E6B
:10233E00000E0C6EC1EC27F05CEF12F0E80E0B6E87
:10234E00000E0C6EC1EC27F0EA0E0B6E000E0C6E3A
:10235E00EBEC27F0EC0E0B6E000E0C6EC1EC27F0C2
:10236E00EE0E0B6E000E0C6EEBEC27F05CEF12F027
:10237E00E80E0B6E000E0C6EC1EC27F0EA0E0B6E23
:10238E00000E0C6EEBEC27F0EC0E0B6E000E0C6ECE
:10239E00EBEC27F0EE0E0B6E000E0C6EC1EC27F080
:1023AE005CEF12F0E80E0B6E000E0C6EC1EC27F017
:1023BE00EA0E0B6E000E0C6EEBEC27F0EC0E0B6EB5
:1023CE00000E0C6EEBEC27F0EE0E0B6E000E0C6E8C
:1023DE00EBEC27F05CEF12F0E80E0B6E000E0C6EBD
:1023EE00EBEC27F0EA0E0B6E000E0C6EC1EC27F034
:1023FE00EC0E0B6E000E0C6EC1EC27F0EE0E0B6E9B
:10240E00000E0C6EC1EC27F05CEF12F0E80E0B6EB6
:10241E00000E0C6EEBEC27F0EA0E0B6E000E0C6E3F
:10242E00C1EC27F0EC0E0B6E000E0C6EC1EC27F01B
:10243E00EE0E0B6E000E0C6EEBEC27F05CEF12F056
:10244E0010500E6E0F6A0F50000AD8B431EF12F012
:10245E005CEF12F00E50000AD8B423EF11F0010A0F
:10246E00D8B43DEF11F0030AD8B457EF11F0010ABA
:10247E00D8B471EF11F0070AD8B48BEF11F0010A3E
:10248E00D8B4A5EF11F0030AD8B4BFEF11F0010ACA
:10249E00D8B4D9EF11F00F0AD8B4F3EF11F0010A46
:1024AE00D8B40DEF12F05CEF12F012009E0E0B6E10
:1024BE00010E0C6E630E0D6E000E0E6EC4EC1AF055
:1024CE006250D8B46DEF12F06FEF12F077EF12F09A
:1024DE006228D8A475EF12F077EF12F0A4EF12F085
:1024EE00000E026E120E016E63C003F067EC29F04F
:1024FE00DD0E226E000E236E010E246E0F0E256E63
:10250E0063C026F0F3EC25F0030E346E8A0E336EA4
:10251E00560EE82EFED7332EFCD7342EFAD7DD0E0C
:10252E00226E000E236E010E246E0F0E256E2A0EE5
:10253E00266EF3EC25F092EF13F06204D8A4AAEF06
:10254E0012F0ACEF12F092EF13F09E0E0B6E010E26
:10255E000C6E630E0D6E000E0E6EC4EC1AF0DD0ED8
:10256E00226E000E236E010E246E130E256E63C0B6
:10257E0026F0F3EC25F0030E346E8A0E336E560EF3
:10258E00E82EFED7332EFCD7342EFAD7DD0E226E70
:10259E00000E236E010E246E130E256E2A0E266E6D
:1025AE00F3EC25F0000E026E120E016E350E036E68
:1025BE00000E046E00EC2AF063503518D8A4EAEF32
:1025CE0012F0ECEF12F0EEEF12F0010E506E52041C
:1025DE00D8A4F4EF12F0F6EF12F04DEF13F0510411
:1025EE00D8A4FCEF12F0FEEF12F04DEF13F05004F2
:1025FE00D8A404EF13F006EF13F04DEF13F0DD0E39
:10260E00146E000E156E010E166ED7EC23F0DD0E55
:10261E00226E000E236E010E246E010E256E320EFA
:10262E00266E100E276ECDEC24F0DD0E226E000EFF
:10263E00236E020E246E010E256E400E266E100EB7
:10264E00276ECDEC24F0E30E0B6E000E0C6E69ECD3
:10265E0028F0100E346E390E336E0E0EE82EFED7A5
:10266E00332EFCD7342EFAD7E30E0B6E000E0C6E03
:10267E003FEC28F0DD0E146E000E156E010E166E78
:10268E00D7EC23F02BEC1DF092EF13F0DD0E146E51
:10269E00000E156E010E166ED7EC23F0DD0E226EB7
:1026AE00000E236E010E246E010E256E5B0E266E3D
:1026BE00100E276ECDEC24F0DD0E226E000E236E72
:1026CE00020E246E010E256E120E266E100E276E51
:1026DE00CDEC24F00B0E346E260E336E5E0EE82E0D
:1026EE00FED7332EFCD7342EFAD7DD0E146E000E25
:1026FE00156E010E166ED7EC23F0DD0E226E000E57
:10270E00236E010E246E010E256E010E266E100E26
:10271E00276ECDEC24F012009E0E0B6E010E0C6E89
:10272E00650E0D6E000E0E6EC4EC1AF0230E6518BB
:10273E00D8A4A4EF13F0A6EF13F0EEEF13F062504F
:10274E00D8B4ACEF13F0AEEF13F0B6EF13F062287F
:10275E00D8A4B4EF13F0B6EF13F0CEEF13F0DD0EF6
:10276E00146E000E156E010E166ED7EC23F0DD0EF4
:10277E00226E000E236E010E246E010E256E4E0E7D
:10278E00266E100E276ECDEC24F075EF14F0620459
:10279E00D8A4D4EF13F0D6EF13F075EF14F0DD0ECE
:1027AE00146E000E156E010E166ED7EC23F0DD0EB4
:1027BE00226E000E236E010E246E010E256E010E8A
:1027CE00266E100E276ECDEC24F075EF14F06250CD
:1027DE00D8B4F4EF13F0F6EF13F0FEEF13F0622817
:1027EE00D8A4FCEF13F0FEEF13F02BEF14F0000E55
:1027FE00026E100E016E65C003F067EC29F0DD0E5F
:10280E00226E000E236E010E246E0D0E256E65C017
:10281E0026F0F3EC25F0030E2B6E8A0E2A6E560E62
:10282E00E82EFED72A2EFCD72B2EFAD7DD0E226EDF
:10283E00000E236E010E246E0D0E256E2A0E266ED0
:10284E00F3EC25F075EF14F06204D8A431EF14F018
:10285E0033EF14F075EF14F09E0E0B6E010E0C6E2E
:10286E00650E0D6E000E0E6EC4EC1AF0DD0E226EAD
:10287E00000E236E010E246E110E256E65C026F01D
:10288E00F3EC25F0030E2B6E8A0E2A6E560EE82EF2
:10289E00FED72A2EFCD72B2EFAD7DD0E226E000E77
:1028AE00236E010E246E110E256E2A0E266EF3EC8B
:1028BE0025F0000E026E100E016E2C0E036E000E31
:1028CE00046E00EC2AF065502C18D8A471EF14F0A9
:1028DE0073EF14F075EF14F0010E526E120000013A
:1028EE00966F00019651D8B47FEF14F081EF14F07B
:1028FE00A3EF14F091BF88EF14F086EF14F0A3EF5E
:10290E0014F08EC092F08FC093F090C094F091C0EE
:10291E0095F0921F931F941F951F922B000E9323D9
:10292E009423952392C098F093C099F094C09AF096
:10293E0095C09BF0ABEF14F08EC098F08FC099F05D
:10294E0090C09AF091C09BF08E518F119011911101
:10295E00D8A4B4EF14F0B6EF14F0C0EF14F0000EDC
:10296E008E6F000E8F6F000E906F000E916F51EFF5
:10297E0015F0960E976FCAEF14F0972BD8909B33E5
:10298E009A3399339833000E9815926F000E99155D
:10299E00936F000E9A15946FFE0E9B15956F9251C4
:1029AE00931194119511D8A4DFEF14F0E1EF14F008
:1029BE00C4EF14F0EFEF14F0972B010E9827000ED2
:1029CE0099239A239B23D8909B339A339933983328
:1029DE00000E9815926F000E9915936F000E9A15B2
:1029EE00946FFF0E9B15956F925193119411951143
:1029FE00D8A404EF15F006EF15F0E3EF14F00EEF88
:102A0E0015F09707D890983799379A379B379ABF12
:102A1E0013EF15F015EF15F01DEF15F0020E97617F
:102A2E001BEF15F01DEF15F008EF15F097B122EF23
:102A3E0015F024EF15F025EF15F09A9FD8909733E7
:102A4E0097C092F0936B946B956B92C095F0946BCC
:102A5E00936B926B925198139351991394519A13BD
:102A6E0095519B139651D8B43FEF15F041EF15F0E9
:102A7E0049EF15F091BF48EF15F046EF15F049EF0D
:102A8E0015F09B8F98C08EF099C08FF09AC090F081
:102A9E009BC091F01200000E0001AB6F000EAD6FE7
:102AAE00A751A811D8A45EEF15F060EF15F062EFF4
:102ABE0015F000EF16F0010EA725986F000EA82155
:102ACE00996FBAEC25F00001AB6FA7C098F0A8C0C3
:102ADE0099F0BAEC25F00001AB6F000EAC6F88EFE9
:102AEE0015F0AC51A725A96F000EA821AA6F020EF2
:102AFE00A925986F000EAA21996FBAEC25F0000156
:102B0E00AC2BDC51AC5DD8A08FEF15F091EF15F02A
:102B1E0078EF15F0340E0001A96FF10EE82EFED7F6
:102B2E00A92FFCD700D0A7C0A1F0A8C0A2F0380EE4
:102B3E000001A36FD5EC22F00D0E0001A96FFB0E64
:102B4E00E82EFED7A92FFCD700D0A7C0A1F0A8C0B1
:102B5E00A2F0380E0001A36FD5EC22F0020E000198
:102B6E00AA6F860EA96F990EE82EFED7A92FFCD755
:102B7E00AA2FFAD7A7C0A1F0A8C0A2F0380E000164
:102B8E00A36FD5EC22F0A7C0A1F0A8C0A2F0010E51
:102B9E000001A36FD5EC22F0A7C0A1F0A8C0A2F04F
:102BAE00020E0001A36FD5EC22F0A7C0A1F0A8C0C1
:102BBE00A2F0060E0001A36FD5EC22F0A7C0A1F083
:102BCE00A8C0A2F00C0E0001A36FD5EC22F0A7C096
:102BDE00A1F0A8C0A2F0800E0001A36FD5EC22F0E8
:102BEE00A7C0A1F0A8C0A2F0280E0001A36FD5ECDB
:102BFE0022F0120000018E518F11D8B409EF16F099
:102C0E000BEF16F024EF16F08EC0D9FF8FC0DAFF4F
:102C1E00DF30E832E832070B916F080E91611AEF40
:102C2E0016F01CEF16F024EF16F0010E906522EF51
:102C3E0016F024EF16F08BEF16F0000E976FACEF38
:102C4E0016F08EC0D9FF8FC0DAFFDF30E832E832DF
:102C5E00070B916F010E926F912B38EF16F0D890F3
:102C6E009237912F36EF16F000019251FF0A936FB3
:102C7E008EC0D9FF8FC0DAFFDF50070B946F9451CF
:102C8E00020D1A0EF324D96E010EF420DA6EDECF89
:102C9E0095F0DDCF96F095C0D9FF96C0DAFF93512F
:102CAE00DF16A0EF16F08EC0D9FF8FC0DAFFDF302F
:102CBE00E832E832070B916F010E926F912B6AEF9B
:102CCE0016F0D8909237912F68EF16F08EC0D9FF7C
:102CDE008FC0DAFFDF50070B0001936F9351020D87
:102CEE001A0EF324D96E010EF420DA6EDECF94F0B4
:102CFE00DDCF95F094C0D9FF95C0DAFF9251DF1267
:102D0E00A0EF16F0A0EF16F09051916F926B9251CA
:102D1E00000AD8B495EF16F089EF16F09151000A1B
:102D2E00D8B428EF16F0010AD8B45AEF16F089EF8E
:102D3E0016F08EC0D9FF8FC0DAFF90B102D0DF9EA1
:102D4E0002D00001DF8E010E976F97511200000125
:102D5E008E518F11D8B4B6EF16F0B8EF16F0D1EF42
:102D6E0016F08EC0D9FF8FC0DAFFDF30E832E832BE
:102D7E00070B916F080E9161C7EF16F0C9EF16F0B1
:102D8E00D1EF16F0010E9065CFEF16F0D1EF16F0E1
:102D9E0038EF17F0000E976F59EF17F08EC0D9FF6E
:102DAE008FC0DAFFDF30E832E832070B916F010E89
:102DBE00926F912BE5EF16F0D8909237912FE3EFAB
:102DCE0016F000019251FF0A936F8EC0D9FF8FC08B
:102DDE00DAFFDF50070B946F9451020D240EF3248B
:102DEE00D96E010EF420DA6EDECF95F0DDCF96F0BF
:102DFE0095C0D9FF96C0DAFF9351DF164DEF17F04D
:102E0E008EC0D9FF8FC0DAFFDF30E832E832070B11
:102E1E00916F010E926F912B17EF17F0D89092379A
:102E2E00912F15EF17F08EC0D9FF8FC0DAFFDF504C
:102E3E00070B0001936F9351020D240EF324D96EEC
:102E4E00010EF420DA6EDECF94F0DDCF95F094C053
:102E5E00D9FF95C0DAFF9251DF124DEF17F04DEF0B
:102E6E0017F09051916F926B9251000AD8B442EFC5
:102E7E0017F036EF17F09151000AD8B4D5EF16F0CF
:102E8E00010AD8B407EF17F036EF17F08EC0D9FF4E
:102E9E008FC0DAFF90B102D0DF9C02D00001DF8C30
:102EAE00010E976F9751120001500210D8B462EFC5
:102EBE0017F064EF17F07DEF17F001C0D9FF02C0D5
:102ECE00DAFFDF30E832E832070B046E080E0460DA
:102EDE0073EF17F075EF17F07DEF17F0010E036427
:102EEE007BEF17F07DEF17F0E2EF17F0000E0A6E92
:102EFE0002EF18F001C0D9FF02C0DAFFDF30E8326E
:102F0E00E832070B046E010E056E042A91EF17F0DE
:102F1E00D8900536042E8FEF17F00550FF0A066E77
:102F2E0001C0D9FF02C0DAFFDF50070B076E075052
:102F3E00020D1A0EF324D96E010EF420DA6EDECFD6
:102F4E0008F0DDCF09F008C0D9FF09C0DAFF06503E
:102F5E00DF16F7EF17F001C0D9FF02C0DAFFDF303E
:102F6E00E832E832070B046E010E056E042AC2EF3A
:102F7E0017F0D8900536042EC0EF17F001C0D9FF18
:102F8E0002C0DAFFDF50070B066E0650020D1A0E56
:102F9E00F324D96E010EF420DA6EDECF07F0DDCF0A
:102FAE0008F007C0D9FF08C0DAFF0550DF12F7EFAF
:102FBE0017F0F7EF17F00350046E056A0550000A7C
:102FCE00D8B4ECEF17F0E0EF17F00450000AD8B4C5
:102FDE0081EF17F0010AD8B4B2EF17F0E0EF17F057
:102FEE0001C0D9FF02C0DAFF03B002D0DF9E01D0CC
:102FFE00DF8E010E0A6E0A50120000018E518F11E3
:10300E00D8A40CEF18F00EEF18F07AEF18F0000EAF
:10301E00926F99EF18F020EE03F08E51D9268F5152
:10302E00DA22DE04D8A41EEF18F020EF18F023EFFA
:10303E0018F0F18C32EF18F020EE03F08E51D926F5
:10304E008F51DA22DF50D8A42FEF18F031EF18F09D
:10305E0032EF18F0F19C010E926F99EF18F020EEFE
:10306E0003F08E51D9268F51DA22DE04D8A442EF16
:10307E0018F044EF18F047EF18F0F18A32EF18F01D
:10308E0020EE03F08E51D9268F51DA22DF50D8A4CC
:10309E0053EF18F055EF18F032EF18F0F19A32EFB7
:1030AE0018F020EE03F08E51D9268F51DA22DE046D
:1030BE00D8A464EF18F066EF18F069EF18F0F188F5
:1030CE0032EF18F020EE03F08E51D9268F51DA220E
:1030DE00DF50D8A475EF18F077EF18F032EF18F034
:1030EE00F19832EF18F020EE04F08E51D9268F5160
:1030FE00DA22DF50906F916B9151000AD8B48AEFAB
:10310E0018F00EEF18F09051000AD8B412EF18F024
:10311E00010AD8B436EF18F0030AD8B458EF18F0F5
:10312E000EEF18F0925112006250D8B4A1EF18F0C1
:10313E00A3EF18F0ABEF18F06228D8A4A9EF18F09F
:10314E00ABEF18F0E2EF18F09E0E0B6E010E0C6E48
:10315E00640E0D6E000E0E6EC4EC1AF0000E026EB2
:10316E00110E016E64C003F067EC29F0DD0E226EC5
:10317E00000E236E010E246E0E0E256E64C026F018
:10318E00F3EC25F0030E2B6E8A0E2A6E560EE82EE9
:10319E00FED72A2EFCD72B2EFAD7DD0E226E000E6E
:1031AE00236E010E246E0E0E256E2A0E266EF3EC85
:1031BE0025F02CEF19F06204D8A4E8EF18F0EAEF2E
:1031CE0018F02CEF19F09E0E0B6E010E0C6E640EA5
:1031DE000D6E000E0E6EC4EC1AF0DD0E226E000E99
:1031EE00236E010E246E120E256E64C026F0F3ECD3
:1031FE0025F0030E2B6E8A0E2A6E560EE82EFED783
:10320E002A2EFCD72B2EFAD7DD0E226E000E236E41
:10321E00010E246E120E256E2A0E266EF3EC25F08C
:10322E00000E026E110E016E2C0E036E000E046E59
:10323E0000EC2AF064502C18D8A428EF19F02AEFCD
:10324E0019F02CEF19F0010E516E120000018E5183
:10325E008F11D8A435EF19F037EF19F08DEF19F063
:10326E00000E926FB5EF19F08EC0D9FF8FC0DAFF46
:10327E00DECF48F0DDCF49F020EE02F08E51D92698
:10328E008F51DA22DECFD3F0DDCFD4F0B3EF19F0C9
:10329E008EC0D9FF8FC0DAFFDECF46F0DDCF47F00C
:1032AE0020EE02F08E51D9268F51DA22DECFD1F0E8
:1032BE00DDCFD2F0B3EF19F08EC0D9FF8FC0DAFF99
:1032CE00DECF44F0DDCF45F020EE02F08E51D92650
:1032DE008F51DA22DECFCFF0DDCFD0F0B3EF19F081
:1032EE008EC0D9FF8FC0DAFFDECF42F0DDCF43F0C4
:1032FE0020EE02F08E51D9268F51DA22DECFCDF09C
:10330E00DDCFCEF0B3EF19F0B3EF19F020EE04F0ED
:10331E008E51D9268F51DA22DF30E832E832070B90
:10332E00906F916B9151000AD8B4A0EF19F08BEF0A
:10333E0019F09051040AD8B43BEF19F0010AD8B431
:10334E004FEF19F0030AD8B463EF19F0010AD8B49D
:10335E0077EF19F08BEF19F0010E926F9251120068
:10336E00000E00019E6F98519911D8B4C1EF19F05B
:10337E00C3EF19F0CCEF19F09A519B11D8A4CAEFF4
:10338E0019F0CCEF19F0CEEF19F03FEF1AF0000E56
:10339E00A16F000EA06FA05198258E6F000E99217F
:1033AE008F6F000E906F01EC16F00001A02B030E34
:1033BE00A065E4EF19F0E6EF19F0D2EF19F0A15184
:1033CE0098258E6F000E99218F6F010E906F01EC74
:1033DE0016F01A0E00019C6FF80EE82EFED79C2FE9
:1033EE00FCD700F0000E0001A26FA25198259C6F31
:1033FE00000E99219D6F040E9C258E6F000E9D214F
:10340E008F6F9F0E906F000E916F03EC1EF00001F8
:10341E009F05D8A415EF1AF017EF1AF02DEF1AF03A
:10342E00A151040D000E9C6F010E9D6FF3509C2751
:10343E00F4509D23A2519C25D96E000E9D21DA6E6B
:10344E009AC0E1FF9BC0E2FFDFCFE7FFA22B030E86
:10345E00A26534EF1AF036EF1AF0FCEF19F0A12B3B
:10346E00030EA1653DEF1AF03FEF1AF0D0EF19F001
:10347E001200000190359135976F9751D8A44AEFFD
:10348E001AF04CEF1AF056EF1AF0000E8E6F000E77
:10349E008F6F000E906F000E916FC3EF1AF08EC0FB
:1034AE0092F08FC093F090C094F091C095F0200EE2
:1034BE0066EF1AF0D8909533943393339233E82E07
:1034CE0061EF1AF09251966F908FFF0E8E17FF0ECE
:1034DE008F17FF0E9017000E9117960E975F97BFDE
:1034EE007DEF1AF07BEF1AF093EF1AF09751800AE6
:1034FE00970FD8B085EF1AF087EF1AF089EF1AF010
:10350E004CEF1AF0D890913390338F338E33973F20
:10351E0089EF1AF0ABEF1AF01F0E976599EF1AF0BC
:10352E009BEF1AF0A3EF1AF04CEF1AF0D8908E37EB
:10353E008F379037913797079751D8A4A9EF1AF084
:10354E00ABEF1AF09DEF1AF09651D8B4B1EF1AF016
:10355E00B3EF1AF0BBEF1AF0911F901F8F1F8E6DF5
:10356E00000E8F23902391238EC08EF08FC08FF08C
:10357E0090C090F091C091F01200000E116E0B50A1
:10358E000C10D8B4CDEF1AF0CFEF1AF0D8EF1AF026
:10359E000D500E10D8A4D6EF1AF0D8EF1AF0DAEFBD
:1035AE001AF047EF1BF0000E146E000E136E135040
:1035BE000B24016E000E0C20026E000E036E5BECEF
:1035CE0017F0132A030E1364EFEF1AF0F1EF1AF04F
:1035DE00DEEF1AF014500B24016E000E0C20026E5A
:1035EE00010E036E5BEC17F01A0E0F6EF80EE82E3E
:1035FE00FED70F2EFCD700D0000E156E15500B24E3
:10360E000F6E000E0C20106E040E0F24016E000EB5
:10361E001020026E120E036E000E046EBDEC1EF034
:10362E001204D8A41DEF1BF01FEF1BF035EF1BF09B
:10363E001450040D000E0F6E010E106EF3500F2677
:10364E00F450102215500F24D96E000E1020DA6E91
:10365E000DC0E1FF0EC0E2FFDFCFE7FF152A030E1C
:10366E0015643CEF1BF03EEF1BF005EF1BF0142A28
:10367E00030E146445EF1BF047EF1BF0DCEF1AF05E
:10368E001200CAEC2BF094EC2BF00009D8B452EFD8
:10369E001BF054EF1BF066EF1BF08AEC2BF00009C9
:1036AE00D8B45CEF1BF05EEF1BF062EF1BF0010E67
:1036BE00576EA6EF1BF0020E576EA6EF1BF08AECAC
:1036CE002BF00009D8B46EEF1BF070EF1BF074EF07
:1036DE001BF0030E576EA6EF1BF0040E576EA6EFEF
:1036EE001BF0ADEC2AF076EC2BF00009D8B482EF8B
:1036FE001BF084EF1BF0C3EF1BF096EC2AF0C3EF28
:10370E001BF0ADEC2AF0C3EF1BF076EC2BF00009AA
:10371E00D8B494EF1BF096EF1BF0C3EF1BF084EFC1
:10372E001BF080EC2BF00009D8B4A0EF1BF0A2EF39
:10373E001BF0C3EF1BF006EC2BF0C3EF1BF0575042
:10374E00026E036A0350000AD8B4B0EF1BF0C3EF49
:10375E001BF00250010AD8B478EF1BF0030AD8B45C
:10376E0088EF1BF0010AD8B48CEF1BF0070AD8B40F
:10377E0098EF1BF0C3EF1BF0C8EC2BF012005E0E9F
:10378E000101EB6F010EEC6FBCEC28F0F00E0001A6
:10379E009D6F000E9E6F97EC27F0EE0E00019D6F51
:1037AE00000E9E6F97EC27F0EC0E00019D6F000E41
:1037BE009E6F97EC27F0EA0E00019D6F000E9E6F34
:1037CE0097EC27F0E80E00019D6F000E9E6F97ECB0
:1037DE0027F0E60E00019D6F000E9E6F6DEC27F038
:1037EE00CB0E0001A06F010EA16F90EC24F0C50E60
:1037FE000001A06F010EA16F90EC24F0BF0E00012E
:10380E00A06F010EA16F90EC24F0B90E00019D6F18
:10381E00010E9E6F41EC27F0B30E00019D6F010E5D
:10382E009E6F41EC27F0AD0E00019D6F010E9E6F55
:10383E0041EC27F0A60E0001916F010E926F6CEC19
:10384E0021F0E30E00019D6F000E9E6F93EC28F0A9
:10385E00DD0E0001A76F000EA86F52EC15F09E0E44
:10386E0000019D6F010E9E6F53EC24F0120062500A
:10387E00D8A444EF1CF046EF1CF07DEF1CF0010EB7
:10388E00626E000E026E130E016E62C003F067ECE4
:10389E0029F0DD0E146E000E156E010E166ED7ECAD
:1038AE0023F0DD0E226E000E236E020E246E010E2C
:1038BE00256E670E266E100E276ECDEC24F00B0EC5
:1038CE00346E260E336E5E0EE82EFED7332EFCD7E8
:1038DE00342EFAD7DD0E146E000E156E010E166E16
:1038EE00D7EC23F02BEC1DF0B4EF1CF06204D8A43F
:1038FE0083EF1CF085EF1CF0B4EF1CF0DD0E146EA0
:10390E00000E156E010E166ED7EC23F0DD0E226E34
:10391E00000E236E020E246E010E256E230E266EF1
:10392E00100E276ECDEC24F0E30E0B6E000E0C6E17
:10393E0015EC28F0100E346E390E336E0E0EE82E86
:10394E00FED7332EFCD7342EFAD7E30E0B6E000EB5
:10395E000C6E3FEC28F071EF1CF01200DD0E000132
:10396E00AF6F000EB06F010EB16F070EB26F720E19
:10397E00B36F100EB46F99EC23F0DD0E0101D16F11
:10398E00000ED26F020ED36F090ED46F960ED56F46
:10399E00010ED66F000ED76F61EC1EF0DD0E010129
:1039AE00D16F000ED26F020ED36F0A0ED46F8E0E31
:1039BE00D56F010ED66F010ED76F61EC1EF0DD0EC6
:1039CE000101D16F000ED26F020ED36F0B0ED46FAA
:1039DE00860ED56F010ED66F020ED76F61EC1EF0FC
:1039EE00DD0E0101D16F000ED26F030ED36F090EE3
:1039FE00D46F7E0ED56F010ED66F030ED76F61ECAE
:103A0E001EF0DD0E0101D16F000ED26F030ED36FCB
:103A1E000A0ED46F760ED56F010ED66F040ED76FC9
:103A2E0061EC1EF0DD0E0101D16F000ED26F030EA0
:103A3E00D36F0B0ED46F6E0ED56F010ED66F050EB3
:103A4E00D76F61EC1EF01200DD0E226E000E236E9B
:103A5E00010E246E070E256E720E266E100E276E48
:103A6E00CDEC24F0DD0E2A6E000E2B6E020E2C6EA7
:103A7E00090E2D6E960E2E6E010E2F6E000E306EEE
:103A8E00CBEC1FF0DD0E2A6E000E2B6E020E2C6E8E
:103A9E000A0E2D6E8E0E2E6E010E2F6E010E306ED4
:103AAE00CBEC1FF0DD0E2A6E000E2B6E020E2C6E6E
:103ABE000B0E2D6E860E2E6E010E2F6E020E306EBA
:103ACE00CBEC1FF0DD0E2A6E000E2B6E030E2C6E4D
:103ADE00090E2D6E7E0E2E6E010E2F6E030E306EA3
:103AEE00CBEC1FF0DD0E2A6E000E2B6E030E2C6E2D
:103AFE000A0E2D6E760E2E6E010E2F6E040E306E89
:103B0E00CBEC1FF0DD0E2A6E000E2B6E030E2C6E0C
:103B1E000B0E2D6E6E0E2E6E010E2F6E050E306E6E
:103B2E00CBEC1FF012003738392F3435362A3132AC
:103B3E00332D23303D2B800F810F820F830F840F87
:103B4E00890F8A0F8B0F8C0F8D0F920F930F940F7F
:103B5E00950F960F1F1F0F07161C18101F00001F22
:103B6E001F1F1F1F1F1F1E1C0D07030110181C06F1
:103B7E00031F1F1F1F1F1F0E041F1F1F0103070EF2
:103B8E001C1F1F1F80250000000003000000000006
:103B9E00000000001B03070F1E1C18101F00000062
:103BAE00001F1F1F13181C1E0F07030110181C06E1
:103BBE00071F1F1F1F1F1F0E0E1F1F1F0103070EA4
:103BCE001E1F1F1F08101828010911213856000446
:103BDE00DC0B045E5600003100D656000029007C36
:103BEE003800002100BA241101020036310901010A
:073BFE000026270101000071
:103C060000018E518F11D8B40BEF1EF00DEF1EF090
:103C160027EF1EF090519111D8B414EF1EF016EF55
:103C26001EF027EF1EF08EC0D9FF8FC0DAFFDF30FF
:103C3600E832E832070B926F070E926525EF1EF009
:103C460027EF1EF02BEF1EF0000E976F5FEF1EF0B2
:103C56008EC0D9FF8FC0DAFFDF30E832E832070BBB
:103C6600926F8EC0D9FF8FC0DAFFDF50070B936FBC
:103C76009351020D100EF324D96E010EF420DA6E64
:103C8600DECF94F0DDCF95F094C0D9FF95C0DAFF72
:103C9600DF50966F922B52EF1EF0D8909633922FEC
:103CA60050EF1EF000019651010B90C0D9FF91C054
:103CB600DAFFDF6E010E976F97511200000E0101B9
:103CC600D86F000ED96FD151D211D8B46DEF1EF056
:103CD6006FEF1EF07FEF1EF0050ED36175EF1EF03D
:103CE60077EF1EF07FEF1EF0140ED4657DEF1EF009
:103CF6007FEF1EF081EF1EF0BCEF1EF0D1C1A1F0E8
:103D0600D2C1A2F0D751080DF350400F0001A36FA6
:103D1600D5EC22F0000E0001D96F070ED96596EF9B
:103D26001EF098EF1EF09AEF1EF0B0EF1EF0D1C114
:103D3600A1F0D2C1A2F0D9510101D525D96E000159
:103D4600000E0101D621DA6EDF500001A36F91EC5F
:103D560022F00001D92B90EF1EF0D1C1AFF0D2C1F5
:103D6600B0F0D3C1B1F0D4C1B2F0D7C1B3F00AEC10
:103D760025F0120001500210D8B4C4EF1EF0C6EFB1
:103D86001EF0E0EF1EF003500410D8B4CDEF1EF085
:103D9600CFEF1EF0E0EF1EF001C0D9FF02C0DAFF40
:103DA600DF30E832E832070B056E070E0564DEEFFA
:103DB6001EF0E0EF1EF0E4EF1EF0000E0A6E17EFA5
:103DC6001FF001C0D9FF02C0DAFFDF30E832E83267
:103DD600070B056E01C0D9FF02C0DAFFDF50070BE3
:103DE600066E0650020D100EF324D96E010EF42055
:103DF600DA6EDECF07F0DDCF08F007C0D9FF08C0C6
:103E0600DAFFDF50096E052A0BEF1FF0D890093252
:103E1600052E09EF1FF00950010B03C0D9FF04C09E
:103E2600DAFFDF6E010E0A6E0A5012000001915190
:103E36009211D8A421EF1FF023EF1FF051EF1FF0CE
:103E4600000E956F70EF1FF091C0D9FF92C0DAFF98
:103E5600DECF8EF0DDCF8FF0F0EC2AF00001956F0B
:103E660070EF1FF091C0D9FF92C0DAFFDECF8EF05F
:103E7600DDCF8FF0DAEC2AF00001956F70EF1FF0BE
:103E860091C0D9FF92C0DAFFDECF8EF0DDCF8FF082
:103E9600C4EC2AF00001956F70EF1FF020EE04F0DD
:103EA6009151D9269251DA22DF50936F946B945137
:103EB600000AD8B461EF1FF023EF1FF09351000AF8
:103EC600D8B427EF1FF0010AD8B435EF1FF0030A64
:103ED600D8B443EF1FF023EF1FF0955112000001F5
:103EE60020EE04F08E51D9268F51DA22DFA07EEF24
:103EF6001FF080EF1FF0CAEF1FF0AC8A20EE04F02F
:103F06008E51D9268F51DA22DFA28CEF1FF08EEF69
:103F16001FF09EEF1FF09D98F28EF28C9D8820EE8A
:103F260008F08E51D9268F51DA22DECFC5F0DDCFCB
:103F3600C6F0ACEF1FF020EE04F08E51D9268F515B
:103F4600DA22DFB2A9EF1FF0ABEF1FF0ACEF1FF0E4
:103F56009D9820EE04F08E51D9268F51DA22DFA4E7
:103F6600B7EF1FF0B9EF1FF0BCEF1FF0AC8CCAEF34
:103F76001FF020EE04F08E51D9268F51DA22DFB4DD
:103F8600C7EF1FF0C9EF1FF0CAEF1FF0AC9C12007D
:103F9600000E316E000E326E2A502B10D8B4D6EFBA
:103FA6001FF0D8EF1FF0E8EF1FF0050E2C60DEEFD4
:103FB6001FF0E0EF1FF0E8EF1FF0140E2D64E6EFA0
:103FC6001FF0E8EF1FF0EAEF1FF020EF20F02AC005
:103FD60014F02BC015F03050080DF350400F166E3C
:103FE600D7EC23F0000E0001D96F070ED965FEEF5E
:103FF6001FF000EF20F002EF20F014EF20F02AC0AF
:1040060014F02BC015F0D9512E24D96E000E2F2096
:10401600DA6EDF50166E15EC24F00001D92BF8EF9E
:104026001FF02AC022F02BC023F02CC024F02DC094
:1040360025F030C026F0F3EC25F01200000E00014A
:10404600AB6F000EAC6FA751A811D8B42DEF20F0BE
:104056002FEF20F038EF20F0A951AA11D8A436EF9F
:1040660020F038EF20F058EF20F0000EAD6F74EF1F
:1040760020F0A7C0A1F0A8C0A2F0A9C0F6FFAAC070
:10408600F7FF000EF86E0F0EF76403D00800F55028
:1040960005D0F6CFE9FFF7CFEAFFEF500001A36F97
:1040A60091EC22F00001A94BAA2BA9C0F6FFAAC0E9
:1040B600F7FF000EF86E0F0EF76403D00800F550F8
:1040C60005D0F6CFE9FFF7CFEAFFEF500009D8A4F5
:1040D6006FEF20F071EF20F03CEF20F0010E0001B1
:1040E600AD6FAD511200000E0001AD6F000EAE6F48
:1040F600AA07AAEF20F0A7C0A1F0A8C0A2F0AA5173
:10410600800FA36FD5EC22F0C7EF20F0A7C0A1F077
:10411600A8C0A2F0AA51C00FA36FD5EC22F0C7EF3A
:1041260020F0A7C0A1F0A8C0A2F0AA51940FA36FD7
:10413600D5EC22F0C7EF20F0A7C0A1F0A8C0A2F0EE
:10414600AA51D40FA36FD5EC22F0C7EF20F0A951E6
:10415600AB6FAC6BAC51000AD8B4B4EF20F0C7EF2C
:1041660020F0AB51010AD8B47EEF20F0030AD8B490
:1041760089EF20F0010AD8B494EF20F0070AD8B4EA
:104186009FEF20F0C7EF20F0000E1200000E206E09
:10419600000E216E1D06FCEF20F01AC014F01BC0A5
:1041A60015F01D50800F166ED7EC23F019EF21F095
:1041B6001AC014F01BC015F01D50C00F166ED7ECB8
:1041C60023F019EF21F01AC014F01BC015F01D5092
:1041D600940F166ED7EC23F019EF21F01AC014F0E5
:1041E6001BC015F01D50D40F166ED7EC23F019EF37
:1041F60021F01C501E6E1F6A1F50000AD8B406EF2D
:1042060021F019EF21F01E50010AD8B4D0EF20F0AA
:10421600030AD8B4DBEF20F0010AD8B4E6EF20F0A9
:10422600070AD8B4F1EF20F019EF21F0000E1200C2
:10423600000E1E6E000E1F6E1A501B10D8B426EF0D
:1042460021F028EF21F031EF21F01C501D10D8A4E9
:104256002FEF21F031EF21F04FEF21F0000E206E0D
:104266006AEF21F01AC014F01BC015F01CC0F6FF4F
:104276001DC0F7FF000EF86E0F0EF76403D008009E
:10428600F55005D0F6CFE9FFF7CFEAFFEF50166EEF
:1042960015EC24F01C4A1D2A1CC0F6FF1DC0F7FFB2
:1042A600000EF86E0F0EF76403D00800F55005D027
:1042B600F6CFE9FFF7CFEAFFEF500009D8A466EF83
:1042C60021F068EF21F035EF21F0010E206E20502D
:1042D6001200000191519211D8A474EF21F076EFEB
:1042E60021F078EF21F0BAEF21F0D59E91C08EF043
:1042F60092C08FF0BCEC26F091C08EF092C08FF089
:1043060059EC23F091C08EF092C08FF089EC29F021
:10431600000120EE04F09151D9269251DA22DECF27
:1043260093F0DDCF94F094C093F0946B9351D76ED5
:1043360020EE04F09151D9269251DA22DF50D66E42
:1043460020EE04F09151D9269251DA22DECF3EF0CA
:10435600DDCF3FF0F294F28EF28CF28A91C0D9FF53
:1043660092C0DAFFDECF40F0DDCF41F0D58E1200ED
:10437600000120EE06F08E51D9268F51DA22DFA0F9
:10438600C7EF21F0C9EF21F005EF22F0AB8820EE50
:1043960006F08E51D9268F51DA22DFA2D5EF21F011
:1043A600D7EF21F0D9EF21F0E7EF21F020EE06F06C
:1043B6008E51D9268F51DA22DFB2E4EF21F0E6EFF3
:1043C60021F0E7EF21F09D9A20EE06F08E51D926D6
:1043D6008F51DA22DFA4F2EF21F0F4EF21F0F7EFAC
:1043E60021F0AC8C05EF22F020EE06F08E51D92696
:1043F6008F51DA22DFB402EF22F004EF22F005EF4C
:1044060022F0AC9C1200340EF66E3B0EF76E000ED8
:10441600F86E01EE00F010EED1F00900F5CFEEFFD8
:10442600E550E150FAE1C00EF66E560EF76E000E3C
:10443600F86E00EEDCF010EE16F00900F5CFEEFF98
:10444600E550E150FAE1540EF66E570EF76E000E87
:10445600F86E00EE68F010EE0BF00900F5CFEEFFF7
:10446600E550E150FAE101EEEDF00A0EEE6AE806DB
:10447600FDE100EEB7F0250EEE6AE806FDE100EE7E
:1044860036F0320EEE6AE806FDE173907392000193
:104496004DEF22F0C6EC1BF0B5EC1CF0000E00014F
:1044A6008F6F130E8E6F620E906F000E916FC7ECBA
:1044B60029F09E0E0001986F010E996FDA0E9A6F21
:1044C600000E9B6FB7EC19F0DB0E00018E6F000E2D
:1044D6008F6F52EC2BF0320E0001DB6175EF22F08C
:1044E60077EF22F07FEF22F0E60E986F000E996FBD
:1044F60015EC27F05CEF22F0320EDB6585EF22F03B
:1045060087EF22F05CEF22F0E60E986F000E996FAF
:10451600E9EC26F05CEF22F007EF00F0000E000158
:10452600A46F000EA56FA151A211D8A49DEF22F091
:104536009FEF22F0A3EF22F0000EA66FD3EF22F03A
:10454600A1C08EF0A2C08FF0010E906F01EC16F0A4
:10455600A1C098F0A2C099F00001A3390F0B9A6F81
:104566002CEC26F00001A56FA1C098F0A2C099F02E
:10457600A9EC29F00001A56FA1C098F0A2C099F09E
:10458600A3C09AF02CEC26F00001A56FA1C098F00C
:10459600A2C099F0A9EC29F00001A56F010EA66F43
:1045A600A6511200000E0001A46F000EA56FA151C6
:1045B600A211D8A4E1EF22F0E3EF22F0E7EF22F018
:1045C600000EA66F17EF23F0A1C08EF0A2C08FF0E9
:1045D600000E906F01EC16F0A1C098F0A2C099F001
:1045E6000001A3390F0B9A6F2CEC26F00001A56F82
:1045F600A1C098F0A2C099F0A9EC29F00001A56F1E
:10460600A1C098F0A2C099F0A3C09AF02CEC26F0B5
:104616000001A56FA1C098F0A2C099F0A9EC29F0FD
:104626000001A56F010EA66FA651120000018E5162
:104636008F11D8A421EF23F023EF23F038EF23F0D6
:10464600000E926F57EF23F0F28EF28CF288010E75
:10465600926F57EF23F0F28EF28CF0862AEF23F05A
:10466600F28EF28CF0882AEF23F020EE04F08E51C1
:10467600D9268F51DA22DF50906F916B9151000A43
:10468600D8B448EF23F023EF23F09051000AD8B4B2
:1046960027EF23F0010AD8B42EEF23F0030AD8B48B
:1046A60033EF23F023EF23F092511200000120EEA6
:1046B60006F08E51D9268F51DA22DFA465EF23F05A
:1046C60067EF23F06AEF23F0D59A98EF23F020EEF8
:1046D60006F08E51D9268F51DA22DFB475EF23F01A
:1046E60077EF23F098EF23F0D58A20EE06F08E516F
:1046F600D9268F51DA22DFB683EF23F085EF23F038
:1047060088EF23F0D59898EF23F020EE06F08E512F
:10471600D9268F51DA22DFA693EF23F095EF23F007
:1047260098EF23F0D58898EF23F01200000E0001D1
:10473600B56F000EB66FAF51B011D8B4A5EF23F028
:10474600A7EF23F0C0EF23F0B351B411D8B4AEEF06
:1047560023F0B0EF23F0C0EF23F0050EB161B6EF02
:1047660023F0B8EF23F0C0EF23F0280EB265BEEFBA
:1047760023F0C0EF23F0C2EF23F0D6EF23F0AFC053
:10478600A7F0B0C0A8F0B1C0A9F0B2C0AAF076EC0C
:1047960020F0AFC0A7F0B0C0A8F0B3C0A9F0B4C075
:1047A600AAF021EC20F01200000E176E000E186E13
:1047B60014501510D8A4E2EF23F0E4EF23F0E8EF4D
:1047C60023F0000E196E13EF24F014C001F015C08B
:1047D60002F0000E036E5BEC17F014C00BF015C070
:1047E6000CF016380F0B0D6E5EEC26F0186E14C02A
:1047F6000BF015C00CF0E4EC29F0186E14C00BF0A9
:1048060015C00CF016C00DF05EEC26F0186E14C044
:104816000BF015C00CF0E4EC29F0186E010E196EC1
:1048260019501200000E176E000E186E1450151057
:10483600D8A420EF24F022EF24F026EF24F0000E77
:10484600196E51EF24F014C001F015C002F0010EEC
:10485600036E5BEC17F014C00BF015C00CF01638A5
:104866000F0B0D6E5EEC26F0186E14C00BF015C023
:104876000CF0E4EC29F0186E14C00BF015C00CF027
:1048860016C00DF05EEC26F0186E14C00BF015C0C5
:104896000CF0E4EC29F0186E010E196E1950120096
:1048A600000E0001A16F9D519E11D8A45DEF24F06A
:1048B6005FEF24F061EF24F08FEF24F0000EA26F7B
:1048C600A2519D25986F000E9E21996FBAEC25F096
:1048D6000001A22B030EA26573EF24F075EF24F0FE
:1048E60063EF24F0000EA36FA3519D259F6F000E6A
:1048F6009E21A06F040E9F25986F000EA021996F30
:104906008EEC26F00001A32B030EA3658DEF24F099
:104916008FEF24F077EF24F012000001A051A111CF
:10492600D8A498EF24F09AEF24F09CEF24F0CCEF73
:1049360024F0A0C08EF0A1C08FF046EC25F0000157
:10494600A26FA0C08EF0A1C08FF080EC25F0000110
:10495600A213A0C08EF0A1C08FF004EC18F00001E5
:10496600A213A0C09DF0A1C09EF037EC2AF0000172
:10497600A213A0C091F0A1C092F019EC1FF00001A3
:10498600A213A0C08EF0A1C08FF019EC23F0000195
:10499600A2131200000E286E000E296E225023105C
:1049A600D8B4D8EF24F0DAEF24F0F3EF24F0265051
:1049B6002710D8B4E1EF24F0E3EF24F0F3EF24F06E
:1049C600050E2460E9EF24F0EBEF24F0F3EF24F07A
:1049D600280E2564F1EF24F0F3EF24F0F5EF24F030
:1049E60009EF25F022C01AF023C01BF024C01CF0EA
:1049F60025C01DF0C9EC20F022C01AF023C01BF020
:104A060026C01CF027C01DF01BEC21F01200000E82
:104A16000001B46F000EB56FAF51B011D8B416EFE8
:104A260025F018EF25F028EF25F0050EB1611EEFF1
:104A360025F020EF25F028EF25F0140EB26526EFBD
:104A460025F028EF25F02CEF25F0000EB66F44EF89
:104A560025F0AFC0A7F0B0C0A8F0B1C0A9F0B2C0B1
:104A6600AAF076EC20F00001B56FAFC0A1F0B0C09F
:104A7600A2F0B3C0A3F091EC22F00001B56F010ED5
:104A8600B66FB651120000018E518F11D8A44EEFA9
:104A960025F050EF25F05FEF25F0000E926F7EEFC8
:104AA60025F0F298010E926F7EEF25F0F09655EF05
:104AB60025F0F09855EF25F020EE04F08E51D9261A
:104AC6008F51DA22DF50906F916B9151000AD8B462
:104AD6006FEF25F050EF25F09051000AD8B454EF4F
:104AE60025F0010AD8B459EF25F0030AD8B45CEFD3
:104AF60025F050EF25F09251120000018E518F11D2
:104B0600D8A488EF25F08AEF25F099EF25F0000E5E
:104B1600926FB8EF25F0F292010E926FB8EF25F082
:104B2600F2928FEF25F0F2928FEF25F020EE04F04F
:104B36008E51D9268F51DA22DF50906F916B9151A9
:104B4600000AD8B4A9EF25F08AEF25F09051000AA3
:104B5600D8B48EEF25F0010AD8B493EF25F0030AF6
:104B6600D8B496EF25F08AEF25F092511200000E88
:104B760000019B6F98519911D8B4C4EF25F0C6EF88
:104B860025F0D7EF25F098C0D9FF99C0DAFFDF30BE
:104B9600E832E832070B9A6F070E9A65D5EF25F0D3
:104BA600D7EF25F0DBEF25F0000E9C6FF1EF25F037
:104BB60098C08EF099C08FF0000E906FAEEC16F094
:104BC60000019B6F98C08EF099C08FF0000E906F19
:104BD60001EC16F000019B6F010E9C6F9C511200B8
:104BE600000E276E000E286E22502310D8B4FEEF5A
:104BF60025F000EF26F010EF26F0050E246006EFF4
:104C060026F008EF26F010EF26F0140E25640EEFBE
:104C160026F010EF26F014EF26F0000E296E2AEF8C
:104C260026F022C01AF023C01BF024C01CF025C0B9
:104C36001DF0C9EC20F0286E22C014F023C015F038
:104C460026C016F015EC24F0286E010E296E2950A8
:104C56001200000E00019F6F000EA06F53EF26F0AA
:104C6600A05198259B6F000E99219C6F020E9B25E3
:104C76008E6F000E9C218F6FA0C09DF09AC09EF093
:104C86009D2B48EF26F0D8909E339D2F46EF26F0B9
:104C960000019E51010B906F01EC16F00001A02B54
:104CA600DC51A05DD8A05AEF26F05CEF26F033EF7A
:104CB60026F09F511200000E126E000E136E82EF48
:104CC60026F013500B240E6E000E0C200F6E020EF3
:104CD6000E24016E000E0F20026E13C010F00DC0E0
:104CE60011F0102A79EF26F0D8901132102E77EFB6
:104CF60026F01150010B036E5BEC17F0132A00012E
:104D0600DC51135CD8A08AEF26F08CEF26F064EF16
:104D160026F012501200000E00019B6F9851991157
:104D2600D8B498EF26F09AEF26F0ABEF26F098C0AD
:104D3600D9FF99C0DAFFDF30E832E832070B9A6F05
:104D4600070E9A65A9EF26F0ABEF26F0AFEF26F037
:104D5600000E9C6FBAEF26F098C08EF099C08FF0C7
:104D6600010E906FAEEC16F0010E00019C6F9C5187
:104D76001200000120EE06F08E51D9268F51DA225C
:104D8600DFB0C8EF26F0CAEF26F0DAEF26F0D596A8
:104D960020EE03F08E51D9268F51DA22DF50906F24
:104DA600D5509019F80B9019D56EE8EF26F020EE45
:104DB60006F08E51D9268F51DA22DFA0E5EF26F0D4
:104DC600E7EF26F0E8EF26F0D5861200000E000188
:104DD6009A6F98519911D8A4F3EF26F0F5EF26F0C3
:104DE600F7EF26F014EF27F098C08EF099C08FF0F9
:104DF600010E906F01EC16F0000120EE01F09851C3
:104E0600D9269951DA2298C0E1FF99C0E2FFE7BEA0
:104E16000FEF27F012EF27F0010E13EF27F0000E29
:104E2600DF6E1200000E00019A6F98519911D8A4F6
:104E36001FEF27F021EF27F023EF27F040EF27F0B1
:104E460098C08EF099C08FF0000E906F01EC16F0AE
:104E5600000120EE01F09851D9269951DA2298C026
:104E6600E1FF99C0E2FFE7BE3BEF27F03EEF27F0F8
:104E7600010E3FEF27F0000EDF6E1200000E00015C
:104E86009F6F9D519E11D8A44BEF27F04DEF27F051
:104E96004FEF27F06CEF27F0F296F2909DC08EF060
:104EA6009EC08FF0B0EC2BF000019F13040E9D25E1
:104EB600986F000E9E21996F8EEC26F000019F13CD
:104EC6009DC08EF09EC08FF02DEC19F000019F134F
:104ED600F2861200000E00019F6F9D519E11D8A40C
:104EE60077EF27F079EF27F07BEF27F096EF27F0A3
:104EF6009DC098F09EC099F0BAEC25F0000120EE16
:104F060001F09D51D9269E51DA229DC0E1FF9EC037
:104F1600E2FFE7BE91EF27F094EF27F0010E95EF41
:104F260027F0000EDF6E1200000E00019F6F9D51EC
:104F36009E11D8A4A1EF27F0A3EF27F0A5EF27F045
:104F4600C0EF27F09DC098F09EC099F0BAEC25F00E
:104F5600000120EE01F09D51D9269E51DA229DC016
:104F6600E1FF9EC0E2FFE7BEBBEF27F0BEEF27F0F2
:104F7600010EBFEF27F0000EDF6E1200000E0D6E61
:104F86000B500C10D8A4CAEF27F0CCEF27F0CEEFC9
:104F960027F0EAEF27F00BC001F00CC002F0000E7C
:104FA600036E5BEC17F020EE01F00B50D9260C5087
:104FB600DA220BC0E1FF0CC0E2FFE7BEE5EF27F007
:104FC600E8EF27F0010EE9EF27F0000EDF6E120082
:104FD600000E0D6E0B500C10D8A4F4EF27F0F6EF70
:104FE60027F0F8EF27F014EF28F00BC001F00CC003
:104FF60002F0010E036E5BEC17F020EE01F00B5091
:10500600D9260C50DA220BC0E1FF0CC0E2FFE7BE46
:105016000FEF28F012EF28F0010E13EF28F0000E24
:10502600DF6E1200000E0D6E0B500C10D8A41EEF92
:1050360028F020EF28F022EF28F03EEF28F00BC0F2
:1050460001F00CC002F0000E036E5BEC17F00D6E63
:10505600010E0B24016E000E0C20026E010E036E73
:105066005BEC17F00D6E20EE02F00B50D9260C50BB
:10507600DA22010EDF6E1200000E0D6E0B500C10C0
:10508600D8A448EF28F04AEF28F04CEF28F068EF54
:1050960028F00BC001F00CC002F0000E036E5BECB2
:1050A60017F00D6E010E0B24016E000E0C20026E21
:1050B600000E036E5BEC17F00D6E20EE02F00B5047
:1050C600D9260C50DA22000EDF6E1200000E0D6E8D
:1050D6000B500C10D8A472EF28F074EF28F076EF7E
:1050E60028F092EF28F00BC001F00CC002F0010E80
:1050F600036E5BEC17F00D6E010E0B24016E000EB5
:105106000C20026E000E036E5BEC17F00D6E20EEA7
:1051160002F00B50D9260C50DA22010EDF6E120077
:10512600000E00019F6F9D519E11D8A49DEF28F09F
:105136009FEF28F0A1EF28F0BBEF28F09DC098F074
:105146009EC099F0BAEC25F000019F6F010E9D25D7
:10515600986F000E9E21996FBAEC25F000019F6FA3
:1051660020EE02F09D51D9269E51DA22000EDF6E06
:1051760012000101EB51EC11D8A4C4EF28F0C6EFE0
:1051860028F0C8EF28F0DEEF28F0AB9E948E948CC2
:10519600EBC1B5F0ECC1B6F03FEC08F0EBC18EF018
:1051A600ECC18FF072EC1FF0EBC18EF0ECC18FF00A
:1051B600BBEC21F0AB8E1200356EF2903550D8A4C0
:1051C600E7EF28F0E9EF28F000EF29F0425043100E
:1051D600D8B4F0EF28F0F2EF28F000EF29F002D86B
:1051E600FEEF28F00500FA6E4250FD6E4350FE6E4B
:1051F600FF6AFA50120000EF29F01200356EF290A5
:105206003550D8A409EF29F00BEF29F022EF29F049
:1052160044504510D8B412EF29F014EF29F022EFCC
:1052260029F002D820EF29F00500FA6E4450FD6EF1
:105236004550FE6EFF6AFA50120022EF29F0120066
:10524600356EF2903550D8A42BEF29F02DEF29F0CA
:1052560044EF29F046504710D8B434EF29F036EF22
:1052660029F044EF29F002D842EF29F00500FA6E42
:105276004650FD6E4750FE6EFF6AFA50120044EF2C
:1052860029F01200356EF2903550D8A44DEF29F072
:105296004FEF29F066EF29F048504910D8B456EF81
:1052A60029F058EF29F066EF29F002D864EF29F0CB
:1052B6000500FA6E4850FD6E4950FE6EFF6AFA50C0
:1052C600120066EF29F01200000EF2BE010E046E07
:1052D6000250030BAA6E01C0A9FF03C0A8FFA69E39
:1052E600A69CA684F29E550EA76EAA0EA76EA6824F
:1052F600A6B280EF29F082EF29F07BEF29F0A69481
:1053060004B002D0F29E01D0F28E1200000120EE0F
:1053160006F08E51D9268F51DA22DFA295EF29F0B9
:1053260097EF29F09AEF29F0D58CA8EF29F020EE17
:1053360006F08E51D9268F51DA22DFB2A5EF29F079
:10534600A7EF29F0A8EF29F0D59C1200000E000166
:105356009A6F010E98258E6F000E99218F6F010EA0
:10536600906F01EC16F0030EE82EFED700F0010E4A
:10537600000198258E6F000E99218F6F000E906F99
:1053860001EC16F0000E1200000190519111D8A404
:10539600CFEF29F0D1EF29F0D3EF29F0E3EF29F091
:1053A6008F51030BAA6E8EC0A9FFA69EA69CA6804F
:1053B60000F000F090C0D9FF91C0DAFFA8CFDFFF60
:1053C6001200000E0D6E010E0B24016E000E0C2055
:1053D600026E010E036E5BEC17F0030EE82EFED78D
:1053E60000F0010E0B24016E000E0C20026E000E62
:1053F600036E5BEC17F0000E120003500410D8A4E5
:1054060007EF2AF009EF2AF00BEF2AF01BEF2AF03C
:105416000250030BAA6E01C0A9FFA69EA69CA680F9
:1054260000F000F003C0D9FF04C0DAFFA8CFDFFF09
:105436001200F2943F50D76E3EC0D6FF4050411046
:10544600D8B428EF2AF02AEF2AF036EF2AF002D84D
:1054560036EF2AF00500FA6E4050FD6E4150FE6EA2
:10546600FF6AFA501200120000019D519E11D8A445
:105476003FEF2AF041EF2AF045EF2AF0000E9F6F2A
:105486004FEF2AF0020E9D25986F000E9E21996F10
:105496008EEC26F000019F6F9F511200F0924A5049
:1054A6004B10D8B459EF2AF05BEF2AF067EF2AF0D9
:1054B60002D867EF2AF00500FA6E4A50FD6E4B508F
:1054C600FE6EFF6AFA5012001200F0904C504D101A
:1054D600D8B470EF2AF072EF2AF07EEF2AF002D8E5
:1054E6007EEF2AF00500FA6E4C50FD6E4D50FE6EB2
:1054F600FF6AFA5012001200F2924E504F10D8B4C2
:1055060087EF2AF089EF2AF095EF2AF002D895EF77
:105516002AF00500FA6E4E50FD6E4F50FE6EFF6A81
:10552600FA50120012000001BD51BE11D8B49EEF10
:105536002AF0A0EF2AF0ACEF2AF002D8ACEF2AF05E
:105546000500FA6EBD51FD6EBE51FE6EFF6AFA5041
:10555600120012000001BB51BC11D8B4B5EF2AF0FD
:10556600B7EF2AF0C3EF2AF002D8C3EF2AF00500FE
:10557600FA6EBB51FD6EBC51FE6EFF6AFA50120008
:10558600120000018E518F11D8A4CCEF2AF0CEEF75
:105596002AF0D2EF2AF0000E906FD8EF2AF08EC0D4
:1055A6004AF08FC04BF0010E906F9051120000012F
:1055B6008E518F11D8A4E2EF2AF0E4EF2AF0E8EF3B
:1055C6002AF0000E906FEEEF2AF08EC04CF08FC0DE
:1055D6004DF0010E906F9051120000018E518F1107
:1055E600D8A4F8EF2AF0FAEF2AF0FEEF2AF0000E20
:1055F600906F04EF2BF08EC04EF08FC04FF0010E6F
:10560600906F9051120036503710D8B40DEF2BF032
:105616000FEF2BF01BEF2BF002D81BEF2BF0050042
:10562600FA6E3650FD6E3750FE6EFF6AFA50120063
:1056360012005406545020EC11F05450D8A426EF12
:105646002BF028EF2BF02EEF2BF0F00E0B6E000E4A
:105656000C6EC1EC27F01200F00E0B6E000E0C6EF5
:10566600EBEC27F0A60E016E010E026E000E046E24
:10567600000E036E42EC2BF00A0E546E120001501F
:105686000210D8A449EF2BF04BEF2BF04DEF2BF087
:1056960051EF2BF00450D76E03C0D6FF12009EAA1E
:1056A60057EF2BF059EF2BF052EF2BF08EC0D9FFAE
:1056B6008FC0DAFFAECFDFFF120004222A020A12E1
:1056C6001A333B000B002B0023001B0013000300C2
:1056D600000E626E000E026E130E016E62C003F0C3
:1056E60067EC29F01200C7A07BEF2BF07EEF2BF0C2
:1056F600010E7FEF2BF0000E1200C7B085EF2BF0E6
:1057060088EF2BF0010E89EF2BF0000E1200C7B4C4
:105716008FEF2BF092EF2BF0010E93EF2BF0000E94
:105726001200C7AA99EF2BF09CEF2BF0010E9DEF0C
:105736002BF0000E1200A1923B50B36E3AC0B2FF9E
:1057460012009E903D50CF6E3CC0CEFF120001016C
:095756000101282A221A2A221A54
:10576000F28EF28C010E12009E925BC0CCFF1200F2
:105770005A50BCEC2BF01200016E01C0C9FF1200A0
:10578000CCEC2BF0596E1200CCEC2BF0586E1200C2
:10579000C68812009E961200C95012009D981200F1
:0657A0009E9C12001200A5
:020000040030CA
:0E000000FF02091EFF8181FF0FC00FE00F40BD
:00000001FF
