:0400000007EF00F016
:0A000800668279ED0CF02DEF18F080
:0510000000256900005D
:101006000001D251800BDB6FD251D225DD6FD1AFFB
:101016000FEF08F011EF08F012EF08F0DD81DD5157
:10102600D8B418EF08F01AEF08F02FEF08F0DD2912
:10103600D8A420EF08F022EF08F02AEF08F0000EFF
:10104600CF6F000ED06F000ED16F000ED26FD18F12
:10105600000ED26F37EF08F0000ECF6F000ED06F84
:10106600000ED16F000ED26FD651800BDC6FDB51B4
:10107600DC19D8B441EF08F043EF08F044EF08F06C
:10108600DB8DD651D625DC6FD5AF4CEF08F04EEF91
:1010960008F04FEF08F0DC81DC51D8B455EF08F0CA
:1010A60057EF08F06CEF08F0DC29D8A45DEF08F0E4
:1010B6005FEF08F067EF08F0000ED36F000ED46FF5
:1010C600000ED56F000ED66FD58F000ED66F74EF5B
:1010D60008F0000ED36F000ED46F000ED56F000E11
:1010E600D66FDD51DC5DD8B07BEF08F07DEF08F000
:1010F600A4EF08F0DBAD82EF08F084EF08F086EF8E
:1011060008F0800EDB1BDDC0DEF0DCC0DDF0DEC0EB
:10111600DCF0CFC0DEF0D3C0CFF0DEC0D3F0D0C05D
:10112600DEF0D4C0D0F0DEC0D4F0D1C0DEF0D5C041
:10113600D1F0DEC0D5F0D2C0DEF0D6C0D2F0DEC02F
:10114600D6F0000EDE6FDD51DCC0D7F0D86BD75F6E
:10115600000ED85BD8BFB9EF08F0D85109E11A0ED6
:10116600D75DD8A0B9EF08F0BBEF08F0F2EF08F0B2
:10117600CF51D011D111D211D8A4C4EF08F0C7EFC6
:1011860008F0010EC8EF08F0000EDE6F000ECF6FFC
:10119600000ED06F000ED16F000ED26FDCC0DDF0F6
:1011A600FBEF08F0DEA1DAEF08F0DCEF08F0E2EF83
:1011B60008F0D890DE310109DE6FE4EF08F0D89030
:1011C600DE33CFA1E9EF08F0EBEF08F0ECEF08F023
:1011D600DE8FD235D233D133D033CF33DD2BDC5152
:1011E600DD5DD8A0F9EF08F0FBEF08F0D5EF08F0C9
:1011F600DBBD00EF09F002EF09F042EF09F0DD5127
:10120600D8A408EF09F00AEF09F014EF09F0000E70
:10121600CF6F000ED06F000ED16F000ED26F63EF4E
:101226000AF0D351CF27D451D023D551D123D6514B
:10123600D223D2A121EF09F023EF09F0CFEF09F075
:10124600DEA128EF09F02AEF09F030EF09F0D89077
:10125600DE310109DE6F32EF09F0D890DE33CFA11F
:1012660037EF09F039EF09F03AEF09F0DE8FD235A2
:10127600D233D133D033CF33DD2BCFEF09F0D35177
:10128600CF5DD451D059D551D159D251800AD76F9B
:10129600D651800AD759D8B053EF09F055EF09F067
:1012A60080EF09F0CF51D35DD76FD051D459D86FA5
:1012B600D151D559D96FD251D659DA6FFF0ED725EC
:1012C600CF6FFF0ED821D06FFF0ED921D16FFF0E41
:1012D600DA21D26F800EDB1BDE6DDE51D8A476EFED
:1012E60009F078EF09F088EF09F0010ECF27000E1C
:1012F600D023D123D22388EF09F0D351CF5FD45125
:10130600D05BD551D15BD651D25BCF51D011D11123
:10131600D211D8A491EF09F093EF09F0C8EF09F0C4
:10132600DE51D8A499EF09F09BEF09F0C8EF09F058
:10133600000ECF6F000ED06F000ED16F000ED26F71
:1013460063EF0AF0D890CF37D037D137D237DEAF38
:10135600AFEF09F0B1EF09F0B2EF09F0CF81DEA1EE
:10136600B7EF09F0B9EF09F0BDEF09F0D880DE3725
:10137600BFEF09F0D890DE37DD51D8B4C5EF09F0DC
:10138600C7EF09F0C8EF09F0DD07D1AFCDEF09F0DF
:10139600CFEF09F0A5EF09F0000EDC6FDEAFD6EF58
:1013A60009F0D8EF09F0F0EF09F0DEC0D7F07F0EB4
:1013B600D717D8B4E1EF09F0E3EF09F0E7EF09F04A
:1013C600010EDC6FF0EF09F0CFA1ECEF09F0EEEFC4
:1013D60009F0F0EF09F0E3EF09F0DC51D8B4F6EFCD
:1013E60009F0F8EF09F023EF0AF0010ECF27000EFF
:1013F600D023D123D223D2A103EF0AF005EF0AF0BE
:1014060023EF0AF0CFC0D7F0D0C0D8F0D1C0D9F0C2
:10141600D2C0DAF0DA35DA33D933D833D733D7C096
:10142600CFF0D8C0D0F0D9C0D1F0DAC0D2F0DD29E3
:10143600D8B420EF0AF022EF0AF023EF0AF0DD2BF2
:10144600DD29D8B429EF0AF02BEF0AF033EF0AF0C2
:10145600DD51D8A431EF0AF033EF0AF045EF0AF078
:10146600000ECF6F000ED06F000ED16F000ED26F40
:10147600DD51D8A441EF0AF043EF0AF045EF0AF038
:10148600000EDB6FDDA14AEF0AF04CEF0AF04FEFDA
:101496000AF0D18F50EF0AF0D19FD890DD31D26F8C
:1014A600DBAF58EF0AF05AEF0AF05BEF0AF0D28F83
:1014B600CFC0CFF0D0C0D0F0D1C0D1F0D2C0D2F0E2
:1014C60012002B50800B346E2B502B243A6E2AAE12
:1014D6006FEF0AF071EF0AF072EF0AF03A803A50B5
:1014E600D8B478EF0AF07AEF0AF08DEF0AF03A28CE
:1014F600D8A480EF0AF082EF0AF08AEF0AF0000E15
:10150600286E000E296E000E2A6E000E2B6E2A8E95
:1015160095EF0AF0000E286E000E296E000E2A6E58
:10152600000E2B6E2F50800B341A2F502F24356E41
:101536002EAEA0EF0AF0A2EF0AF0A3EF0AF0358074
:101546003550D8B4A9EF0AF0ABEF0AF0BEEF0AF0B7
:101556003528D8A4B1EF0AF0B3EF0AF0BBEF0AF0D2
:10156600000E2C6E000E2D6E000E2E6E000E2F6ECF
:101576002E8EC6EF0AF0000E2C6E000E2D6E000E9B
:101586002E6E000E2F6E3550D8B4CCEF0AF0CEEF8B
:101596000AF0D6EF0AF03A50D8A4D4EF0AF0D6EF04
:1015A6000AF0E0EF0AF0000E286E000E296E000E1B
:1015B6002A6E000E2B6E78EF0CF02E502802F3CF19
:1015C6003FF0F4CF40F03F50366E376A386A396ADA
:1015D60040503B6E3C6A3D6A3E6A2D502902F3CF6D
:1015E6003FF0F4CF40F03F503626000E3722382227
:1015F600392240503B26000E3C223D223E222C50F2
:101606002A02F3CF3FF0F4CF40F03F503626000ECB
:1016160037223822392240503B26000E3C223D22FA
:101626003E2238C039F037C038F036C037F0366A57
:101636002C502902F3CF3FF0F4CF40F03F5036262E
:1016460040503722000E3822000E39222D50280233
:10165600F3CF3FF0F4CF40F03F50362640503722CC
:10166600000E3822000E392238C039F037C038F063
:1016760036C037F0366A2C502802F3CF3FF0F4CF4D
:1016860040F03F50362640503722000E3822000EDA
:1016960039222E502902F3CF3FF0F4CF40F03F50CD
:1016A6003B2640503C22000E3D22000E3E222D508D
:1016B6002A02F3CF3FF0F4CF40F03F503B26405094
:1016C6003C22000E3D22000E3E222E502A02F3CF6F
:1016D6003FF0F4CF40F03F50306E4050316E326AEA
:1016E600336A32C033F031C032F030C031F0306A84
:1016F60030503B2631503C2232503D2233503E2260
:1017060036C030F037C031F038C032F039C033F06F
:10171600190E93EF0BF0D890333232323132303229
:10172600E82E8EEF0BF030503B2631503C223250E3
:101736003D2233503E2238C039F037C038F036C02B
:1017460037F0366A35503AC030F0316A3026000E2E
:101756003122820E30243F6EFF0E3120406EC9EFDB
:101766000BF0D8903B363C363D363E3639AEBEEFB2
:101776000BF0C0EF0BF0C1EF0BF03B80D890363684
:101786003736383639363F06D8A040063DAECEEF5E
:101796000BF0D0EF0BF0B4EF0BF0000E356E39AE58
:1017A600D7EF0BF0D9EF0BF0FDEF0BF0FF0E361471
:1017B600306EFF0E3714316EFF0E3814326E7F0E08
:1017C6003914336E3050311032103310D8B4EEEF76
:1017D6000BF0F0EF0BF0F4EF0BF0010E356EFDEFB2
:1017E6000BF03BA0F9EF0BF0FBEF0BF0FDEF0BF06E
:1017F600F0EF0BF03550D8B403EF0CF005EF0CF01A
:1018060029EF0CF0010E3B26000E3C223D223E2223
:101816003EA010EF0CF012EF0CF029EF0CF03BC0DD
:1018260030F03CC031F03DC032F03EC033F03334CE
:10183600333232323132303230C03BF031C03CF0DC
:1018460032C03DF033C03EF03F4A402A40BE34EF3E
:101856000CF0405008E13F28D8A034EF0CF036EFEA
:101866000CF040EF0CF0000E3B6E000E3C6E800E4E
:101876003D6E7F0E3E6E6EEF0CF040BE4DEF0CF0EF
:10188600405006E13F04D8B04BEF0CF04DEF0CF0A2
:1018960059EF0CF0000E3B6E000E3C6E000E3D6ED6
:1018A600000E3E6E000E346E6EEF0CF03FC03AF046
:1018B600FF0E3B16FF0E3C167F0E3D16000E3E1623
:1018C6003AA068EF0CF06AEF0CF06BEF0CF03D8E6F
:1018D600D8903A303E6E34503E123BC028F03CC0A1
:1018E60029F03DC02AF03EC02BF012000600FACFC8
:1018F60014F0FBCF15F0D9CF16F0DACF17F0F3CFEF
:1019060018F0F4CF19F0F2A88BEF0CF08DEF0CF075
:1019160096EF0CF0F2A292EF0CF094EF0CF096EF2B
:101926000CF085EC1CF0F0A69BEF0CF09DEF0CF094
:10193600A6EF0CF0F0A0A2EF0CF0A4EF0CF0A6EFCF
:101946000CF083EC1CF0F0A8ABEF0CF0ADEF0CF054
:10195600B6EF0CF0F0A2B2EF0CF0B4EF0CF0B6EF6D
:101966000CF081EC1CF0F2ACBBEF0CF0BDEF0CF010
:10197600EAEF0CF0A0A6C2EF0CF0C4EF0CF0DAEF21
:101986000CF0A1A6C9EF0CF0CBEF0CF0DAEF0CF0DF
:1019960002D8D8EF0CF00500FA6E00018A51FD6EF0
:1019A6008B51FE6EFF6AFA501200EAEF0CF09DA60C
:1019B600DFEF0CF0E1EF0CF0EAEF0CF09EA6E6EF9D
:1019C6000CF0E8EF0CF0EAEF0CF0CBEF0CF0F2A61F
:1019D600EFEF0CF0F1EF0CF00CEF0DF0F2A0F6EFDC
:1019E6000CF0F8EF0CF00CEF0DF081A8FDEF0CF009
:1019F600FFEF0CF00CEF0DF05D04D8A405EF0DF031
:101A060007EF0DF00CEF0DF0000E5D6E000EEDEC25
:101A16001BF0F2A611EF0DF013EF0DF02EEF0DF007
:101A2600F2A018EF0DF01AEF0DF02EEF0DF081B8C1
:101A36001FEF0DF021EF0DF02EEF0DF05D50D8A445
:101A460027EF0DF029EF0DF02EEF0DF0010E5D6E74
:101A5600010EEDEC1BF0F2A633EF0DF035EF0DF0B5
:101A660050EF0DF0F2A03AEF0DF03CEF0DF050EF15
:101A76000DF081AA41EF0DF043EF0DF050EF0DF0A0
:101A86005C04D8A449EF0DF04BEF0DF050EF0DF0CC
:101A9600000E5C6E000EE0EC1BF0F2A655EF0DF0AA
:101AA60057EF0DF072EF0DF0F2A05CEF0DF05EEF68
:101AB6000DF072EF0DF081BA63EF0DF065EF0DF0EA
:101AC60072EF0DF05C50D8A46BEF0DF06DEF0DF0DA
:101AD60072EF0DF0010E5C6E010EE0EC1BF0F2A64B
:101AE60077EF0DF079EF0DF094EF0DF0F2A07EEFA9
:101AF6000DF080EF0DF094EF0DF081AC85EF0DF059
:101B060087EF0DF094EF0DF05B04D8A48DEF0DF088
:101B16008FEF0DF094EF0DF0000E5B6E000ED3EC20
:101B26001BF0F2A699EF0DF09BEF0DF0B6EF0DF05E
:101B3600F2A0A0EF0DF0A2EF0DF0B6EF0DF081BC14
:101B4600A7EF0DF0A9EF0DF0B6EF0DF05B50D8A49E
:101B5600AFEF0DF0B1EF0DF0B6EF0DF0010E5B6ECD
:101B6600010ED3EC1BF0F2A6BBEF0DF0BDEF0DF0AE
:101B7600D8EF0DF0F2A0C2EF0DF0C4EF0DF0D8EFE4
:101B86000DF081AEC9EF0DF0CBEF0DF0D8EF0DF0F3
:101B96005A04D8A4D1EF0DF0D3EF0DF0D8EF0DF025
:101BA600000E5A6E000EC6EC1BF0F2A6DDEF0DF02D
:101BB600DFEF0DF0FAEF0DF0F2A0E4EF0DF0E6EF37
:101BC6000DF0FAEF0DF081BEEBEF0DF0EDEF0DF03D
:101BD600FAEF0DF05A50D8A4F3EF0DF0F5EF0DF033
:101BE600FAEF0DF0010E5A6E010EC6EC1BF09DAC1D
:101BF600FFEF0DF001EF0EF00AEF0EF09EAC06EFD0
:101C06000EF008EF0EF00AEF0EF08FEC1CF0F2AAC1
:101C16000FEF0EF011EF0EF01AEF0EF0F2A416EF22
:101C26000EF018EF0EF01AEF0EF038EC1CF09DA037
:101C36001FEF0EF021EF0EF02AEF0EF09EA026EF1A
:101C46000EF028EF0EF02AEF0EF031EC1CF09DA2FC
:101C56002FEF0EF031EF0EF03AEF0EF09EA236EFB8
:101C66000EF038EF0EF03AEF0EF071EC1CF0A0A279
:101C76003FEF0EF041EF0EF04AEF0EF0A1A246EF55
:101C86000EF048EF0EF04AEF0EF02AEC1CF09DA87D
:101C96004FEF0EF051EF0EF05AEF0EF09EA856EFF2
:101CA6000EF058EF0EF05AEF0EF08DEC1CF09DAAD8
:101CB6005FEF0EF061EF0EF06AEF0EF09EAA66EF90
:101CC6000EF068EF0EF06AEF0EF092EC1CF019C001
:101CD600F4FF18C0F3FF17C0DAFF16C0D9FF15C00E
:101CE600FBFF14C0FAFF669211004450800B0001FE
:101CF600C66F44504424CD6F43AE84EF0EF086EF9A
:101D06000EF087EF0EF0CD81CD51D8B48DEF0EF0E9
:101D16008FEF0EF0A4EF0EF0CD29D8A495EF0EF0BC
:101D260097EF0EF09FEF0EF0000E416E000E426E22
:101D3600000E436E000E446E438E000E446EACEFF2
:101D46000EF0000E416E000E426E000E436E000E47
:101D5600446E4850800BC61B48504824CE6F47AE91
:101D6600B7EF0EF0B9EF0EF0BAEF0EF0CE81CE510E
:101D7600D8B4C0EF0EF0C2EF0EF0D7EF0EF0CE29BA
:101D8600D8A4C8EF0EF0CAEF0EF0D2EF0EF0000E98
:101D9600456E000E466E000E476E000E486E478E6C
:101DA600000E486EDFEF0EF0000E456E000E466E1A
:101DB600000E476E000E486E4550461047104810FC
:101DC600D8A4E8EF0EF0EAEF0EF002EF0FF0000EE7
:101DD600416E000E426E000E436E000E446E800E83
:101DE60043127F0E4412C651441241C041F042C014
:101DF60042F043C043F044C044F045EF10F0CD51EB
:101E0600D8A408EF0FF00AEF0FF014EF0FF0000E52
:101E1600416E000E426E000E436E000E446E45EF9C
:101E260010F0CE51CDC049F04A6A495E000E4A5ABA
:101E36007F0E4924C76F000E4A20C86F41C0C2F00A
:101E460042C0C3F043C0C4F044C0C5F0000E416EAA
:101E5600000E426E000E436E000E446E000EC96FF9
:101E6600000ECA6F000ECB6F000ECC6F000ECE6F49
:101E760075EF0FF0CE51D8B443EF0FF045EF0FF0EA
:101E86005CEF0FF0D890C237C337C437C537D89048
:101E96004136423643364436CCAF54EF0FF056EF58
:101EA6000FF057EF0FF04180D890C937CA37CB37BC
:101EB600CC374550C25D4650C3594750C459485067
:101EC600C559D8A069EF0FF06BEF0FF074EF0FF064
:101ED600CC8D4550C25F4650C35B4750C45B4850EB
:101EE600C55BCE2B190ECE657BEF0FF07DEF0FF0A5
:101EF6003DEF0FF0C251C311C411C511D8B486EF1E
:101F06000FF088EF0FF0A0EF0FF0C981A0EF0FF0F0
:101F1600D8904136423643364436CCAF95EF0FF073
:101F260097EF0FF098EF0FF04180D890C937CA3776
:101F3600CB37CC37C707D8A0C80743AEA5EF0FF0FD
:101F4600A7EF0FF08BEF0FF0000ECE6FCCAFAEEF1A
:101F56000FF0B0EF0FF0D4EF0FF0FF0EC915496E7A
:101F6600FF0ECA154A6EFF0ECB154B6E7F0ECC15B3
:101F76004C6E49504A104B104C10D8B4C5EF0FF0B8
:101F8600C7EF0FF0CBEF0FF0010ECE6FD4EF0FF0CF
:101F960041A0D0EF0FF0D2EF0FF0D4EF0FF0C7EF64
:101FA6000FF0CE51D8B4DAEF0FF0DCEF0FF000EF00
:101FB60010F0010E4126000E42224322442244A084
:101FC600E7EF0FF0E9EF0FF000EF10F041C049F036
:101FD60042C04AF043C04BF044C04CF04C344C3243
:101FE6004B324A32493249C041F04AC042F04BC0F6
:101FF60043F04CC044F0C74BC82BC8BF0BEF10F0E2
:10200600C85108E1C729D8A00BEF10F00DEF10F06A
:1020160018EF10F0000EC86FC769000E416E000E73
:10202600426E000E436E000E446EC8BF25EF10F0E0
:10203600C85106E1C705D8B023EF10F025EF10F020
:1020460033EF10F0000EC86F000EC76F000E416E22
:10205600000E426E000E436E000E446E000EC66FFA
:10206600C7C0CDF0CDA13AEF10F03CEF10F03FEF36
:1020760010F0438E40EF10F0439ED890CD31446E61
:10208600F6EF0EF01200000E2C6E000E2D6E800E76
:102096002E6E400E2F6E010120EE05F03B51D92623
:1020A6003C51DA22DECF3DF1DDCF3EF13DC11AF0E3
:1020B6003EC11BF01C6A1D6A000E35EC11F01AC0F9
:1020C60028F01BC029F01CC02AF01DC02BF064ECC0
:1020D6000AF028C03FF129C040F12AC041F12BC0C7
:1020E60042F1010120EE08F03B51D9263C51DA229B
:1020F600DF503D6F3D511A6E1B6A1C6A1D6A000E49
:1021060035EC11F01AC02CF01BC02DF01CC02EF0BF
:102116001DC02FF03FC128F040C129F041C12AF06F
:1021260042C12BF064EC0AF028C043F129C044F107
:102136002AC045F12BC046F1000E0001D36F000EF8
:10214600D46F800ED56FBF0ED66F010120EE07F05B
:102156003B51D9263C51DA22DF503D6F3D511A6E74
:102166001B6A1C6A1D6A000E35EC11F01AC02CF0B1
:102176001BC02DF01CC02EF01DC02FF043C128F04F
:1021860044C129F045C12AF046C12BF064EC0AF09F
:1021960028C045F029C046F02AC047F02BC048F0B9
:1021A600000E416E240E426EF40E436E4A0E446ECD
:1021B60078EC0EF041C0CFF042C0D0F043C0D1F071
:1021C60044C0D2F003EC08F0CFC033F1D0C034F1F4
:1021D600D1C035F1D2C036F1F4EC15F0010133511E
:1021E600CB6E3BC1D9FF3CC1DAFFDF50D8A4FEEF6E
:1021F60010F000EF11F015EF11F020EE02F03B5158
:10220600D9263C51DA220C0EDE18D8A40DEF11F0B7
:102216000FEF11F034EF11F0BD50F00B0C09BD6E4D
:1022260034EF11F03BC1D9FF3CC1DAFFDE04D8A47C
:102236001FEF11F021EF11F034EF11F020EE02F054
:102246003B51D9263C51DA220C0EDE18D8A42EEFCB
:1022560011F030EF11F034EF11F0BA50F00B0C0919
:10226600BA6E1200226E2250D8B43CEF11F03EEF47
:1022760011F060EF11F01DBE45EF11F043EF11F0C4
:1022860060EF11F01AC01EF01BC01FF01CC020F03A
:102296001DC021F01E1E1F1E201E211E1E2A000EFE
:1022A6001F22202221221EC024F01FC025F020C09C
:1022B60026F021C027F068EF11F01AC024F01BC0E9
:1022C60025F01CC026F01DC027F01A501B101C104C
:1022D6001D10D8A471EF11F073EF11F07DEF11F01E
:1022E600000E1A6E000E1B6E000E1C6E000E1D6E8A
:1022F6000EEF12F0960E236E87EF11F0232AD89078
:102306002732263225322432000E24141E6E000E89
:1023160025141F6E000E2614206EFE0E2714216E45
:102326001E501F1020102110D8A49CEF11F09EEF14
:1023360011F081EF11F0ACEF11F0232A010E2426E3
:10234600000E252226222722D89027322632253231
:102356002432000E24141E6E000E25141F6E000E6D
:102366002614206EFF0E2714216E1E501F102010FB
:102376002110D8A4C1EF11F0C3EF11F0A0EF11F0B6
:10238600CBEF11F02306D89024362536263627368D
:1023960026BED0EF11F0D2EF11F0DAEF11F0020EF7
:1023A6002360D8EF11F0DAEF11F0C5EF11F023B08A
:1023B600DFEF11F0E1EF11F0E2EF11F0269ED89079
:1023C600233223C01EF01F6A206A216A1EC021F034
:1023D600206A1F6A1E6A1E5024121F5025122050A2
:1023E6002612215027122250D8B4FCEF11F0FEEF2E
:1023F60011F006EF12F01DBE05EF12F003EF12F01A
:1024060006EF12F0278E24C01AF025C01BF026C056
:102416001CF027C01DF01200010E216E1DC0D9FF51
:102426001EC0DAFFDF50D8A41BEF12F01DEF12F02A
:1024360068EF12F041EF12F0BD50F00B0809BD6EC7
:10244600BBEF12F0BD50F00B0909BD6EBBEF12F0E9
:10245600BD50F00B0209BD6EBBEF12F0BD50F00B84
:102466000A09BD6EBBEF12F0BD50F00B0B09BD6E35
:10247600BBEF12F0000E216EBBEF12F020EE02F061
:102486001D50D9261E50DA22DF501F6E206A2050BA
:10249600000AD8B451EF12F03DEF12F01F50020AB5
:1024A600D8B42BEF12F00A0AD8B41FEF12F0010AC3
:1024B600D8B425EF12F0030AD8B431EF12F0010AAE
:1024C600D8B437EF12F03DEF12F01DC0D9FF1EC091
:1024D600DAFFDE04D8A472EF12F074EF12F0BBEF4D
:1024E60012F094EF12F0BA50F00B0809BA6EBBEF77
:1024F60012F0BA50F00B0909BA6EBBEF12F0BA50DF
:10250600F00B0209BA6EBBEF12F0BA50F00B0A09D3
:10251600BA6EBBEF12F0BA50F00B0B09BA6EBBEFF6
:1025260012F020EE02F01D50D9261E50DA22DF509E
:102536001F6E206A2050000AD8B4A4EF12F03DEFB7
:1025460012F01F50020AD8B482EF12F00A0AD8B469
:1025560076EF12F0010AD8B47CEF12F0030AD8B471
:1025660088EF12F0010AD8B48EEF12F03DEF12F0A8
:102576001DC01AF01EC01BF02FEC19F021501200DE
:102586001A501B10D8B4CAEF12F0CCEF12F0E5EFD8
:1025960012F01AC0D9FF1BC0DAFFDF30E832E8328A
:1025A600070B1D6E080E1D60DBEF12F0DDEF12F05B
:1025B600E5EF12F0010E1C64E3EF12F0E5EF12F006
:1025C6004AEF13F0000E236E6AEF13F01AC0D9FF1C
:1025D6001BC0DAFFDF30E832E832070B1D6E010E52
:1025E6001E6E1D2AF9EF12F0D8901E361D2EF7EF3B
:1025F60012F01E50FF0A1F6E1AC0D9FF1BC0DAFF69
:10260600DF50070B206E2050020DE20EF324D96E28
:10261600000EF420DA6EDECF21F0DDCF22F021C0ED
:10262600D9FF22C0DAFF1F50DF165FEF13F01AC082
:10263600D9FF1BC0DAFFDF30E832E832070B1D6E28
:10264600010E1E6E1D2A2AEF13F0D8901E361D2E7F
:1026560028EF13F01AC0D9FF1BC0DAFFDF50070BB3
:102666001F6E1F50020DE20EF324D96E000EF420E9
:10267600DA6EDECF20F0DDCF21F020C0D9FF21C0F9
:10268600DAFF1E50DF125FEF13F05FEF13F01C50FE
:102696001D6E1E6A1E50000AD8B454EF13F048EFA0
:1026A60013F01D50000AD8B4E9EF12F0010AD8B4AD
:1026B6001AEF13F048EF13F01AC0D9FF1BC0DAFF68
:1026C6001CB002D0DF9E01D0DF8E010E236E235098
:1026D60012001A501B10D8B473EF13F075EF13F0F5
:1026E6008EEF13F01AC0D9FF1BC0DAFFDF30E832D5
:1026F600E832070B1D6E080E1D6084EF13F086EF9F
:1027060013F08EEF13F0010E1C648CEF13F08EEFB6
:1027160013F0F3EF13F0000E236E13EF14F01AC04C
:10272600D9FF1BC0DAFFDF30E832E832070B1D6E37
:10273600010E1E6E1D2AA2EF13F0D8901E361D2E16
:10274600A0EF13F01E50FF0A1F6E1AC0D9FF1BC060
:10275600DAFFDF50070B206E2050020DEC0EF3243B
:10276600D96E000EF420DA6EDECF21F0DDCF22F036
:1027760021C0D9FF22C0DAFF1F50DF1608EF14F080
:102786001AC0D9FF1BC0DAFFDF30E832E832070B88
:102796001D6E010E1E6E1D2AD3EF13F0D8901E3645
:1027A6001D2ED1EF13F01AC0D9FF1BC0DAFFDF5080
:1027B600070B1F6E1F50020DEC0EF324D96E000E90
:1027C600F420DA6EDECF20F0DDCF21F020C0D9FF75
:1027D60021C0DAFF1E50DF1208EF14F008EF14F0E4
:1027E6001C501D6E1E6A1E50000AD8B4FDEF13F071
:1027F600F1EF13F01D50000AD8B492EF13F0010A5E
:10280600D8B4C3EF13F0F1EF13F01AC0D9FF1BC011
:10281600DAFF1CB002D0DF9C01D0DF8C010E236EE4
:102826002350120001500210D8B41CEF14F01EEF12
:1028360014F037EF14F001C0D9FF02C0DAFFDF3021
:10284600E832E832070B046E080E04602DEF14F030
:102856002FEF14F037EF14F0010E036435EF14F088
:1028660037EF14F09AEF14F0B8EF14F001C0D9FF67
:1028760002C0DAFFDF30E832E832070B046E010EE1
:10288600056E042A49EF14F0D8900536042E47EF5A
:1028960014F00550FF0A066E01C0D9FF02C0DAFF28
:1028A600DF50070B076E0750020DE20EF324D96EB8
:1028B600000EF420DA6EDECF08F0DDCF09F008C096
:1028C600D9FF09C0DAFF0650DF16AFEF14F001C0DA
:1028D600D9FF02C0DAFFDF30E832E832070B046EB8
:1028E600010E056E042A7AEF14F0D8900536042EF0
:1028F60078EF14F001C0D9FF02C0DAFFDF50070BF2
:10290600066E0650020DE20EF324D96E000EF42078
:10291600DA6EDECF07F0DDCF08F007C0D9FF08C0BA
:10292600DAFF0550DF12AFEF14F0AFEF14F00350EB
:10293600046E056A0550000AD8B4A4EF14F098EFA7
:1029460014F00450000AD8B439EF14F0010AD8B4D0
:102956006AEF14F098EF14F001C0D9FF02C0DAFF55
:1029660003B002D0DF9E01D0DF8E1200010E216E71
:102976001DC0D9FF1EC0DAFFDF50D8A4C5EF14F082
:10298600C7EF14F008EF15F0E5EF14F0BD50F00BAB
:102996000409BD6E51EF15F0BD50F00B0509BD6E73
:1029A60051EF15F0BD50F00B0609BD6E51EF15F055
:1029B600BD50F00B0709BD6E51EF15F0000E216EEC
:1029C60051EF15F020EE02F01D50D9261E50DA22E6
:1029D600DF501F6E206A2050000AD8B4F5EF14F0BD
:1029E600E1EF14F01F50040AD8B4C9EF14F0010A3D
:1029F600D8B4CFEF14F0030AD8B4D5EF14F0010A17
:102A0600D8B4DBEF14F0E1EF14F01DC0D9FF1EC0FF
:102A1600DAFFDE04D8A412EF15F014EF15F051EF2B
:102A260015F02EEF15F0BA50F00B0409BA6E51EFFF
:102A360015F0BA50F00B0509BA6E51EF15F0BA5001
:102A4600F00B0609BA6E51EF15F0BA50F00B0709F4
:102A5600BA6E51EF15F020EE02F01D50D9261E5029
:102A6600DA22DF501F6E206A2050000AD8B43EEFEB
:102A760015F0E1EF14F01F50040AD8B416EF15F064
:102A8600010AD8B41CEF15F0030AD8B422EF15F0EA
:102A9600010AD8B428EF15F0E1EF14F01DC01AF0C2
:102AA6001EC01BF02FEC19F02150120001014751F6
:102AB6004811D8A461EF15F063EF15F065EF15F036
:102AC600F3EF15F047C1D9FF48C1DAFFDF50D8A4AC
:102AD6006FEF15F071EF15F075EF15F0F00EBD16EE
:102AE60083EF15F047C1D9FF48C1DAFFDE04D8A449
:102AF6007FEF15F081EF15F083EF15F0F00EBA16A3
:102B060020EE01F04751D9264851DA22DF50D8A4E9
:102B16008FEF15F091EF15F099EF15F047C11DF005
:102B260048C11EF0B9EC14F0C6EF15F020EE01F026
:102B36004751D9264851DA22DE04D8A4A5EF15F06C
:102B4600A7EF15F0AFEF15F047C11DF048C11EF015
:102B56000FEC12F0C6EF15F020EE01F04751D92622
:102B66004851DA22020EDE18D8A4BCEF15F0BEEFEB
:102B760015F0C6EF15F047C13BF148C13CF146ECF4
:102B860010F0C6EF15F0030E01014725246E000E66
:102B96004821256E67EC19F047C11AF048C11BF0B1
:102BA60007EC1BF047C1D9FF48C1DAFFDF50D8A4B4
:102BB600DFEF15F0E1EF15F0E5EF15F0F00EBD16BD
:102BC600F3EF15F047C1D9FF48C1DAFFDE04D8A4F8
:102BD600EFEF15F0F1EF15F0F3EF15F0F00EBA1672
:102BE60012000101353536350001E06FE051D8A4F9
:102BF600FFEF15F001EF16F00CEF16F0000E0101D5
:102C0600336F000E346F000E356F000E366F82EF95
:102C160016F033C137F134C138F135C139F136C157
:102C26003AF1200E1DEF16F00101D8903A333933F0
:102C360038333733E82E17EF16F037510001DF6FC0
:102C46000101358FFF0E3317FF0E3417FF0E3517B0
:102C5600000E3617960E0001E05FE0BF37EF16F064
:102C660035EF16F04FEF16F0E051800A970FD8B007
:102C76003FEF16F041EF16F043EF16F001EF16F0B6
:102C86000101D89036333533343333330001E03F16
:102C960043EF16F069EF16F01F0EE06555EF16F0DC
:102CA60057EF16F061EF16F001EF16F00101D8901C
:102CB60033373437353736370001E007E051D8A4CB
:102CC60067EF16F069EF16F059EF16F0DF51D8B43A
:102CD6006FEF16F071EF16F07AEF16F00101361F5E
:102CE600351F341F336D000E34233523362333C18D
:102CF60033F134C134F135C135F136C136F1120044
:102D060089EC1CF018EC1CF00009D8B48DEF16F015
:102D16008FEF16F0A1EF16F00EEC1CF00009D8B4F8
:102D260097EF16F099EF16F09DEF16F0010E4E6E26
:102D3600E1EF16F0020E4E6EE1EF16F00EEC1CF00F
:102D46000009D8B4A9EF16F0ABEF16F0AFEF16F006
:102D5600030E4E6EE1EF16F0040E4E6EE1EF16F026
:102D66006CEC1BF0FAEC1BF00009D8B4BDEF16F0C2
:102D7600BFEF16F0FEEF16F03EEC1BF0FEEF16F07E
:102D86006CEC1BF0FEEF16F0FAEC1BF00009D8B461
:102D9600CFEF16F0D1EF16F0FEEF16F0BFEF16F0FC
:102DA60004EC1CF00009D8B4DBEF16F0DDEF16F0EA
:102DB600FEEF16F055EC1BF0FEEF16F04E50126EBD
:102DC600136A1350000AD8B4EBEF16F0FEEF16F0B4
:102DD6001250010AD8B4B3EF16F0030AD8B4C3EF01
:102DE60016F0010AD8B4C7EF16F0070AD8B4D3EF25
:102DF60016F0FEEF16F087EC1CF01200F28EF28C45
:102E0600F7EC18F09DEC19F0060E1A6E370E1B6ED5
:102E16004FEC1CF01D0E4D6413EF17F015EF17F075
:102E260029EF17F0F90E246E000E256E4AEC1AF003
:102E3600F60E246E000E256E20EC1AF0FC0E246EA3
:102E4600000E256ECCEC19F00DEF17F01E0E4D603E
:102E56002FEF17F031EF17F053EF17F0190E4D64FF
:102E660037EF17F039EF17F053EF17F0F90E246E1E
:102E7600000E256E20EC1AF0F60E246E000E256E5E
:102E860020EC1AF0FC0E246E000E256EF6EC19F0FE
:102E9600FE0E246E000E256EF6EC19F00DEF17F0FF
:102EA6001A0E4D6059EF17F05BEF17F06FEF17F042
:102EB600F60E246E000E256E4AEC1AF0F90E246EFC
:102EC600000E256E20EC1AF0FE0E246E000E256E06
:102ED600CCEC19F00DEF17F00DEF17F007EF00F03F
:102EE600000E066E04BE7CEF17F07AEF17F082EF45
:102EF60017F0036C041ED8B0042A010E066E02BE3B
:102F060089EF17F087EF17F08FEF17F0016C021EAD
:102F1600D8B0022A010E061A000E086E000E076EC1
:102F260003500410D8B49AEF17F09CEF17F0C4EFD3
:102F360017F0010E056EA4EF17F0D890033604368D
:102F4600052A04AEA9EF17F0ABEF17F0A0EF17F0C4
:102F5600D890073608360350015C04500258D8A0B2
:102F6600B7EF17F0B9EF17F0BEEF17F00350015E99
:102F76000450025A0780D89004320332052EABEF74
:102F860017F00650D8B4CAEF17F0CCEF17F0D0EF11
:102F960017F0076C081ED8B0082A07C001F008C051
:102FA60002F01200000E066E02BEDEEF17F0DCEF36
:102FB60017F0E4EF17F0016C021ED8B0022A010EDA
:102FC600066E04BEEBEF17F0E9EF17F0EFEF17F020
:102FD600036C041ED8B0042A03500410D8B4F6EFCC
:102FE60017F0F8EF17F01CEF18F0010E056E00EF62
:102FF60018F0D89003360436052A04AE05EF18F00B
:1030060007EF18F0FCEF17F00350015C045002586C
:10301600D8A010EF18F012EF18F016EF18F00350C2
:10302600015E0450025AD89004320332052E07EF8F
:1030360018F00650D8B422EF18F024EF18F028EF55
:1030460018F0016C021ED8B0022A01C001F002C0BD
:1030560002F01200480EF66E360EF76E000EF86E8F
:1030660001EE00F010EE33F00900F5CFEEFFE5506B
:10307600E150FAE1500EF66E370EF76E000EF86E5E
:1030860000EEE2F010EE1EF00900F5CFEEFFE5507F
:10309600E150FAE17E0EF66E380EF76E000EF86E0F
:1030A60000EE5AF010EE0CF00900F5CFEEFFE550F9
:1030B600E150FAE101EE49F00D0EEE6AE806FDE197
:1030C60000EE80F0420EEE6AE806FDE100EE4DF0FD
:1030D6000D0EEE6AE806FDE166906692000101EFCC
:1030E60017F01A501B10D8A47BEF18F07DEF18F0DC
:1030F6007FEF18F0BAEF18F0CA9420EE05F01A50D8
:10310600D9261B50DA22DF501C6ECA501C18FC0B45
:103116001C18CA6E20EE04F01A50D9261B50DA226B
:10312600DF501C6E1C461C461C46CA501C18870BDA
:103136001C18CA6E20EE03F01A50D9261B50DA224C
:10314600DF50CC6E20EE03F01A50D9261B50DA223F
:10315600DF50506E9E92F28EF28C9D821AC0D9FF7D
:103166001BC0DAFFDECF98F0DDCF99F0CA841200DB
:10317600000E0F6E0A500B10D8B4C4EF18F0C6EF4D
:1031860018F0CEEF18F0090E0C64CCEF18F0CEEF65
:1031960018F0D0EF18F0F6EF18F0000E566E070E86
:1031A6005664D8EF18F0DAEF18F0DCEF18F0F6EF07
:1031B60018F056500A24016E000E0B20026E56C0FF
:1031C6000DF00CC00EF00D2AEBEF18F0D8900E3271
:1031D6000D2EE9EF18F00E50010B036E15EC14F0EE
:1031E600562AD2EF18F012007DEC1CF022EC1CF0EF
:1031F60096EC1BF0FE0E296E000E2A6E74EC1AF089
:10320600FC0E296E000E2A6E74EC1AF0F90E296E69
:10321600000E2A6E9CEC1AF0F60E296E000E2A6E2F
:103226009CEC1AF02E0E296E010E2A6EE6EC1AF0B0
:10323600290E296E010E2A6EE6EC1AF01A0E01010D
:10324600476F010E486F59EC15F04F0E1A6E010EBE
:103256001B6E74EC18F0120020EE04F01A50D926FA
:103266001B50DA22DF50D8A43BEF19F03DEF19F0DE
:1032760041EF19F0B196B18C66EF19F020EE04F02B
:103286001A50D9261B50DA22DE04D8A44DEF19F0C5
:103296004FEF19F053EF19F0B186B19C66EF19F0B4
:1032A60020EE04F01A50D9261B50DA22020EDE1840
:1032B600D8A460EF19F062EF19F066EF19F0B19635
:1032C600B19C66EF19F01200000E276E24502510EF
:1032D600D8B470EF19F072EF19F083EF19F024C02B
:1032E600D9FF25C0DAFFDF30E832E832070B266E59
:1032F600070E266481EF19F083EF19F087EF19F0B6
:10330600000E286E9BEF19F024C01AF025C01BF0A2
:10331600000E1C6E6CEC13F0276E24C01AF025C04C
:103326001BF0000E1C6EC3EC12F0276E010E286E09
:1033360028501200B7EC1BF0700E6DEC1CF07F0EDF
:1033460091EC1CF0060E1A6E2D0E1B6E54EC1CF042
:10335600000E1A6E000E1B6E59EC1CF0EA0E1A6E69
:10336600380E1B6E45EC1CF0C60E1A6E380E1B6E20
:103376004FEC1CF0D00E1A6E380E1B6E5EEC1CF075
:10338600000E1A6E000E1B6E4AEC1CF07FEC1CF051
:103396001200000E266E24502510D8A4D5EF19F081
:1033A600D7EF19F0D9EF19F0F5EF19F024C01AF09C
:1033B60025C01BF0010E1C6EC3EC12F020EE01F0CE
:1033C6002450D9262550DA2224C0E1FF25C0E2FF89
:1033D600E7BEF0EF19F0F3EF19F0010EF4EF19F074
:1033E600000EDF6E1200000E266E24502510D8A4A3
:1033F600FFEF19F001EF1AF003EF1AF01FEF1AF0C2
:1034060024C01AF025C01BF0000E1C6EC3EC12F08F
:1034160020EE01F02450D9262550DA2224C0E1FFFF
:1034260025C0E2FFE7BE1AEF1AF01DEF1AF0010EF3
:103436001EEF1AF0000EDF6E1200000E266E2450EC
:103446002510D8A429EF1AF02BEF1AF02DEF1AF059
:1034560049EF1AF024C01AF025C01BF0000E1C6EAE
:10346600C3EC12F0266E010E24241A6E000E2520DF
:103476001B6E000E1C6EC3EC12F0266E20EE02F0E0
:103486002450D9262550DA22000EDF6E1200000ED7
:10349600266E24502510D8A453EF1AF055EF1AF0D3
:1034A60057EF1AF073EF1AF024C01AF025C01BF07C
:1034B600010E1C6EC3EC12F0266E010E24241A6E49
:1034C600000E25201B6E000E1C6EC3EC12F0266E3D
:1034D60020EE02F02450D9262550DA22010EDF6EA6
:1034E6001200000E2B6E29502A10D8A47DEF1AF078
:1034F6007FEF1AF081EF1AF09BEF1AF029C024F043
:103506002AC025F067EC19F020EE01F02950D926E3
:103516002A50DA2229C0E1FF2AC0E2FFE7BE96EF71
:103526001AF099EF1AF0010E9AEF1AF0000EDF6EFC
:103536001200000E2B6E29502A10D8A4A5EF1AF0FF
:10354600A7EF1AF0A9EF1AF0C1EF1AF029C024F07C
:103556002AC025F067EC19F02B6E010E2924246E83
:10356600000E2A20256E67EC19F02B6E20EE02F075
:103576002950D9262A50DA22000EDF6E1200106E6C
:10358600290E0A6E010E0B6E10C001F0026A000EC3
:10359600046E0A0E036ED5EC17F001500C6EBBECF0
:1035A60018F02E0E0A6E010E0B6E10C001F0026AA4
:1035B600000E046E0A0E036E73EC17F001500C6ECB
:1035C600BBEC18F01200000E2B6E29502A10D8A45E
:1035D600EFEF1AF0F1EF1AF0F3EF1AF006EF1BF027
:1035E600000E576E57502924246E000E2A20256E91
:1035F60067EC19F0572A070E576404EF1BF006EF25
:103606001BF0F5EF1AF012009D849E9420EE09F04F
:103616001A50D9261B50DA22DECFBCF0DDCFBDF022
:10362600F28EF28CA080A19020EE0CF01A50D926D2
:103636001B50DA22DECFBAF0DDCFBBF0F28EF28C71
:1036460012003738392F3435362A3132332D2330AC
:103656003D2B800F810F820F830F840F0002001213
:103666000010270101000000000000212931390067
:0536760001091119001B
:10367C00000186518711D8B446EF1BF048EF1BF0C0
:10368C0054EF1BF002D854EF1BF00500FA6E865174
:10369C00FD6E8751FE6EFF6AFA5012001200000197
:1036AC0088518911D8B45DEF1BF05FEF1BF06BEF05
:1036BC001BF002D86BEF1BF00500FA6E8851FD6E03
:1036CC008951FE6EFF6AFA501200120000018451FB
:1036DC008511D8B474EF1BF076EF1BF082EF1BF062
:1036EC0002D882EF1BF00500FA6E8451FD6E8551F5
:1036FC00FE6EFF6AFA5012001200C9CF11F0700E64
:10370C001118D8A48CEF1BF08EEF1BF090EF1BF070
:10371C0095EF1BF0C9CF4DF04D50C2EC1AF01200D2
:10372C00000E8D6E000E8C6E000E896E000E8A6E71
:10373C00000E8B6E070E966E92689368946895686F
:10374C00F18E1200890F8A0F8B0F8C0F8D0F920F39
:10375C00930F940F950F960F131B00030B002B0068
:10376C002300C6BABCEF1BF0BEEF1BF0C5EF1BF07D
:10377C00800EC76E060EC612000EC56EC68A1200EB
:10378C00016EF2900150D8A4CEEF1BF0D0EF1BF0DD
:10379C00D2EF1BF0D2EF1BF01200016EF290015031
:1037AC00D8A4DBEF1BF0DDEF1BF0DFEF1BF0DFEF3E
:1037BC001BF01200016EF2900150D8A4E8EF1BF040
:1037CC00EAEF1BF0ECEF1BF0ECEF1BF01200016EBC
:1037DC00F2900150D8A4F5EF1BF0F7EF1BF0F9EFC6
:1037EC001BF0F9EF1BF01200C7A0FFEF1BF002EF6C
:1037FC001CF0010E03EF1CF0000E1200C7B009EF15
:10380C001CF00CEF1CF0010E0DEF1CF0000E120062
:10381C00C7B413EF1CF016EF1CF0010E17EF1CF0E1
:10382C00000E1200C7AA1DEF1CF020EF1CF0010EB9
:10383C0021EF1CF0000E1200800EC76E060EC61291
:10384C00000EC56EC69A1200A19200019551B36E7E
:10385C0094C0B2FF12009E9000019B51CF6E9AC093
:10386C00CEFF1200F29400019F51D76E9EC0D6FF7E
:10387C00120001010101282A221A2A221A041AC054
:10388C0086F01BC087F012001AC080F01BC081F0BC
:10389C0012001AC088F01BC089F012001AC08AF0FE
:1038AC001BC08BF012001AC082F01BC083F01200F8
:1038BC001AC084F01BC085F012008BEC1CF00001C8
:1038CC00C16F12008BEC1CF00001C06F12001A6E5D
:1038DC001AC0C8FF12009E9250C0CCFF12004F506D
:1038EC0079EC1CF01200016E01C0C9FF1200D09ED1
:1038FC0012009D861200F0921200F0901200F292CB
:10390C001200C68812009E961200C95012009D9893
:0A391C0012009E9C1200120012001F
:020000040030CA
:0E000000FF02091EFF8181FF0FC00FE00F40BD
:00000001FF
