:0400000007EF00F016
:0A000800678279ED0CF0C4EF18F0E8
:0510000000256900005D
:101006000001F751800BFC6FF751F725FE6FF6AF25
:101016000FEF08F011EF08F012EF08F0FE81FE5115
:10102600D8B418EF08F01AEF08F02FEF08F0FE29F1
:10103600D8A420EF08F022EF08F02AEF08F0000EFF
:10104600F46F000EF56F000EF66F000EF76FF68F59
:10105600000EF76F37EF08F0000EF46F000EF56F15
:10106600000EF66F000EF76FFB51800BFD6FFC5103
:10107600FD19D8B441EF08F043EF08F044EF08F04B
:10108600FC8DFB51FB25FD6FFAAF4CEF08F04EEFE0
:1010960008F04FEF08F0FD81FD51D8B455EF08F088
:1010A60057EF08F06CEF08F0FD29D8A45DEF08F0C3
:1010B6005FEF08F067EF08F0000EF86F000EF96FAB
:1010C600000EFA6F000EFB6FFA8F000EFB6F74EFC7
:1010D60008F0000EF86F000EF96F000EFA6F000EA2
:1010E600FB6FFE51FD5DD8B07BEF08F07DEF08F099
:1010F600A4EF08F0FCAD82EF08F084EF08F086EF6D
:1011060008F0800EFC1BFEC0FFF0FDC0FEF0FFC025
:10111600FDF0F4C0FFF0F8C0F4F0FFC0F8F0F5C041
:10112600FFF0F9C0F5F0FFC0F9F0F6C0FFF0FAC025
:10113600F6F0FFC0FAF0F7C0FFF0FBC0F7F0FFC013
:10114600FBF0000EFF6FFE51FDC04CF04D6A4C5E89
:10115600000E4D5A4DBEB9EF08F04D5009E11A0E7A
:101166004C5CD8A0B9EF08F0BBEF08F0F2EF08F03E
:10117600F451F511F611F711D8A4C4EF08F0C7EF32
:1011860008F0010EC8EF08F0000EFF6F000EF46FB6
:10119600000EF56F000EF66F000EF76FFDC0FEF045
:1011A600FBEF08F0FFA1DAEF08F0DCEF08F0E2EF62
:1011B60008F0D890FF310109FF6FE4EF08F0D890EE
:1011C600FF33F4A1E9EF08F0EBEF08F0ECEF08F0DD
:1011D600FF8FF735F733F633F533F433FE2BFD5136
:1011E600FE5DD8A0F9EF08F0FBEF08F0D5EF08F0A8
:1011F600FCBD00EF09F002EF09F042EF09F0FE51E5
:10120600D8A408EF09F00AEF09F014EF09F0000E70
:10121600F46F000EF56F000EF66F000EF76F63EFBA
:101226000AF0F851F427F951F523FA51F623FB5148
:10123600F723F7A121EF09F023EF09F0CFEF09F02B
:10124600FFA128EF09F02AEF09F030EF09F0D89056
:10125600FF310109FF6F32EF09F0D890FF33F4A197
:1012660037EF09F039EF09F03AEF09F0FF8FF7355C
:10127600F733F633F533F433FE2BCFEF09F0F8519D
:10128600F45DF951F559FA51F659F751800A4C6E49
:10129600FB51800A4C58D8B053EF09F055EF09F0CE
:1012A60080EF09F0F451F85D4C6EF551F9594D6E29
:1012B600F651FA594E6EF751FB594F6EFF0E4C24FC
:1012C600F46FFF0E4D20F56FFF0E4E20F66FFF0EEA
:1012D6004F20F76F800EFC1BFF6DFF51D8A476EFF1
:1012E60009F078EF09F088EF09F0010EF427000EF7
:1012F600F523F623F72388EF09F0F851F45FF95147
:10130600F55BFA51F65BFB51F75BF451F511F611FB
:10131600F711D8A491EF09F093EF09F0C8EF09F09F
:10132600FF51D8A499EF09F09BEF09F0C8EF09F037
:10133600000EF46F000EF56F000EF66F000EF76FDD
:1013460063EF0AF0D890F437F537F637F737FFAF83
:10135600AFEF09F0B1EF09F0B2EF09F0F481FFA1A8
:10136600B7EF09F0B9EF09F0BDEF09F0D880FF3704
:10137600BFEF09F0D890FF37FE51D8B4C5EF09F09A
:10138600C7EF09F0C8EF09F0FE07F6AFCDEF09F099
:10139600CFEF09F0A5EF09F0000EFD6FFFAFD6EF16
:1013A60009F0D8EF09F0F0EF09F0FFC04CF07F0E1E
:1013B6004C16D8B4E1EF09F0E3EF09F0E7EF09F0D6
:1013C600010EFD6FF0EF09F0F4A1ECEF09F0EEEF7E
:1013D60009F0F0EF09F0E3EF09F0FD51D8B4F6EFAC
:1013E60009F0F8EF09F023EF0AF0010EF427000EDA
:1013F600F523F623F723F7A103EF0AF005EF0AF02A
:1014060023EF0AF0F4C04CF0F5C04DF0F6C04EF0F4
:10141600F7C04FF04F344F324E324D324C324CC043
:10142600F4F04DC0F5F04EC0F6F04FC0F7F0FE29CF
:10143600D8B420EF0AF022EF0AF023EF0AF0FE2BD1
:10144600FE29D8B429EF0AF02BEF0AF033EF0AF0A1
:10145600FE51D8A431EF0AF033EF0AF045EF0AF057
:10146600000EF46F000EF56F000EF66F000EF76FAC
:10147600FE51D8A441EF0AF043EF0AF045EF0AF017
:10148600000EFC6FFEA14AEF0AF04CEF0AF04FEF98
:101496000AF0F68F50EF0AF0F69FD890FE31F76FFC
:1014A600FCAF58EF0AF05AEF0AF05BEF0AF0F78F3D
:1014B600F4C0F4F0F5C0F5F0F6C0F6F0F7C0F7F0BA
:1014C60012002A50800B336E2A502A24396E29AE18
:1014D6006FEF0AF071EF0AF072EF0AF039803950B7
:1014E600D8B478EF0AF07AEF0AF08DEF0AF03928CF
:1014F600D8A480EF0AF082EF0AF08AEF0AF0000E15
:10150600276E000E286E000E296E000E2A6E298E9A
:1015160095EF0AF0000E276E000E286E000E296E5B
:10152600000E2A6E2E50800B331A2E502E24346E47
:101536002DAEA0EF0AF0A2EF0AF0A3EF0AF0348076
:101546003450D8B4A9EF0AF0ABEF0AF0BEEF0AF0B8
:101556003428D8A4B1EF0AF0B3EF0AF0BBEF0AF0D3
:10156600000E2B6E000E2C6E000E2D6E000E2E6ED3
:101576002D8EC6EF0AF0000E2B6E000E2C6E000E9E
:101586002D6E000E2E6E3450D8B4CCEF0AF0CEEF8E
:101596000AF0D6EF0AF03950D8A4D4EF0AF0D6EF05
:1015A6000AF0E0EF0AF0000E276E000E286E000E1D
:1015B600296E000E2A6E78EF0CF02D502702F3CF1D
:1015C6003EF0F4CF3FF03E50356E366A376A386AE1
:1015D6003F503A6E3B6A3C6A3D6A2C502802F3CF74
:1015E6003EF0F4CF3FF03E503526000E362237222D
:1015F60038223F503A26000E3B223C223D222B50F9
:101606002902F3CF3EF0F4CF3FF03E503526000ED0
:101616003622372238223F503A26000E3B223C2201
:101626003D2237C038F036C037F035C036F0356A5F
:101636002B502802F3CF3EF0F4CF3FF03E50352634
:101646003F503622000E3722000E38222C50270239
:10165600F3CF3EF0F4CF3FF03E5035263F503622D2
:10166600000E3722000E382237C038F036C037F069
:1016760035C036F0356A2B502702F3CF3EF0F4CF53
:101686003FF03E5035263F503622000E3722000EE0
:1016960038222D502802F3CF3EF0F4CF3FF03E50D3
:1016A6003A263F503B22000E3C22000E3D222C5093
:1016B6002902F3CF3EF0F4CF3FF03E503A263F509A
:1016C6003B22000E3C22000E3D222D502902F3CF74
:1016D6003EF0F4CF3FF03E502F6E3F50306E316AF1
:1016E600326A31C032F030C031F02FC030F02F6A8C
:1016F6002F503A2630503B2231503C2232503D2268
:1017060035C02FF036C030F037C031F038C032F077
:10171600190E93EF0BF0D8903232313230322F322D
:10172600E82E8EEF0BF02F503A2630503B223150E8
:101736003C2232503D2237C038F036C037F035C033
:1017460036F0356A345039C02FF0306A2F26000E35
:101756003022820E2F243E6EFF0E30203F6EC9EFE0
:101766000BF0D8903A363B363C363D3638AEBEEFB7
:101776000BF0C0EF0BF0C1EF0BF03A80D890353686
:101786003636373638363E06D8A03F063CAECEEF64
:101796000BF0D0EF0BF0B4EF0BF0000E346E38AE5A
:1017A600D7EF0BF0D9EF0BF0FDEF0BF0FF0E351472
:1017B6002F6EFF0E3614306EFF0E3714316E7F0E0D
:1017C6003814326E2F50301031103210D8B4EEEF7C
:1017D6000BF0F0EF0BF0F4EF0BF0010E346EFDEFB3
:1017E6000BF03AA0F9EF0BF0FBEF0BF0FDEF0BF06F
:1017F600F0EF0BF03450D8B403EF0CF005EF0CF01B
:1018060029EF0CF0010E3A26000E3B223C223D2227
:101816003DA010EF0CF012EF0CF029EF0CF03AC0DF
:101826002FF03BC030F03CC031F03DC032F03234D6
:101836003232313230322F322FC03AF030C03BF0E4
:1018460031C03CF032C03DF03E4A3F2A3FBE34EF45
:101856000CF03F5008E13E28D8A034EF0CF036EFEC
:101866000CF040EF0CF0000E3A6E000E3B6E800E50
:101876003C6E7F0E3D6E6EEF0CF03FBE4DEF0CF0F2
:101886003F5006E13E04D8B04BEF0CF04DEF0CF0A4
:1018960059EF0CF0000E3A6E000E3B6E000E3C6ED9
:1018A600000E3D6E000E336E6EEF0CF03EC039F04A
:1018B600FF0E3A16FF0E3B167F0E3C16000E3D1627
:1018C60039A068EF0CF06AEF0CF06BEF0CF03C8E71
:1018D600D89039303D6E33503D123AC027F03BC0A8
:1018E60028F03CC029F03DC02AF012000600FACFCD
:1018F60013F0FBCF14F0D9CF15F0DACF16F0F3CFF3
:1019060017F0F4CF18F0F2A88BEF0CF08DEF0CF077
:1019160096EF0CF0F2A292EF0CF094EF0CF096EF2B
:101926000CF025EC1DF0F0A69BEF0CF09DEF0CF0F3
:10193600A6EF0CF0F0A0A2EF0CF0A4EF0CF0A6EFCF
:101946000CF023EC1DF0F0A8ABEF0CF0ADEF0CF0B3
:10195600B6EF0CF0F0A2B2EF0CF0B4EF0CF0B6EF6D
:101966000CF021EC1DF0F2ACBBEF0CF0BDEF0CF06F
:10197600EAEF0CF0A0A6C2EF0CF0C4EF0CF0DAEF21
:101986000CF0A1A6C9EF0CF0CBEF0CF0DAEF0CF0DF
:1019960002D8D8EF0CF00500FA6E00018A51FD6EF0
:1019A6008B51FE6EFF6AFA501200EAEF0CF09DA60C
:1019B600DFEF0CF0E1EF0CF0EAEF0CF09EA6E6EF9D
:1019C6000CF0E8EF0CF0EAEF0CF0CBEF0CF0F2A61F
:1019D600EFEF0CF0F1EF0CF00CEF0DF0F2A0F6EFDC
:1019E6000CF0F8EF0CF00CEF0DF081A8FDEF0CF009
:1019F600FFEF0CF00CEF0DF05304D8A405EF0DF03B
:101A060007EF0DF00CEF0DF0000E536E000E94EC88
:101A16001CF0F2A611EF0DF013EF0DF02EEF0DF006
:101A2600F2A018EF0DF01AEF0DF02EEF0DF081B8C1
:101A36001FEF0DF021EF0DF02EEF0DF05350D8A44F
:101A460027EF0DF029EF0DF02EEF0DF0010E536E7E
:101A5600010E94EC1CF0F2A633EF0DF035EF0DF00D
:101A660050EF0DF0F2A03AEF0DF03CEF0DF050EF15
:101A76000DF081AA41EF0DF043EF0DF050EF0DF0A0
:101A86005204D8A449EF0DF04BEF0DF050EF0DF0D6
:101A9600000E526E000E87EC1CF0F2A655EF0DF00C
:101AA60057EF0DF072EF0DF0F2A05CEF0DF05EEF68
:101AB6000DF072EF0DF081BA63EF0DF065EF0DF0EA
:101AC60072EF0DF05250D8A46BEF0DF06DEF0DF0E4
:101AD60072EF0DF0010E526E010E87EC1CF0F2A6AD
:101AE60077EF0DF079EF0DF094EF0DF0F2A07EEFA9
:101AF6000DF080EF0DF094EF0DF081AC85EF0DF059
:101B060087EF0DF094EF0DF05104D8A48DEF0DF092
:101B16008FEF0DF094EF0DF0000E516E000E7AEC83
:101B26001CF0F2A699EF0DF09BEF0DF0B6EF0DF05D
:101B3600F2A0A0EF0DF0A2EF0DF0B6EF0DF081BC14
:101B4600A7EF0DF0A9EF0DF0B6EF0DF05150D8A4A8
:101B5600AFEF0DF0B1EF0DF0B6EF0DF0010E516ED7
:101B6600010E7AEC1CF0F2A6BBEF0DF0BDEF0DF006
:101B7600D8EF0DF0F2A0C2EF0DF0C4EF0DF0D8EFE4
:101B86000DF081AEC9EF0DF0CBEF0DF0D8EF0DF0F3
:101B96005004D8A4D1EF0DF0D3EF0DF0D8EF0DF02F
:101BA600000E506E000E6DEC1CF0F2A6DDEF0DF08F
:101BB600DFEF0DF0FAEF0DF0F2A0E4EF0DF0E6EF37
:101BC6000DF0FAEF0DF081BEEBEF0DF0EDEF0DF03D
:101BD600FAEF0DF05050D8A4F3EF0DF0F5EF0DF03D
:101BE600FAEF0DF0010E506E010E6DEC1CF09DAC7F
:101BF600FFEF0DF001EF0EF00AEF0EF09EAC06EFD0
:101C06000EF008EF0EF00AEF0EF02DEC1DF0F2AA22
:101C16000FEF0EF011EF0EF01AEF0EF0F2A416EF22
:101C26000EF018EF0EF01AEF0EF0D8EC1CF09DA097
:101C36001FEF0EF021EF0EF02AEF0EF09EA026EF1A
:101C46000EF028EF0EF02AEF0EF0D1EC1CF09DA25C
:101C56002FEF0EF031EF0EF03AEF0EF09EA236EFB8
:101C66000EF038EF0EF03AEF0EF011EC1DF018C042
:101C7600F4FF17C0F3FF16C0DAFF15C0D9FF14C072
:101C8600FBFF13C0FAFF679211004350800B00015F
:101C9600EB6F43504324F26F42AE54EF0EF056EF13
:101CA6000EF057EF0EF0F281F251D8B45DEF0EF060
:101CB6005FEF0EF074EF0EF0F229D8A465EF0EF088
:101CC60067EF0EF06FEF0EF0000E406E000E416EE5
:101CD600000E426E000E436E428E000E436E7CEF87
:101CE6000EF0000E406E000E416E000E426E000EAB
:101CF600436E4750800BEB1B47504724F36F46AEAD
:101D060087EF0EF089EF0EF08AEF0EF0F381F351B4
:101D1600D8B490EF0EF092EF0EF0A7EF0EF0F32985
:101D2600D8A498EF0EF09AEF0EF0A2EF0EF0000E88
:101D3600446E000E456E000E466E000E476E468ED1
:101D4600000E476EAFEF0EF0000E446E000E456EAD
:101D5600000E466E000E476E445045104610471062
:101D6600D8A4B8EF0EF0BAEF0EF0D2EF0EF0000ED8
:101D7600406E000E416E000E426E000E436E800EE7
:101D860042127F0E4312EB51431240C040F041C055
:101D960041F042C042F043C043F015EF10F0F2515B
:101DA600D8A4D8EF0EF0DAEF0EF0E4EF0EF0000E46
:101DB600406E000E416E000E426E000E436E15EF31
:101DC60010F0F351F2C048F0496A485E000E495AD5
:101DD6007F0E4824EC6F000E4920ED6F40C0E7F0FF
:101DE60041C0E8F042C0E9F043C0EAF0000E406EA0
:101DF600000E416E000E426E000E436E000EEE6F38
:101E0600000EEF6F000EF06F000EF16F000EF36F15
:101E160045EF0FF0F351D8B413EF0FF015EF0FF0B5
:101E26002CEF0FF0D890E737E837E937EA37D89044
:101E36004036413642364336F1AF24EF0FF026EFF7
:101E46000FF027EF0FF04080D890EE37EF37F037DE
:101E5600F1374450E75D4550E8594650E959475037
:101E6600EA59D8A039EF0FF03BEF0FF044EF0FF02F
:101E7600F18D4450E75F4550E85B4650E95B4750BB
:101E8600EA5BF32B190EF3654BEF0FF04DEF0FF0F6
:101E96000DEF0FF0E751E811E911EA11D8B456EF4A
:101EA6000FF058EF0FF070EF0FF0EE8170EF0FF0BC
:101EB600D8904036413642364336F1AF65EF0FF0E3
:101EC60067EF0FF068EF0FF04080D890EE37EF37EE
:101ED600F037F137EC07D8A0ED0742AE75EF0FF0FB
:101EE60077EF0FF05BEF0FF0000EF36FF1AF7EEFC1
:101EF6000FF080EF0FF0A4EF0FF0FF0EEE15486E17
:101F0600FF0EEF15496EFF0EF0154A6E7F0EF115A6
:101F16004B6E485049104A104B10D8B495EF0FF04D
:101F260097EF0FF09BEF0FF0010EF36FA4EF0FF09A
:101F360040A0A0EF0FF0A2EF0FF0A4EF0FF097EF85
:101F46000FF0F351D8B4AAEF0FF0ACEF0FF0D0EFCB
:101F56000FF0010E4026000E41224222432243A0EA
:101F6600B7EF0FF0B9EF0FF0D0EF0FF040C048F029
:101F760041C049F042C04AF043C04BF04B344B32AB
:101F86004A324932483248C040F049C041F04AC05E
:101F960042F04BC043F0EC4BED2BEDBFDBEF0FF007
:101FA600ED5108E1EC29D8A0DBEF0FF0DDEF0FF0E3
:101FB600E8EF0FF0000EED6FEC69000E406E000EBC
:101FC600416E000E426E000E436EEDBFF5EF0FF050
:101FD600ED5106E1EC05D8B0F3EF0FF0F5EF0FF099
:101FE60003EF10F0000EED6F000EEC6F000E406E6A
:101FF600000E416E000E426E000E436E000EEB6F39
:10200600ECC0F2F0F2A10AEF10F00CEF10F00FEFB7
:1020160010F0428E10EF10F0429ED890F231436ECF
:10202600C6EF0EF01200000E2B6E000E2C6E800E08
:102036002D6E400E2E6E010120EE05F03851D92688
:102046003951DA22DECF3AF1DDCF3BF13AC119F050
:102056003BC11AF01B6A1C6A000E05EC11F019C090
:1020660027F01AC028F01BC029F01CC02AF064EC27
:102076000AF027C03CF128C03DF129C03EF12AC034
:102086003FF1010120EE08F03851D9263951DA2204
:10209600DF503A6F3A51196E1A6A1B6A1C6A000EB3
:1020A60005EC11F019C02BF01AC02CF01BC02DF056
:1020B6001CC02EF03CC127F03DC128F03EC129F0DE
:1020C6003FC12AF064EC0AF027C040F128C041F174
:1020D60029C042F12AC043F1000E0001F86F000E3C
:1020E600F96F800EFA6FBF0EFB6F010120EE07F04D
:1020F6003851D9263951DA22DF503A6F3A51196EE2
:102106001A6A1B6A1C6A000E05EC11F019C02BF046
:102116001AC02CF01BC02DF01CC02EF040C127F0B9
:1021260041C128F042C129F043C12AF064EC0AF00B
:1021360027C044F028C045F029C046F02AC047F021
:10214600000E406E240E416EF40E426E4A0E436E31
:1021560048EC0EF040C0F4F041C0F5F042C0F6F095
:1021660043C0F7F003EC08F0F4C02EF1F5C02FF1F0
:10217600F6C030F1F7C031F108EC17F001012E512D
:10218600CB6E38C1D9FF39C1DAFFDF50D8A4CEEF04
:1021960010F0D0EF10F0E5EF10F020EE02F038511D
:1021A600D9263951DA220C0EDE18D8A4DDEF10F04C
:1021B600DFEF10F004EF11F0BD50F00B0C09BD6E0F
:1021C60004EF11F038C1D9FF39C1DAFFDE04D8A413
:1021D600EFEF10F0F1EF10F004EF11F020EE02F047
:1021E6003851D9263951DA220C0EDE18D8A4FEEF62
:1021F60010F000EF11F004EF11F0BA50F00B0C09DB
:10220600BA6E1200216E2150D8B40CEF11F00EEF09
:1022160011F030EF11F01CBE15EF11F013EF11F0B5
:1022260030EF11F019C01DF01AC01EF01BC01FF0D0
:102236001CC020F01D1E1E1E1F1E201E1D2A000E65
:102246001E221F2220221DC023F01EC024F01FC004
:1022560025F020C026F038EF11F019C023F01AC07F
:1022660024F01BC025F01CC026F019501A101B10B4
:102276001C10D8A441EF11F043EF11F04DEF11F00F
:10228600000E196E000E1A6E000E1B6E000E1C6EEE
:10229600DEEF11F0960E226E57EF11F0222AD8903B
:1022A6002632253224322332000E23141D6E000EF0
:1022B60024141E6E000E25141F6EFE0E2614206EAC
:1022C6001D501E101F102010D8A46CEF11F06EEFD9
:1022D60011F051EF11F07CEF11F0222A010E2326A6
:1022E600000E242225222622D89026322532243298
:1022F6002332000E23141D6E000E24141E6E000ED3
:1023060025141F6EFF0E2614206E1D501E101F1062
:102316002010D8A491EF11F093EF11F070EF11F0A7
:102326009BEF11F02206D890233624362536263622
:1023360025BEA0EF11F0A2EF11F0AAEF11F0020EE8
:102346002260A8EF11F0AAEF11F095EF11F022B07C
:10235600AFEF11F0B1EF11F0B2EF11F0259ED8906A
:10236600223222C01DF01E6A1F6A206A1DC020F09C
:102376001F6A1E6A1D6A1D5023121E5024121F500A
:102386002512205026122150D8B4CCEF11F0CEEFF2
:1023960011F0D6EF11F01CBED5EF11F0D3EF11F00E
:1023A600D6EF11F0268E23C019F024C01AF025C0EE
:1023B6001BF026C01CF01200000E0101426F000E39
:1023C600416F38513911D8A4EBEF11F0EDEF11F050
:1023D600EFEF11F0A7EF12F0000E2B6E000E2C6E31
:1023E600800E2D6E400E2E6E000E0001F86F000E50
:1023F600F96F800EFA6F3F0EFB6FCB50196E1A6A9B
:102406001B6A1C6A000E05EC11F019C0F4F01AC024
:10241600F5F01BC0F6F01CC0F7F003EC08F0F4C0B2
:1024260027F0F5C028F0F6C029F0F7C02AF064ECD2
:102436000AF027C03DF128C03EF129C03FF12AC06D
:1024460040F1000E446E000E456EC80E466E420EFA
:10245600476E01013A51196E1A6A1B6A1C6A000E10
:1024660005EC11F019C040F01AC041F01BC042F053
:102476001CC043F048EC0EF040C02BF041C02CF0DD
:1024860042C02DF043C02EF03DC127F03EC128F0DA
:102496003FC129F040C12AF064EC0AF027C02EF1B2
:1024A60028C02FF129C030F12AC031F108EC17F00D
:1024B6002EC141F12FC142F138C1D9FF39C1DAFF2E
:1024C600DF50D8A469EF12F06BEF12F084EF12F030
:1024D60041C13BF1030E01013B173B3BBD503B198C
:1024E600CF0B3B19BD6E41C13BF142C13CF1D890C7
:1024F6003C333B33D8903C333B333B51BE6EA7EF66
:1025060012F038C1D9FF39C1DAFFDE04D8A48EEF44
:1025160012F090EF12F0A7EF12F041C13BF1030E5B
:1025260001013B173B3BBA503B19CF0B3B19BA6E27
:1025360041C13BF142C13CF1D8903C333B33D8908A
:102546003C333B333B51BB6E1200010E206E1CC068
:10255600D9FF1DC0DAFFDF50D8A4B4EF12F0B6EFF2
:1025660012F001EF13F0DAEF12F0BD50F00B08098C
:10257600BD6E54EF13F0BD50F00B0909BD6E54EF5C
:1025860013F0BD50F00B0209BD6E54EF13F0BD50B1
:10259600F00B0A09BD6E54EF13F0BD50F00B0B099A
:1025A600BD6E54EF13F0000E206E54EF13F020EEC4
:1025B60002F01C50D9261D50DA22DF501E6E1F6A0B
:1025C6001F50000AD8B4EAEF12F0D6EF12F01E50F0
:1025D600020AD8B4C4EF12F00A0AD8B4B8EF12F05F
:1025E600010AD8B4BEEF12F0030AD8B4CAEF12F04B
:1025F600010AD8B4D0EF12F0D6EF12F01CC0D9FF02
:102606001DC0DAFFDE04D8A40BEF13F00DEF13F0B4
:1026160054EF13F02DEF13F0BA50F00B0809BA6E11
:1026260054EF13F0BA50F00B0909BA6E54EF13F0D9
:10263600BA50F00B0209BA6E54EF13F0BA50F00B11
:102646000A09BA6E54EF13F0BA50F00B0B09BA6EC2
:1026560054EF13F020EE02F01C50D9261D50DA225A
:10266600DF501E6E1F6A1F50000AD8B43DEF13F0EC
:10267600D6EF12F01E50020AD8B41BEF13F00A0A66
:10268600D8B40FEF13F0010AD8B415EF13F0030A0C
:10269600D8B421EF13F0010AD8B427EF13F0D6EF20
:1026A60012F01CC019F01DC01AF08EEC19F0205063
:1026B600120019501A10D8B463EF13F065EF13F037
:1026C6007EEF13F019C0D9FF1AC0DAFFDF30E83207
:1026D600E832070B1C6E080E1C6074EF13F076EFE1
:1026E60013F07EEF13F0010E1B647CEF13F07EEF08
:1026F60013F0DBEF13F0000E216EFBEF13F019C0A1
:10270600D9FF1AC0DAFFDF30E832E832070B1C6E59
:10271600010E1D6E1C2A92EF13F0D8901D361C2E4A
:1027260090EF13F01D50FF0A1E6E19C0D9FF1AC094
:10273600DAFFDF50070B020DF350C40FD96EDA6AC9
:10274600DECF1FF0DDCF20F01FC0D9FF20C0DAFF9B
:102756001E50DF16F0EF13F019C0D9FF1AC0DAFFCA
:10276600DF30E832E832070B1C6E010E1D6E1C2AA4
:10277600BFEF13F0D8901D361C2EBDEF13F019C015
:10278600D9FF1AC0DAFFDF50070B020DF350C40F52
:10279600D96EDA6ADECF1EF0DDCF1FF01EC0D9FF7C
:1027A6001FC0DAFF1D50DF12F0EF13F0F0EF13F049
:1027B6001B501C6E1D6A1D50000AD8B4E5EF13F0BD
:1027C600D9EF13F01C50000AD8B482EF13F0010AB7
:1027D600D8B4AFEF13F0D9EF13F019C0D9FF1AC070
:1027E600DAFF1BB002D0DF9E01D0DF8E010E216E14
:1027F6002150120019501A10D8B404EF14F006EF45
:1028060014F01FEF14F019C0D9FF1AC0DAFFDF3039
:10281600E832E832070B1C6E080E1C6015EF14F048
:1028260017EF14F01FEF14F0010E1B641DEF14F0E8
:102836001FEF14F07CEF14F0000E216E9CEF14F0E5
:1028460019C0D9FF1AC0DAFFDF30E832E832070BC9
:102856001C6E010E1D6E1C2A33EF14F0D8901D3627
:102866001C2E31EF14F01D50FF0A1E6E19C0D9FF41
:102876001AC0DAFFDF50070B020DF350CE0FD96EE8
:10288600DA6ADECF1FF0DDCF20F01FC0D9FF20C0EF
:10289600DAFF1E50DF1691EF14F019C0D9FF1AC0E7
:1028A600DAFFDF30E832E832070B1C6E010E1D6ED0
:1028B6001C2A60EF14F0D8901D361C2E5EEF14F023
:1028C60019C0D9FF1AC0DAFFDF50070B020DF3500B
:1028D600CE0FD96EDA6ADECF1EF0DDCF1FF01EC036
:1028E600D9FF1FC0DAFF1D50DF1291EF14F091EFF0
:1028F60014F01B501C6E1D6A1D50000AD8B486EFDA
:1029060014F07AEF14F01C50000AD8B423EF14F038
:10291600010AD8B450EF14F07AEF14F019C0D9FFB9
:102926001AC0DAFF1BB002D0DF9C01D0DF8C010E8B
:10293600216E21501200010E206E1CC0D9FF1DC051
:10294600DAFFDF50D8A4AAEF14F0ACEF14F0EDEFE5
:1029560014F0CAEF14F0BD50F00B0409BD6E36EF4B
:1029660015F0BD50F00B0509BD6E36EF15F0BD50E4
:10297600F00B0609BD6E36EF15F0BD50F00B0709DA
:10298600BD6E36EF15F0000E206E36EF15F020EE18
:1029960002F01C50D9261D50DA22DF501E6E1F6A27
:1029A6001F50000AD8B4DAEF14F0C6EF14F01E5028
:1029B600040AD8B4AEEF14F0010AD8B4B4EF14F098
:1029C600030AD8B4BAEF14F0010AD8B4C0EF14F071
:1029D600C6EF14F01CC0D9FF1DC0DAFFDE04D8A470
:1029E600F7EF14F0F9EF14F036EF15F013EF15F0DA
:1029F600BA50F00B0409BA6E36EF15F0BA50F00B68
:102A06000509BA6E36EF15F0BA50F00B0609BA6E24
:102A160036EF15F0BA50F00B0709BA6E36EF15F01F
:102A260020EE02F01C50D9261D50DA22DF501E6E11
:102A36001F6A1F50000AD8B423EF15F0C6EF14F032
:102A46001E50040AD8B4FBEF14F0010AD8B401EF03
:102A560015F0030AD8B407EF15F0010AD8B40DEF44
:102A660015F0C6EF14F01CC019F01DC01AF08EEC5C
:102A760019F02050120001500210D8B445EF15F09D
:102A860047EF15F060EF15F001C0D9FF02C0DAFF7D
:102A9600DF30E832E832070B046E080E046056EFAA
:102AA60015F058EF15F060EF15F0010E03645EEFB8
:102AB60015F060EF15F0BBEF15F0D9EF15F001C07A
:102AC600D9FF02C0DAFFDF30E832E832070B046EC6
:102AD600010E056E042A72EF15F0D8900536042E05
:102AE60070EF15F00550FF0A066E01C0D9FF02C04F
:102AF600DAFFDF50070B020DF350C40FD96EDA6A06
:102B0600DECF07F0DDCF08F007C0D9FF08C0DAFF37
:102B16000650DF16D0EF15F001C0D9FF02C0DAFF6C
:102B2600DF30E832E832070B046E010E056E042A28
:102B36009FEF15F0D8900536042E9DEF15F001C0D5
:102B4600D9FF02C0DAFFDF50070B020DF350C40FA6
:102B5600D96EDA6ADECF06F0DDCF07F006C0D9FF00
:102B660007C0DAFF0550DF12D0EF15F0D0EF15F0F1
:102B76000350046E056A0550000AD8B4C5EF15F077
:102B8600B9EF15F00450000AD8B462EF15F0010A47
:102B9600D8B48FEF15F0B9EF15F001C0D9FF02C018
:102BA600DAFF03B002D0DF9E01D0DF8E12000101F2
:102BB60044514511D8A4E2EF15F0E4EF15F0E6EF25
:102BC60015F074EF16F044C1D9FF45C1DAFFDF50A6
:102BD600D8A4F0EF15F0F2EF15F0F6EF15F0F00EC1
:102BE600BD1604EF16F044C1D9FF45C1DAFFDE0475
:102BF600D8A400EF16F002EF16F004EF16F0F00E70
:102C0600BA1620EE01F04451D9264551DA22DF509A
:102C1600D8A410EF16F012EF16F01AEF16F044C112
:102C26001CF045C11DF09EEC14F047EF16F020EEA7
:102C360001F04451D9264551DA22DE04D8A426EF04
:102C460016F028EF16F030EF16F044C11CF045C11F
:102C56001DF0A8EC12F047EF16F020EE01F04451FB
:102C6600D9264551DA22020EDE18D8A43DEF16F019
:102C76003FEF16F047EF16F044C138F145C139F180
:102C860016EC10F047EF16F0030E01014425226EF4
:102C9600000E4521236EC6EC19F044C119F045C15A
:102CA6001AF0AEEC1BF044C1D9FF45C1DAFFDF5084
:102CB600D8A460EF16F062EF16F066EF16F0F00E8D
:102CC600BD1674EF16F044C1D9FF45C1DAFFDE0424
:102CD600D8A470EF16F072EF16F074EF16F0F00E3F
:102CE600BA161200F28EF28CFCEC19F02BEC1AF0EC
:102CF6004E0E196E380E1A6EEFEC1CF01D0E5C644B
:102D060087EF16F089EF16F0CCEF16F0E00E226E84
:102D160088EC1AF0DD0E226EB0EC1AF0E30E226E8D
:102D2600D7EC1AF0000E2B6E000E2C6E200E2D6EB8
:102D3600400E2E6E5C50196E1A6A1B6A1C6A010ED2
:102D460005EC11F019C027F01AC028F01BC029F0B5
:102D56001CC02AF064EC0AF027C02EF128C02FF11F
:102D660029C030F12AC031F108EC17F001012E51CB
:102D7600476F1A0E386F010E396F47C13AF1DFEC13
:102D860011F01A0E196E010E1A6E5AEC1AF081EF36
:102D960016F01E0E5C60D2EF16F0D4EF16F0EEEFD2
:102DA60016F0190E5C64DAEF16F0DCEF16F0EEEFB3
:102DB60016F0E00E226EB0EC1AF0DD0E226EB0ECCC
:102DC6001AF0E30E226EFDEC1AF0E50E226EFDEC13
:102DD6001AF081EF16F01A0E5C60F4EF16F0F6EFBB
:102DE60016F004EF17F0DD0E226E88EC1AF0E00EF6
:102DF600226EB0EC1AF0E50E226ED7EC1AF081EFD7
:102E060016F081EF16F007EF00F00101303531358D
:102E1600376F3751D8A412EF17F014EF17F01EEFE3
:102E260017F0000E2E6F000E2F6F000E306F000E83
:102E3600316F8BEF17F02EC132F12FC133F130C154
:102E460034F131C135F1200E2EEF17F0D89035331D
:102E5600343333333233E82E29EF17F03251366FDD
:102E6600308FFF0E2E17FF0E2F17FF0E3017000E96
:102E76003117960E375F37BF45EF17F043EF17F060
:102E86005BEF17F03751800A970FD8B04DEF17F068
:102E96004FEF17F051EF17F014EF17F0D8903133CA
:102EA60030332F332E33373F51EF17F073EF17F0D0
:102EB6001F0E376561EF17F063EF17F06BEF17F032
:102EC60014EF17F0D8902E372F37303731373707B2
:102ED6003751D8A471EF17F073EF17F065EF17F0BD
:102EE6003651D8B479EF17F07BEF17F083EF17F070
:102EF600311F301F2F1F2E6D000E2F23302331233D
:102F06002EC12EF12FC12FF130C130F131C131F177
:102F1600120029EC1DF0BFEC1CF00009D8B496EFA6
:102F260017F098EF17F0AAEF17F0B5EC1CF00009B0
:102F3600D8B4A0EF17F0A2EF17F0A6EF17F0010E26
:102F46005D6EEAEF17F0020E5D6EEAEF17F0B5EC74
:102F56001CF00009D8B4B2EF17F0B4EF17F0B8EFD1
:102F660017F0030E5D6EEAEF17F0040E5D6EEAEFE2
:102F760017F010EC1CF0A1EC1CF00009D8B4C6EF59
:102F860017F0C8EF17F007EF18F0E2EC1BF007EFA9
:102F960018F010EC1CF007EF18F0A1EC1CF000097B
:102FA600D8B4D8EF17F0DAEF17F007EF18F0C8EF3C
:102FB60017F0ABEC1CF00009D8B4E4EF17F0E6EF1D
:102FC60017F007EF18F0F9EC1BF007EF18F05D505B
:102FD600116E126A1250000AD8B4F4EF17F007EF18
:102FE60018F01150010AD8B4BCEF17F0030AD8B490
:102FF600CCEF17F0010AD8B4D0EF17F0070AD8B40F
:10300600DCEF17F007EF18F027EC1DF01200000EAA
:10301600066E04BE13EF18F011EF18F019EF18F052
:10302600036C041ED8B0042A010E066E02BE20EF01
:1030360018F01EEF18F026EF18F0016C021ED8B03B
:10304600022A010E061A000E086E000E076E0350C5
:103056000410D8B431EF18F033EF18F05BEF18F026
:10306600010E056E3BEF18F0D89003360436052A9C
:1030760004AE40EF18F042EF18F037EF18F0D89092
:10308600073608360350015C04500258D8A04EEFAC
:1030960018F050EF18F055EF18F00350015E045089
:1030A600025A0780D89004320332052E42EF18F0F8
:1030B6000650D8B461EF18F063EF18F067EF18F018
:1030C600076C081ED8B0082A07C001F008C002F035
:1030D6001200000E066E02BE75EF18F073EF18F0C0
:1030E6007BEF18F0016C021ED8B0022A010E066EA4
:1030F60004BE82EF18F080EF18F086EF18F0036C2C
:10310600041ED8B0042A03500410D8B48DEF18F06A
:103116008FEF18F0B3EF18F0010E056E97EF18F069
:10312600D89003360436052A04AE9CEF18F09EEFBD
:1031360018F093EF18F00350015C04500258D8A021
:10314600A7EF18F0A9EF18F0ADEF18F00350015EE5
:103156000450025AD89004320332052E9EEF18F01E
:103166000650D8B4B9EF18F0BBEF18F0BFEF18F05F
:10317600016C021ED8B0022A01C001F002C002F0A2
:103186001200960EF66E370EF76E000EF86E01EE12
:1031960000F010EE2EF00900F5CFEEFFE550E150FD
:1031A600FAE1980EF66E380EF76E000EF86E00EE27
:1031B600C4F010EE23F00900F5CFEEFFE550E15024
:1031C600FAE1BE0EF66E390EF76E000EF86E00EEE0
:1031D60050F010EE0CF00900F5CFEEFFE550E1508F
:1031E600FAE101EE48F00D0EEE6AE806FDE100EEAA
:1031F60080F0440EEE6AE806FDE100EE5CF00B0E90
:10320600EE6AE806FDE167906792000175EF16F039
:1032160019501A10D8A412EF19F014EF19F016EF7E
:1032260019F051EF19F0CA9420EE05F01950D9267D
:103236001A50DA22DF501B6ECA501B18FC0B1B18E3
:10324600CA6E20EE04F01950D9261A50DA22DF5041
:103256001B6E1B461B461B46CA501B18870B1B18AA
:10326600CA6E20EE03F01950D9261A50DA22DF5022
:10327600CC6E20EE03F01950D9261A50DA22DF5010
:103286005F6E9E92F28EF28C9D8219C0D9FF1AC093
:10329600DAFFDECF98F0DDCF99F0CA841200000E77
:1032A6000E6E09500A10D8B45BEF19F05DEF19F0F5
:1032B60065EF19F0090E0B6463EF19F065EF19F06D
:1032C60067EF19F08DEF19F0000E636E070E636459
:1032D6006FEF19F071EF19F073EF19F08DEF19F028
:1032E60063500924016E000E0A20026E63C00CF0C2
:1032F6000BC00DF00C2A82EF19F0D8900D320C2E6F
:1033060080EF19F00D50010B036E3EEC15F0632AA9
:1033160069EF19F0120020EE04F01950D9261A5060
:10332600DA22DF50D8A49AEF19F09CEF19F0A0EF3B
:1033360019F0B196B18CC5EF19F020EE04F01950D2
:10334600D9261A50DA22DE04D8A4ACEF19F0AEEF73
:1033560019F0B2EF19F0B186B19CC5EF19F020EE65
:1033660004F01950D9261A50DA22020EDE18D8A413
:10337600BFEF19F0C1EF19F0C5EF19F0B196B19C86
:10338600C5EF19F01200000E256E22502310D8B496
:10339600CFEF19F0D1EF19F0E2EF19F022C0D9FF03
:1033A60023C0DAFFDF30E832E832070B246E070E5F
:1033B6002464E0EF19F0E2EF19F0E6EF19F0000EE1
:1033C600266EFAEF19F022C019F023C01AF0000E8B
:1033D6001B6EFDEC13F0256E22C019F023C01AF007
:1033E600000E1B6E5CEC13F0256E010E266E265049
:1033F60012001DEC1DF0C9EC1CF03AEC1CF0E50EB9
:10340600276E23EC1BF0E30E276E23EC1BF0E00E79
:10341600276E47EC1BF0DD0E276E47EC1BF0D80E2F
:10342600276E286A8DEC1BF0290E276E010E286E7A
:103436008DEC1BF01A0E0101446F010E456FDAEC9C
:1034460015F04E0E196E010E1A6E0BEC19F01200E5
:103456005EEC1CF0700E0DEC1DF07F0E2FEC1DF0D7
:10346600180E196E2F0E1A6EF4EC1CF0000E196E63
:10347600000E1A6EF9EC1CF02A0E196E3A0E1A6E30
:10348600E5EC1CF0060E196E3A0E1A6EEFEC1CF007
:10349600100E196E3A0E1A6EFEEC1CF0000E196E26
:1034A600000E1A6EEAEC1CF01FEC1DF0120019500B
:1034B6001A10D8A461EF1AF063EF1AF065EF1AF04C
:1034C60087EF1AF019C0D9FF1AC0DAFFDF50D8A467
:1034D6006FEF1AF071EF1AF077EF1AF0BD50F00B9C
:1034E6000C09BD6E87EF1AF019C0D9FF1AC0DAFFB2
:1034F600DE04D8A481EF1AF083EF1AF087EF1AF0F2
:10350600BA50F00B0C09BA6E1200000E246E22504F
:10351600D8A490EF1AF092EF1AF094EF1AF0AFEFEA
:103526001AF022C019F01A6A010E1B6E5CEC13F039
:10353600246E22C023F0010E232623C019F01A6A36
:10354600000E1B6E5CEC13F0246E2250D96EDA6A04
:10355600020ED926010EDF6E1200000E246E2250D6
:10356600D8A4B8EF1AF0BAEF1AF0BCEF1AF0D6EFFB
:103576001AF022C019F01A6A000E1B6E5CEC13F0EA
:10358600246E22C023F0010E232623C019F01A6AE6
:10359600000E1B6E5CEC13F0246E2250D96EDA6AB4
:1035A600020ED926DF6A1200000E236E2250D8A41E
:1035B600DFEF1AF0E1EF1AF0E3EF1AF0FCEF1AF082
:1035C60022C019F01A6A010E1B6E5CEC13F0225031
:1035D600D96EDA6A010ED9262250E16EE26AE7BE9A
:1035E600F7EF1AF0FAEF1AF0010EFBEF1AF0000EE1
:1035F600DF6E1200000E236E2250D8A405EF1BF0DA
:1036060007EF1BF009EF1BF022EF1BF022C019F0A9
:103616001A6A000E1B6E5CEC13F02250D96EDA6A41
:10362600010ED9262250E16EE26AE7BE1DEF1BF0BD
:1036360020EF1BF0010E21EF1BF0000EDF6E1200D3
:10364600000E286E2750D8A42BEF1BF02DEF1BF091
:103656002FEF1BF046EF1BF027C022F0236AC6ECC3
:1036660019F02750D96EDA6A010ED9262750E16E75
:10367600E26AE7BE41EF1BF044EF1BF0010E45EF97
:103686001BF0000EDF6E1200000E296E2750D8A424
:103696004FEF1BF051EF1BF053EF1BF069EF1BF0E0
:1036A60027C022F0236AC6EC19F0296E27C028F03D
:1036B600010E282628C022F0236AC6EC19F0296ECE
:1036C6002750D96EDA6A020ED926DF6A12000F6E0B
:1036D600290E096E010E0A6E0FC001F0026A000E75
:1036E600046E0A0E036E6CEC18F001500B6E52EC71
:1036F60019F0D80E096E0A6A0FC001F0026A000EB0
:10370600046E0A0E036E0AEC18F001500B6E52ECB2
:1037160019F01200000E296E27502810D8A496EF33
:103726001BF098EF1BF09AEF1BF0ADEF1BF0000EAD
:10373600646E64502724226E000E2820236EC6EC89
:1037460019F0642A070E6464ABEF1BF0ADEF1BF0B3
:103756009CEF1BF012009D849E9420EE09F01950F8
:10376600D9261A50DA22DECFBCF0DDCFBDF0F28EBC
:10377600F28CA080A19020EE0CF01950D9261A5098
:10378600DA22DECFBAF0DDCFBBF0F28EF28C120079
:103796003738392F3435362A3132332D23303D2B05
:1037A600800F810F820F830F840F0002001200101A
:1037B6002701010000000000002129313900000125
:1037C60086518711D8B4EAEF1BF0ECEF1BF0F8EF47
:1037D6001BF002D8F8EF1BF00500FA6E8651FD6E5D
:1037E6008751FE6EFF6AFA501200120000018851DE
:1037F6008911D8B401EF1CF003EF1CF00FEF1CF099
:1038060002D80FEF1CF00500FA6E8851FD6E895143
:10381600FE6EFF6AFA5012001200000184518511F3
:10382600D8B418EF1CF01AEF1CF026EF1CF002D8E3
:1038360026EF1CF00500FA6E8451FD6E8551FE6E72
:10384600FF6AFA5012001200C9CF10F0700E10185D
:10385600D8A430EF1CF032EF1CF034EF1CF039EF37
:103866001CF0C9CF5CF05C506AEC1BF01200000E35
:103876008D6E000E8C6E000E896E000E8A6E000E26
:103886008B6E070E966E9268936894689568F18EB3
:103896001200890F8A0F8B0F8C0F8D0F920F930FCB
:1038A600940F950F960F0109111900131B00030BB6
:0538B600002B002300BF
:1038BC00C6BA63EF1CF065EF1CF06CEF1CF0800EC9
:1038CC00C76E060EC612000EC56EC68A1200016EB9
:1038DC00F2900150D8A475EF1CF077EF1CF079EF43
:1038EC001CF079EF1CF01200016EF2900150D8A47C
:1038FC0082EF1CF084EF1CF086EF1CF086EF1CF0BE
:10390C001200016EF2900150D8A48FEF1CF091EFD1
:10391C001CF093EF1CF093EF1CF01200016EF29070
:10392C000150D8A49CEF1CF09EEF1CF0A0EF1CF0F3
:10393C00A0EF1CF01200C7A0A6EF1CF0A9EF1CF022
:10394C00010EAAEF1CF0000E1200C7B0B0EF1CF075
:10395C00B3EF1CF0010EB4EF1CF0000E1200C7B454
:10396C00BAEF1CF0BDEF1CF0010EBEEF1CF0000E08
:10397C001200C7AAC4EF1CF0C7EF1CF0010EC8EF71
:10398C001CF0000E1200800EC76E060EC612000E42
:10399C00C56EC69A12009E9000019B51CF6E9AC0C4
:1039AC00CEFF1200F29400019F51D76E9EC0D6FF3D
:1039BC00120001010101282A221A2A221A0419C014
:1039CC0086F01AC087F0120019C080F01AC081F07E
:1039DC00120019C088F01AC089F0120019C08AF0C0
:1039EC001AC08BF0120019C082F01AC083F01200BA
:1039FC0019C084F01AC085F012002BEC1DF00001E8
:103A0C00C16F12002BEC1DF00001C06F1200196E7B
:103A1C0019C0C8FF12009E925FC0CCFF12005E500E
:103A2C0019EC1DF01200016E01C0C9FF1200D09EEE
:103A3C0012009D861200F0921200F0901200F29289
:103A4C001200C68812009E961200C95012009E9C4D
:043A5C001200120042
:020000040030CA
:0E000000FF02091EFF8181FF0FC00FE00F40BD
:00000001FF
