:0400000007EF00F016
:0A000800598229ED12F08CEF25F06B
:1010000000CE61A8604261203FC443B861904A8C21
:10101000627A6268625662446232622062A2614011
:1010200051414C4C41524D204D4F444500434C4F93
:10103000434B204D4F4445006D696E757465733A9E
:10104000006D6F6E74683A00686F7572733A005481
:10105000494D453A00444154453A00796561723A38
:10106000006461793A00256900008AEC2AF0000EDC
:10107000306E9A0E4CEC26F00001FA6F000E886F6D
:10108000FAC089F0700E49EC29F0020E0101B86F28
:10109000040EB76FBA0EE82EFED7B72FFCD7B82FC5
:1010A000FAD700F07C0E0001806F010E816F000EF8
:1010B000826F81EC2DF03B50D8A461EF08F063EF14
:1010C00008F087EF09F022EC2AF020EE41F0050E3F
:1010D000EBCFDBFFE806FCE2500E0001896F000E4B
:1010E0008A6F010E8B6F04EC25F0500E0001976F94
:1010F000000E986F010E996F010E9A6F4F0E9B6F45
:10110000100E9C6F0EEC26F0480E276E000E286E17
:101110004150C6EC17F0500E0101B06F000EB16FD8
:10112000010EB26F070EB36F48C0B4F125EC2CF07E
:10113000500E0001976F000E986F010E996F090E07
:101140009A6F3A0E9B6F7FEC27F0490E276E000EC8
:10115000286E4250C6EC17F0500E0101B06F000E21
:10116000B16F010EB26F0A0EB36F49C0B4F125EC36
:101170002CF0500E0001976F000E986F010E996FC2
:101180000C0E9A6F3A0E9B6F7FEC27F0FC0E276EC9
:10119000000E286E4350C6EC17F0500E0101B06FE0
:1011A000000EB16F010EB26F0D0EB36FFCC0B4F143
:1011B00025EC2CF0500E0001976F000E986F020E78
:1011C000996F010E9A6F550E9B6F100E9C6F0EEC6F
:1011D00026F0580E276E000E286E4650C6EC17F00B
:1011E000500E0101B06F000EB16F020EB26F070E0C
:1011F000B36F58C0B4F125EC2CF0500E0001976F7E
:10120000000E986F020E996F090E9A6F2F0E9B6F4A
:101210007FEC27F0570E276E000E286E4550C6EC67
:1012200017F0500E0101B06F000EB16F020EB26FD9
:101230000A0EB36F45C0B4F125EC2CF0500E00013E
:10124000976F000E986F020E996F0C0E9A6F2F0E0B
:101250009B6F7FEC27F0560E276E000E286E4450D1
:10126000C6EC17F0500E0101B06F000EB16F020E08
:10127000B26F0D0EB36F56C0B4F125EC2CF0060E14
:101280000101B86F130EB76FAD0EE82EFED7B72F62
:10129000FCD7B82FFAD700D0495001010119D8A4C2
:1012A00054EF09F056EF09F087EF09F048500019A4
:1012B000D8A45DEF09F05FEF09F087EF09F0FE0EAB
:1012C0000001806F000E816F4FEC2BF0060E0101C4
:1012D000B86F130EB76FAD0EE82EFED7B72FFCD741
:1012E000B82FFAD700D0FE0E0001806F000E816F7C
:1012F0007BEC2BF0060E0101B86F130EB76FAD0E2D
:10130000E82EFED7B72FFCD7B82FFAD700D00001B0
:10131000FB51D8A48EEF09F090EF09F0D4EF0AF05A
:101320003B04D8A496EF09F098EF09F0DAEF09F042
:10133000500E896F000E8A6F010E8B6F04EC25F042
:10134000500E0001976F000E986F010E996F010EFD
:101350009A6F2D0E9B6F100E9C6F0EEC26F0500EA8
:101360000001976F000E986F020E996F010E9A6F31
:10137000380E9B6F100E9C6F0EEC26F0500E010184
:10138000B06F000EB16F020EB26F0A0EB36F49C09C
:10139000B4F125EC2CF0060E0101B86F130EB76FF7
:1013A000AD0EE82EFED7B72FFCD7B82FFAD700D056
:1013B00037EF08F0020E3B18D8A4E1EF09F0E3EF95
:1013C00009F018EF0AF0500E896F000E8A6F010EB7
:1013D0008B6F04EC25F0500E0001976F000E986F94
:1013E000010E996F010E9A6F2D0E9B6F100E9C6F60
:1013F0000EEC26F0500E0001976F000E986F020E53
:10140000996F010E9A6F480E9B6F100E9C6F0EEC39
:1014100026F0500E0101B06F000EB16F020EB26FD8
:10142000080EB36F48C0B4F125EC2CF0CBEF09F0F7
:10143000030E3B18D8A41FEF0AF021EF0AF056EF75
:101440000AF0500E896F000E8A6F010E8B6F04EC4C
:1014500025F0500E0001976F000E986F010E996FE6
:10146000010E9A6F2D0E9B6F100E9C6F0EEC26F0E6
:10147000500E0001976F000E986F020E996F010ECB
:101480009A6F610E9B6F100E9C6F0EEC26F0500E43
:101490000101B06F000EB16F020EB26F060EB36F96
:1014A00058C0B4F125EC2CF0CBEF09F0040E3B183A
:1014B000D8A45DEF0AF05FEF0AF094EF0AF0500E47
:1014C000896F000E8A6F010E8B6F04EC25F0500EB1
:1014D0000001976F000E986F010E996F010E9A6FC1
:1014E0002D0E9B6F100E9C6F0EEC26F0500E00011F
:1014F000976F000E986F020E996F010E9A6F410E52
:101500009B6F100E9C6F0EEC26F0500E0101B06F19
:10151000000EB16F020EB26F080EB36F57C0B4F178
:1015200025EC2CF0CBEF09F0050E3B18D8A49BEF6F
:101530000AF09DEF0AF0D2EF0AF0500E896F000E0C
:101540008A6F010E8B6F04EC25F0500E0001976F2F
:10155000000E986F010E996F010E9A6F2D0E9B6F02
:10156000100E9C6F0EEC26F0500E0001976F000ECF
:10157000986F020E996F010E9A6F5B0E9B6F100EA3
:101580009C6F0EEC26F0500E0101B06F000EB16F93
:10159000020EB26F070EB36F56C0B4F125EC2CF0FB
:1015A000CBEF09F037EF08F0FB05D8A4DAEF0AF02B
:1015B000DCEF0AF037EF08F03B04D8A4E2EF0AF0C2
:1015C000E4EF0AF00CEF0BF0500E896F000E8A6FFB
:1015D000010E8B6F04EC25F0500E0001976F000E8A
:1015E000986F010E996F010E9A6F210E9B6F100E6E
:1015F0009C6F0EEC26F0500E0001976F000E986F56
:10160000020E996F010E9A6F380E9B6F100E9C6F31
:101610000EEC26F0BEEF09F0020E3B18D8A413EF33
:101620000BF015EF0BF03DEF0BF0500E896F000E35
:101630008A6F010E8B6F04EC25F0500E0001976F3E
:10164000000E986F010E996F010E9A6F210E9B6F1D
:10165000100E9C6F0EEC26F0500E0001976F000EDE
:10166000986F020E996F010E9A6F480E9B6F100EC5
:101670009C6F0EEC26F009EF0AF0030E3B18D8A47D
:1016800044EF0BF046EF0BF0D2EF0AF0500E896FEB
:10169000000E8A6F010E8B6F04EC25F0500E0001D6
:1016A000976F000E986F010E996F010E9A6F210EC1
:1016B0009B6F100E9C6F0EEC26F0500E0001976F82
:1016C000000E986F020E996F010E9A6F610E9B6F5C
:1016D000100E9C6F0EEC26F047EF0AF007EF00F0BB
:1016E000000E0001B36F000EB46F000EB56F000E58
:1016F000B66FB3EF0DF0AC98AC94B896AFC0D9FF0D
:10170000B0C0DAFFDECFB1F0DDCFB2F0B1C027F06C
:10171000B2C028F0296A2A6A000E20EC16F027C011
:101720008AF028C08BF029C08CF02AC08DF0000E02
:101730000001866F240E876FF40E886F4A0E896F42
:101740005BEC10F086C0B7F087C0B8F088C0B9F085
:1017500089C0BAF0000E00018A6F000E8B6F800EF8
:101760008C6F420E8D6FB7C086F0B8C087F0B9C0DD
:1017700088F0BAC089F05BEC10F086C09FF087C09B
:10178000A0F088C0A1F089C0A2F0000E0001A36FF4
:10179000000EA46F800EA56FBF0EA66FFAEC0DF0C1
:1017A0009FC0B3F0A0C0B4F0A1C0B5F0A2C0B6F025
:1017B000DEEF0DF0AC98AC84B896AFC0D9FFB0C0E6
:1017C000DAFFDECFB1F0DDCFB2F0B1C027F0B2C0AA
:1017D00028F0296A2A6A000E20EC16F027C08AF049
:1017E00028C08BF029C08CF02AC08DF0000E0001BB
:1017F000866F240E876FF40E886F4A0E896F5BEC3C
:1018000010F086C0B7F087C0B8F088C0B9F089C0C2
:10181000BAF0000E00018A6F000E8B6F800E8C6F85
:10182000410E8D6FB7C086F0B8C087F0B9C088F0A0
:10183000BAC089F05BEC10F086C09FF087C0A0F0C2
:1018400088C0A1F089C0A2F0000E0001A36F000EB5
:10185000A46F800EA56FBF0EA66FFAEC0DF09FC0AF
:10186000B3F0A0C0B4F0A1C0B5F0A2C0B6F0DEEFF6
:101870000DF0AC98AC94B886AFC0D9FFB0C0DAFF19
:10188000DECFB1F0DDCFB2F0B1C027F0B2C028F0AA
:10189000296A2A6A000E20EC16F027C08AF028C0B8
:1018A0008BF029C08CF02AC08DF0000E0001866FED
:1018B000240E876FF40E886F4A0E896F5BEC10F070
:1018C00086C0B7F087C0B8F088C0B9F089C0BAF058
:1018D000000E00018A6F000E8B6F800E8C6F410E20
:1018E0008D6FB7C086F0B8C087F0B9C088F0BAC0B5
:1018F00089F05BEC10F086C09FF087C0A0F088C034
:10190000A1F089C0A2F0000E0001A36F000EA46F29
:10191000800EA56FBF0EA66FFAEC0DF09FC0B3F05E
:10192000A0C0B4F0A1C0B5F0A2C0B6F0DEEF0DF0DB
:10193000AC98AC84B886AFC0D9FFB0C0DAFFDECFB8
:10194000B1F0DDCFB2F0B1C027F0B2C028F0296A03
:101950002A6A000E20EC16F027C08AF028C08BF00F
:1019600029C08CF02AC08DF0000E0001866F240E75
:10197000876FF40E886F4A0E896F5BEC10F086C09B
:10198000B7F087C0B8F088C0B9F089C0BAF0000ECF
:1019900000018A6F000E8B6F800E8C6F400E8D6F72
:1019A000B7C086F0B8C087F0B9C088F0BAC089F077
:1019B0005BEC10F086C09FF087C0A0F088C0A1F05B
:1019C00089C0A2F0000E0001A36F000EA46F800E6C
:1019D000A56FBF0EA66FFAEC0DF09FC0B3F0A0C0CC
:1019E000B4F0A1C0B5F0A2C0B6F0DEEF0DF0AC8847
:1019F000B896AFC0D9FFB0C0DAFFDECFB1F0DDCF0F
:101A0000B2F0B1C027F0B2C028F0296A2A6A000EED
:101A100020EC16F027C08AF028C08BF029C08CF08B
:101A20002AC08DF0000E0001866F240E876FF40E21
:101A3000886F4A0E896F5BEC10F086C0B7F087C0E4
:101A4000B8F088C0B9F089C0BAF0000E00018A6F02
:101A5000000E8B6F800E8C6F400E8D6FB7C086F0BE
:101A6000B8C087F0B9C088F0BAC089F05BEC10F05C
:101A700086C09FF087C0A0F088C0A1F089C0A2F006
:101A8000000E0001A36F000EA46F800EA56FBF0EA5
:101A9000A66FFAEC0DF09FC0B3F0A0C0B4F0A1C0E7
:101AA000B5F0A2C0B6F0DEEF0DF0AC88B886AFC0DE
:101AB000D9FFB0C0DAFFDECFB1F0DDCFB2F0B1C0F8
:101AC00027F0B2C028F0296A2A6A000E20EC16F02E
:101AD00027C08AF028C08BF029C08CF02AC08DF076
:101AE000000E0001866F240E876FF40E886F4A0E79
:101AF000896F5BEC10F086C0B7F087C0B8F088C083
:101B0000B9F089C0BAF0000E00018A6F000E8B6F29
:101B1000800E8C6F400E8D6FB7C086F0B8C087F016
:101B2000B9C088F0BAC089F05BEC10F086C09FF0B5
:101B300087C0A0F088C0A1F089C0A2F0000E00010B
:101B4000A36F000EA46F800EA56FBF0EA66FFAECF8
:101B50000DF09FC0B3F0A0C0B4F0A1C0B5F0A2C01A
:101B6000B6F0DEEF0DF020EE02F0AF51D926B05105
:101B7000DA22DF50B16FB26BB251000AD8B4C3EFB2
:101B80000DF0DEEF0DF0B151000AD8B47BEF0BF091
:101B9000010AD8B4DAEF0BF0030AD8B439EF0CF02D
:101BA000010AD8B498EF0CF0070AD8B4F7EF0CF09C
:101BB000010AD8B455EF0DF0DEEF0DF0B3C027F0F9
:101BC000B4C028F0B5C029F0B6C02AF059EC1DF019
:101BD0002750AF6EB3C027F0B4C028F0B5C029F0CD
:101BE000B6C02AF059EC1DF028C027F0286A27500B
:101BF000B06E12000001A251800BAB6FA251A22562
:101C0000AD6FA1AF06EF0EF008EF0EF009EF0EF08A
:101C1000AD81AD51D8B40FEF0EF011EF0EF026EFFD
:101C20000EF0AD29D8A417EF0EF019EF0EF021EF4A
:101C30000EF0000E9F6F000EA06F000EA16F000E41
:101C4000A26FA18F000EA26F2EEF0EF0000E9F6FFD
:101C5000000EA06F000EA16F000EA26FA651800BA8
:101C6000AC6FAB51AC19D8B438EF0EF03AEF0EF0C0
:101C70003BEF0EF0AB8DA651A625AC6FA5AF43EFA1
:101C80000EF045EF0EF046EF0EF0AC81AC51D8B43B
:101C90004CEF0EF04EEF0EF063EF0EF0AC29D8A42F
:101CA00054EF0EF056EF0EF05EEF0EF0000EA36F45
:101CB000000EA46F000EA56F000EA66FA58F000E7C
:101CC000A66F6BEF0EF0000EA36F000EA46F000E58
:101CD000A56F000EA66FAD51AC5DD8B072EF0EF0DF
:101CE00074EF0EF09BEF0EF0ABAD79EF0EF07BEFE3
:101CF0000EF07DEF0EF0800EAB1BADC0AEF0ACC0B1
:101D0000ADF0AEC0ACF09FC0AEF0A3C09FF0AEC0CF
:101D1000A3F0A0C0AEF0A4C0A0F0AEC0A4F0A1C0DB
:101D2000AEF0A5C0A1F0AEC0A5F0A2C0AEF0A6C0B6
:101D3000A2F0AEC0A6F0000EAE6FAD51ACC0A7F0E1
:101D4000A86BA75F000EA85BA8BFB0EF0EF0A8516C
:101D500009E11A0EA75DD8A0B0EF0EF0B2EF0EF0B9
:101D6000E9EF0EF09F51A011A111A211D8A4BBEF71
:101D70000EF0BEEF0EF0010EBFEF0EF0000EAE6FD4
:101D8000000E9F6F000EA06F000EA16F000EA26FDD
:101D9000ACC0ADF0F2EF0EF0AEA1D1EF0EF0D3EF8C
:101DA0000EF0D9EF0EF0D890AE310109AE6FDBEF37
:101DB0000EF0D890AE339FA1E0EF0EF0E2EF0EF000
:101DC000E3EF0EF0AE8FA235A233A133A0339F33E1
:101DD000AD2BAC51AD5DD8A0F0EF0EF0F2EF0EF0F0
:101DE000CCEF0EF0ABBDF7EF0EF0F9EF0EF039EFE0
:101DF0000FF0AD51D8A4FFEF0EF001EF0FF00BEF95
:101E00000FF0000E9F6F000EA06F000EA16F000E6E
:101E1000A26F5AEF10F0A3519F27A451A023A55100
:101E2000A123A651A223A2A118EF0FF01AEF0FF0E1
:101E3000C6EF0FF0AEA11FEF0FF021EF0FF027EF6D
:101E40000FF0D890AE310109AE6F29EF0FF0D890A6
:101E5000AE339FA12EEF0FF030EF0FF031EF0FF008
:101E6000AE8FA235A233A133A0339F33AD2BC6EF83
:101E70000FF0A3519F5DA451A059A551A159A251A2
:101E8000800AA76FA651800AA759D8B04AEF0FF071
:101E90004CEF0FF077EF0FF09F51A35DA76FA051AC
:101EA000A459A86FA151A559A96FA251A659AA6F0B
:101EB000FF0EA7259F6FFF0EA821A06FFF0EA9217F
:101EC000A16FFF0EAA21A26F800EAB1BAE6DAE51AB
:101ED000D8A46DEF0FF06FEF0FF07FEF0FF0010E52
:101EE0009F27000EA023A123A2237FEF0FF0A35171
:101EF0009F5FA451A05BA551A15BA651A25B9F511E
:101F0000A011A111A211D8A488EF0FF08AEF0FF051
:101F1000BFEF0FF0AE51D8A490EF0FF092EF0FF09B
:101F2000BFEF0FF0000E9F6F000EA06F000EA16FAD
:101F3000000EA26F5AEF10F0D8909F37A037A1374C
:101F4000A237AEAFA6EF0FF0A8EF0FF0A9EF0FF09A
:101F50009F81AEA1AEEF0FF0B0EF0FF0B4EF0FF036
:101F6000D880AE37B6EF0FF0D890AE37AD51D8B4B9
:101F7000BCEF0FF0BEEF0FF0BFEF0FF0AD07A1AF5A
:101F8000C4EF0FF0C6EF0FF09CEF0FF0000EAC6F38
:101F9000AEAFCDEF0FF0CFEF0FF0E7EF0FF0AEC029
:101FA000A7F07F0EA717D8B4D8EF0FF0DAEF0FF035
:101FB000DEEF0FF0010EAC6FE7EF0FF09FA1E3EF44
:101FC0000FF0E5EF0FF0E7EF0FF0DAEF0FF0AC51A5
:101FD000D8B4EDEF0FF0EFEF0FF01AEF10F0010EA5
:101FE0009F27000EA023A123A223A2A1FAEF0FF0A6
:101FF000FCEF0FF01AEF10F09FC0A7F0A0C0A8F000
:10200000A1C0A9F0A2C0AAF0AA35AA33A933A83367
:10201000A733A7C09FF0A8C0A0F0A9C0A1F0AAC094
:10202000A2F0AD29D8B417EF10F019EF10F01AEFA5
:1020300010F0AD2BAD29D8B420EF10F022EF10F046
:102040002AEF10F0AD51D8A428EF10F02AEF10F0CD
:102050003CEF10F0000E9F6F000EA06F000EA16FFE
:10206000000EA26FAD51D8A438EF10F03AEF10F087
:102070003CEF10F0000EAB6FADA141EF10F043EF5D
:1020800010F046EF10F0A18F47EF10F0A19FD8900D
:10209000AD31A26FABAF4FEF10F051EF10F052EF38
:1020A00010F0A28F9FC09FF0A0C0A0F0A1C0A1F02F
:1020B000A2C0A2F0120000018951800B966F8951D5
:1020C00089259D6F88AF67EF10F069EF10F06AEF18
:1020D00010F09D819D51D8B470EF10F072EF10F0A8
:1020E00087EF10F09D29D8A478EF10F07AEF10F068
:1020F00082EF10F0000E866F000E876F000E886F63
:10210000000E896F888F000E896F8FEF10F0000E20
:10211000866F000E876F000E886F000E896F8D51DD
:10212000800B961B8D518D259E6F8CAF9AEF10F012
:102130009CEF10F09DEF10F09E819E51D8B4A3EF5C
:1021400010F0A5EF10F0BAEF10F09E29D8A4ABEF75
:1021500010F0ADEF10F0B5EF10F0000E8A6F000E2A
:102160008B6F000E8C6F000E8D6F8C8F000E8D6F3D
:10217000C2EF10F0000E8A6F000E8B6F000E8C6F96
:10218000000E8D6F8A518B118C118D11D8A4CBEF5D
:1021900010F0CDEF10F0E5EF10F0000E866F000E9E
:1021A000876F000E886F000E896F800E88137F0E78
:1021B00089139651891386C086F087C087F088C03E
:1021C00088F089C089F028EF12F09D51D8A4EBEF78
:1021D00010F0EDEF10F0F7EF10F0000E866F000E2C
:1021E000876F000E886F000E896F28EF12F09E51E6
:1021F0009DC08EF08F6B8E5F000E8F5B7F0E8E25E5
:10220000976F000E8F21986F86C092F087C093F071
:1022100088C094F089C095F0000E866F000E876F1D
:10222000000E886F000E896F000E996F000E9A6F76
:10223000000E9B6F000E9C6F000E9E6F58EF11F00A
:102240009E51D8B426EF11F028EF11F03FEF11F0B6
:10225000D8909237933794379537D8908637873709
:10226000883789379CAF37EF11F039EF11F03AEF2B
:1022700011F08681D89099379A379B379C378A51CD
:10228000925D8B5193598C5194598D519559D8A089
:102290004CEF11F04EEF11F057EF11F09C8D8A5179
:1022A000925F8B51935B8C51945B8D51955B9E2B10
:1022B000190E9E655EEF11F060EF11F020EF11F046
:1022C0009251931194119511D8B469EF11F06BEFFD
:1022D00011F083EF11F0998183EF11F0D8908637D8
:1022E0008737883789379CAF78EF11F07AEF11F094
:1022F0007BEF11F08681D89099379A379B379C37BE
:102300009707D8A0980788AF88EF11F08AEF11F0EF
:102310006EEF11F0000E9E6F9CAF91EF11F093EFF6
:1023200011F0B7EF11F0FF0E99158E6FFF0E9A1591
:102330008F6FFF0E9B15906F7F0E9C15916F8E51C6
:102340008F1190119111D8B4A8EF11F0AAEF11F0EC
:10235000AEEF11F0010E9E6FB7EF11F086A1B3EF53
:1023600011F0B5EF11F0B7EF11F0AAEF11F09E5197
:10237000D8B4BDEF11F0BFEF11F0E3EF11F0010E93
:102380008627000E87238823892389A1CAEF11F0AD
:10239000CCEF11F0E3EF11F086C08EF087C08FF024
:1023A00088C090F089C091F09135913390338F338C
:1023B0008E338EC086F08FC087F090C088F091C0B9
:1023C00089F0974B982B98BFEEEF11F0985108E1E8
:1023D0009729D8A0EEEF11F0F0EF11F0FBEF11F01C
:1023E000000E986F9769000E866F000E876F000EC3
:1023F000886F000E896F98BF08EF12F0985106E1C0
:102400009705D8B006EF12F008EF12F016EF12F0B1
:10241000000E986F000E976F000E866F000E876F8C
:10242000000E886F000E896F000E966F97C09DF0AA
:102430009DA11DEF12F01FEF12F022EF12F0888F16
:1024400023EF12F0889FD8909D31896FD9EF10F05B
:1024500012000600FACF1BF0FBCF1CF0E9CF1DF0F5
:10246000EACF1EF0D9CF1FF0DACF20F0F3CF21F062
:10247000F4CF22F0F6CF23F0F7CF24F0F8CF25F0F9
:10248000F5CF26F0F2A847EF12F049EF12F052EF25
:1024900012F0F2A24EEF12F050EF12F052EF12F0E3
:1024A000BBEC2EF0F0A657EF12F059EF12F062EFEE
:1024B00012F0F0A05EEF12F060EF12F062EF12F097
:1024C000A4EC2EF0F0A867EF12F069EF12F072EFB3
:1024D00012F0F0A26EEF12F070EF12F072EF12F045
:1024E00074EC2EF0F2A677EF12F079EF12F094EF81
:1024F00012F0F2A07EEF12F080EF12F094EF12F0E3
:1025000081A885EF12F087EF12F094EF12F04E04DD
:10251000D8A48DEF12F08FEF12F094EF12F0000EAE
:102520004E6E000E88EC30F0F2A699EF12F09BEFA1
:1025300012F0B6EF12F0F2A0A0EF12F0A2EF12F03C
:10254000B6EF12F081B8A7EF12F0A9EF12F0B6EFD4
:1025500012F04E50D8A4AFEF12F0B1EF12F0B6EF78
:1025600012F0010E4E6E010E88EC30F0F2A6BBEFB9
:1025700012F0BDEF12F0D8EF12F0F2A0C2EF12F09D
:10258000C4EF12F0D8EF12F081AAC9EF12F0CBEF2E
:1025900012F0D8EF12F04D04D8A4D1EF12F0D3EF1F
:1025A00012F0D8EF12F0000E4D6E000E7BEC30F002
:1025B000F2A6DDEF12F0DFEF12F0FAEF12F0F2A068
:1025C000E4EF12F0E6EF12F0FAEF12F081BAEBEF5F
:1025D00012F0EDEF12F0FAEF12F04D50D8A4F3EF35
:1025E00012F0F5EF12F0FAEF12F0010E4D6E010E3F
:1025F0007BEC30F0F2A6FFEF12F001EF13F01CEFCE
:1026000013F0F2A006EF13F008EF13F01CEF13F035
:1026100081AC0DEF13F00FEF13F01CEF13F04C042F
:10262000D8A415EF13F017EF13F01CEF13F0000E02
:102630004C6E000E6EEC30F0F2A621EF13F023EF9B
:1026400013F03EEF13F0F2A028EF13F02AEF13F08F
:102650003EEF13F081BC2FEF13F031EF13F03EEF9C
:1026600013F04C50D8A437EF13F039EF13F03EEFCE
:1026700013F0010E4C6E010E6EEC30F0F2A643EF3B
:1026800013F045EF13F060EF13F0F2A04AEF13F0F0
:102690004CEF13F060EF13F081AE51EF13F053EFF6
:1026A00013F060EF13F04B04D8A459EF13F05BEF75
:1026B00013F060EF13F0000E4B6E000E61EC30F083
:1026C000F2A665EF13F067EF13F082EF13F0F2A0BC
:1026D0006CEF13F06EEF13F082EF13F081BE73EF27
:1026E00013F075EF13F082EF13F04B50D8A47BEF8B
:1026F00013F07DEF13F082EF13F0010E4B6E010E1D
:1027000061EC30F09DAC87EF13F089EF13F092EF9E
:1027100013F09EAC8EEF13F090EF13F092EF13F0E6
:10272000D2EC2EF09DA897EF13F099EF13F0A2EFE3
:1027300013F09EA89EEF13F0A0EF13F0A2EF13F09A
:10274000F5EC31F09DAAA7EF13F0A9EF13F0B2EF6B
:1027500013F09EAAAEEF13F0B0EF13F0B2EF13F048
:10276000F9EC31F026C0F5FF25C0F8FF24C0F7FFD3
:1027700023C0F6FF22C0F4FF21C0F3FF20C0DAFF20
:102780001FC0D9FF1EC0EAFF1DC0E9FF1CC0FBFF30
:102790001BC0FAFF5992110093C0ABF094C0ACF08B
:1027A00095C0ADF096C0AEF097C0AFF098C0B0F055
:1027B00099C0B1F09AC0B2F00001B2BFE2EF13F0DD
:1027C000E5EF13F0010EE6EF13F0000EA96FAA6B10
:1027D000A951AA11D8B4EFEF13F0F1EF13F001EF04
:1027E00014F0B21FB11FB01FAF1FAE1FAD1FAC1F43
:1027F000AB6D000EAC23AD23AE23AF23B023B123CA
:10280000B22332BE06EF14F008EF14F009EF14F013
:10281000339232BE16EF14F0325006E13104D8B0D4
:1028200014EF14F016EF14F01CEF14F0000EA66F66
:10283000010EA56F20EF14F031C0A5F032C0A6F054
:1028400014C1A7F015C1A8F0A951AA11D8A42BEF63
:1028500014F02DEF14F034EF14F033A432EF14F031
:1028600034EF14F037EF14F0A707D8A0A807000E34
:10287000B46F1F0EB36F000E01014D6FBDEF14F06A
:10288000B307D8A0B4072E0EB325D96E010EB4211C
:10289000DA6EABC080F0ACC081F0ADC082F0AEC0EB
:1028A00083F0AFC084F0B0C085F0B1C086F0B2C094
:1028B00087F00A0E886F000E896F000E8A6F000E77
:1028C0008B6F000E8C6F000E8D6F000E8E6F000EE2
:1028D0008F6F10EC1AF080C09BF081C09CF082C01A
:1028E0009DF083C09EF084C09FF085C0A0F086C09C
:1028F000A1F087C0A2F09BC029F09DC02AF023EC74
:102900002DF02950300FDF6E0001A507D8A0A607D3
:10291000A707D8A0A807ABC080F0ACC081F0ADC0BD
:1029200082F0AEC083F0AFC084F0B0C085F0B1C01B
:1029300086F0B2C087F00A0E886F000E896F000E15
:102940008A6F000E8B6F000E8C6F000E8D6F000E65
:102950008E6F000E8F6F8FEC18F080C0ABF081C0CF
:10296000ACF082C0ADF083C0AEF084C0AFF085C0E3
:10297000B0F086C0B1F087C0B2F00001B4BFC9EFBB
:1029800014F0B45108E1B305D8A0C9EF14F0CBEFAF
:1029900014F0FBEF14F0AB51AC11AD11AE11AF114F
:1029A000B011B111B211D8A4D8EF14F0DAEF14F0CD
:1029B00040EF14F0A6BFE7EF14F0A65106E1A5051D
:1029C000D8B0E5EF14F0E7EF14F040EF14F0A8BF33
:1029D000F2EF14F0A85108E1A705D8A0F2EF14F027
:1029E000F4EF14F0FBEF14F033B2F9EF14F0FBEF57
:1029F00014F040EF14F0A951AA11D8A402EF15F079
:102A000004EF15F00BEF15F033A409EF15F00BEF01
:102A100015F029EF15F0B307D8A0B407A951AA11F2
:102A2000D8A415EF15F017EF15F01DEF15F0000EF7
:102A3000A46F2B0EA36F21EF15F0000EA46F2D0EC7
:102A4000A36F2E0EB325D96E010EB421DA6EA3C08A
:102A5000DFFF91C087F092C088F02E0EB325896FFA
:102A6000010EB4218A6FA7C08BF0A8C08CF05DEC7A
:102A700020F087C091F088C092F01200B7C0D9FF53
:102A8000B8C0DAFFDECFF6FFDDCFF7FFF86A080047
:102A9000F550250AD8A44FEF15F051EF15F003EFCC
:102AA00016F0B7C0D9FFB8C0DAFFDE2A000EDD226B
:102AB000000E0101156F000E146F14C133F015C123
:102AC00034F031683268B7C0D9FFB8C0DAFFDECF62
:102AD000F6FFDDCFF7FFF86A0800F550640AD8B4B6
:102AE00074EF15F076EF15F089EF15F0B7C0D9FF48
:102AF000B8C0DAFFDECFF6FFDDCFF7FFF86A0800D7
:102B0000F550690AD8A487EF15F089EF15F0CAEFE0
:102B100015F0B7C0D9FFB8C0DAFFDE2A000EDD22FB
:102B2000B9C0D9FFBAC0DAFFDFCFBBF0020EDE2694
:102B3000DFCFBCF0000EDD22BBC0D9FFBCC0DAFF86
:102B4000DECFBDF0DDCFBEF00001000EBEBFFF0E38
:102B5000BF6FC06FC16FC26FC36FC46FB5C091F05C
:102B6000B6C092F0BDC093F0BEC094F0BFC095F067
:102B7000C0C096F0C1C097F0C2C098F0C3C099F031
:102B8000C4C09AF0CCEC13F091C0B5F092C0B6F08E
:102B90001FEF16F0B7C0D9FFB8C0DAFFDECFF6FFDF
:102BA000DDCFF7FFF86A0800F550250AD8A4DBEF5F
:102BB00015F0DDEF15F0F5EF15F0B7C0D9FFB8C08F
:102BC000DAFFDE2A000EDD22000E286E250E276EAB
:102BD000B5C029F0B6C02AF0F8EC1FF0000E0001D5
:102BE000B66F010EB56F1FEF16F0B7C0D9FFB8C0B2
:102BF000DAFFDE2A000EDD22000E0001B66F000EA5
:102C0000B56F1FEF16F0B7C0D9FFB8C0DAFFDECF3F
:102C1000F6FFDDCFF7FFF86A0800F550276E286A47
:102C2000B5C029F0B6C02AF0F8EC1FF0B7C0D9FF44
:102C3000B8C0DAFFDE2A000EDD22EEEF15F012003A
:102C40000001806F00018051D8B429EF16F02BEFFE
:102C500016F04DEF16F02ABE32EF16F030EF16F0F8
:102C60004DEF16F027C02BF028C02CF029C02DF016
:102C70002AC02EF02B1E2C1E2D1E2E1E2B2A000EBF
:102C80002C222D222E222BC082F02CC083F02DC0AE
:102C900084F02EC085F055EF16F027C082F028C0D2
:102CA00083F029C084F02AC085F02750281029100D
:102CB0002A10D8A45EEF16F060EF16F06AEF16F057
:102CC000000E276E000E286E000E296E000E2A6E72
:102CD000FBEF16F0960E816F74EF16F0812BD890F3
:102CE0008533843383338233000E82152B6E000EBE
:102CF00083152C6E000E84152D6EFE0E85152E6E1E
:102D00002B502C102D102E10D8A489EF16F08BEF1D
:102D100016F06EEF16F099EF16F0812B010E822758
:102D2000000E832384238523D89085338433833313
:102D30008233000E82152B6E000E83152C6E000E52
:102D400084152D6EFF0E85152E6E2B502C102D1018
:102D50002E10D8A4AEEF16F0B0EF16F08DEF16F0EF
:102D6000B8EF16F08107D8908237833784378537DC
:102D700084BFBDEF16F0BFEF16F0C7EF16F0020EDE
:102D80008161C5EF16F0C7EF16F0B2EF16F081B112
:102D9000CCEF16F0CEEF16F0CFEF16F0849FD89060
:102DA000813381C02BF02C6A2D6A2E6A2BC02EF045
:102DB0002D6A2C6A2B6A2B5082132C5083132D50B2
:102DC00084132E5085138051D8B4E9EF16F0EBEF41
:102DD00016F0F3EF16F02ABEF2EF16F0F0EF16F051
:102DE000F3EF16F0858F82C027F083C028F084C0EF
:102DF00029F085C02AF012000B6E23EF17F0000EA9
:102E00000C6E82EF17F0010E0C6E82EF17F0020EBF
:102E10000C6E82EF17F0030E0C6E82EF17F0040EAB
:102E20000C6E82EF17F0050E0C6E82EF17F0060E97
:102E30000C6E82EF17F0070E0C6E82EF17F0080E83
:102E40000C6E82EF17F00BC001F0026A000E046EE8
:102E50000A0E036E93EC22F00250000AD8B433EF4E
:102E600017F082EF17F00150000AD8B4FFEF16F008
:102E7000010AD8B403EF17F0030AD8B407EF17F02C
:102E8000010AD8B40BEF17F0070AD8B40FEF17F008
:102E9000010AD8B413EF17F0030AD8B417EF17F0EC
:102EA000010AD8B41BEF17F00F0AD8B41FEF17F0C0
:102EB000010AD8B41FEF17F082EF17F0000E0D6E65
:102EC000BDEF17F0010E0D6EBDEF17F0020E0D6E87
:102ED000BDEF17F0030E0D6EBDEF17F0040E0D6E73
:102EE000BDEF17F0050E0D6EBDEF17F0060E0D6E5F
:102EF000BDEF17F0070E0D6EBDEF17F0080E0D6E4B
:102F0000BDEF17F00BC001F0026A000E046E0A0E4E
:102F1000036E23EC21F00250000AD8B492EF17F0B0
:102F2000BDEF17F00150000AD8B45EEF17F0010AA8
:102F3000D8B462EF17F0030AD8B466EF17F0010AAD
:102F4000D8B46AEF17F0070AD8B46EEF17F0010A89
:102F5000D8B472EF17F0030AD8B476EF17F0010A6D
:102F6000D8B47AEF17F00F0AD8B47EEF17F0010A41
:102F7000D8B47EEF17F0BDEF17F00D38F00B0C1042
:102F800009C0D9FF0AC0DAFFDF6E12002B6EF1EF25
:102F900017F0000E2D6E4FEF18F0010E2D6E4FEF53
:102FA00018F0020E2D6E4FEF18F0030E2D6E4FEF3E
:102FB00018F0040E2D6E4FEF18F0050E2D6E4FEF2A
:102FC00018F0060E2D6E4FEF18F0070E2D6E4FEF16
:102FD00018F0080E2D6E4FEF18F0090E2D6E4FEF02
:102FE00018F02B500F0B296E2A6A2A50000AD8B409
:102FF000FCEF17F04FEF18F02950000AD8B4C9EFD2
:1030000017F0010AD8B4CDEF17F0030AD8B4D1EF06
:1030100017F0010AD8B4D5EF17F0070AD8B4D9EFE2
:1030200017F0010AD8B4DDEF17F0030AD8B4E1EFC6
:1030300017F0010AD8B4E5EF17F00F0AD8B4E9EF9A
:1030400017F0010AD8B4EDEF17F04FEF18F0000EAB
:103050002C6E85EF18F0010E2C6E85EF18F0020E25
:103060002C6E85EF18F0030E2C6E85EF18F0040E11
:103070002C6E85EF18F0050E2C6E85EF18F0060EFD
:103080002C6E85EF18F0070E2C6E85EF18F0080EE9
:103090002C6E85EF18F0090E2C6E85EF18F02B388A
:1030A0000F0B296E2A6A2A50000AD8B45AEF18F07A
:1030B00085EF18F02950000AD8B427EF18F0010A5C
:1030C000D8B42BEF18F0030AD8B42FEF18F0010A88
:1030D000D8B433EF18F0070AD8B437EF18F0010A64
:1030E000D8B43BEF18F0030AD8B43FEF18F0010A48
:1030F000D8B443EF18F00F0AD8B447EF18F0010A1C
:10310000D8B44BEF18F085EF18F02C500A0DF3509F
:103110002D2427C0D9FF28C0DAFFDF6E1200000E71
:10312000286E00018FBF99EF18F097EF18F0ABEF02
:1031300018F08F1F8E1F8D1F8C1F8B1F8A1F891FDA
:10314000886D000E89238A238B238C238D238E2365
:103150008F23010E286E87BFB2EF18F0B0EF18F082
:10316000C4EF18F0871F861F851F841F831F821FCF
:10317000811F806D000E8123822383238423852376
:1031800086238723010E281A20EE29F0070EDE6A17
:10319000E806FDE2885189118A118B118C118D117D
:1031A0008E118F11D8B4D7EF18F0D9EF18F02BEF9C
:1031B00019F0010E276EE7EF18F0D890883789379D
:1031C0008A378B378C378D378E378F37272A8FAFDB
:1031D000ECEF18F0EEEF18F0DDEF18F0D89029368C
:1031E0002A362B362C362D362E362F363036885151
:1031F000805D895181598A5182598B5183598C51F3
:1032000084598D5185598E5186598F518759D8A02F
:103210000CEF19F00EEF19F01FEF19F08851805FD5
:103220008951815B8A51825B8B51835B8C51845BBA
:103230008D51855B8E51865B8F51875B2980D8903D
:103240008F338E338D338C338B338A33893388338A
:10325000272EEEEF18F02850D8B431EF19F033EFE5
:1032600019F043EF19F0301E2F1E2E1E2D1E2C1E9E
:103270002B1E2A1E296C000E2A222B222C222D22E4
:103280002E222F22302229C080F02AC081F02BC0AC
:1032900082F02CC083F02DC084F02EC085F02FC0AA
:1032A00086F030C087F0120027C082F028C083F07B
:1032B0002B502C10D8A45FEF19F061EF19F063EFD9
:1032C00019F00FEF1AF082C0D9FF83C0DAFF29C0CE
:1032D000DFFF2B50000182252D6E2C5083212E6E96
:1032E000FF0E2D24D96EFF0E2E20DA6E29C0DFFFCF
:1032F0002C5007E1030E2B5CD8B081EF19F083EF5F
:1033000019F085EF19F00FEF1AF020EE01F082515D
:10331000D9268351DA2229C0DFFF20EE02F0825144
:10332000D9268351DA2229C0DFFF2B5082252D6E4A
:103330002C5083212E6EFE0E2D24D96EFF0E2E20D2
:10334000DA6E29C0DFFF2B5082252D6E2C50832191
:103350002E6EFD0E2D24D96EFF0E2E20DA6E29C0A2
:10336000DFFF2C5007E1070E2B5CD8B0BAEF19F045
:10337000BCEF19F0BEEF19F00FEF1AF020EE03F0DA
:103380008251D9268351DA2229C0DFFF2B508225B2
:103390002D6E2C5083212E6EFC0E2D24D96EFF0E27
:1033A0002E20DA6E29C0DFFF2C5007E1090E2B5CBE
:1033B000D8B0DDEF19F0DFEF19F0E1EF19F00FEF02
:1033C0001AF082C02DF083C02EF02D1E2E1E2D4A25
:1033D0002E2A030E2D14806F816B8051822781511C
:1033E000832380512B5E81512C5AFC0E2B16FF0E2D
:1033F0002C1606EF1AF082C0D9FF83C0DAFF29C06D
:10340000DFFF2B06D8A02C06824B832B2B502C10D1
:10341000D8A40DEF1AF00FEF1AF0FBEF19F012001D
:10342000000E286E000187BF1AEF1AF018EF1AF08D
:103430002CEF1AF0871F861F851F841F831F821F92
:10344000811F806D000E81238223832384238523A3
:1034500086238723010E286E8FBF33EF1AF031EFDA
:103460001AF043EF1AF08F1F8E1F8D1F8C1F8B1FBA
:103470008A1F891F886D000E89238A238B238C2342
:103480008D238E238F23885189118A118B118C11E2
:103490008D118E118F11D8B450EF1AF052EF1AF02F
:1034A0009AEF1AF0010E276E60EF1AF0D890883765
:1034B00089378A378B378C378D378E378F37272A66
:1034C0008FAF65EF1AF067EF1AF056EF1AF08851D8
:1034D000805D895181598A5182598B5183598C5110
:1034E00084598D5185598E5186598F518759D8A04D
:1034F0007CEF1AF07EEF1AF08EEF1AF08851805FA1
:103500008951815B8A51825B8B51835B8C51845BD7
:103510008D51855B8E51865B8F51875BD8908F3341
:103520008E338D338C338B338A3389338833272E14
:1035300067EF1AF02850D8B4A0EF1AF0A2EF1AF0F3
:10354000B2EF1AF0871F861F851F841F831F821FFB
:10355000811F806D000E8123822383238423852392
:103560008623872380C080F081C081F082C082F0F2
:1035700083C083F084C084F085C085F086C086F067
:1035800087C087F01200000E0001936F000E956F48
:103590008F519011D8A4CFEF1AF0D1EF1AF0D3EFDA
:1035A0001AF070EF1BF0010E8F25806F000E902136
:1035B000816F67EC28F00001936F8FC080F090C09E
:1035C00081F067EC28F00001936F000E946FF9EF23
:1035D0001AF094518F25916F000E9021926F020E78
:1035E0009125806F000E9221816F67EC28F0000119
:1035F000942B030E9465FFEF1AF001EF1BF0E9EF37
:103600001AF0340E0001916FF10EE82EFED7912FC3
:10361000FCD700D08FC089F090C08AF0380E00012E
:103620008B6F04EC25F00D0E0001916FFB0EE82E60
:10363000FED7912FFCD700D08FC089F090C08AF0C0
:10364000380E00018B6F04EC25F0020E0001926F22
:10365000860E916F990EE82EFED7912FFCD7922FF0
:10366000FAD78FC089F090C08AF0380E00018B6FB6
:1036700004EC25F08FC089F090C08AF0010E0001A3
:103680008B6F04EC25F08FC089F090C08AF0020E99
:1036900000018B6F04EC25F08FC089F090C08AF098
:1036A000060E00018B6F04EC25F08FC089F090C0EE
:1036B0008AF00C0E00018B6F04EC25F08FC089F0AE
:1036C00090C08AF0800E00018B6F04EC25F08FC053
:1036D00089F090C08AF0280E00018B6F04EC25F071
:1036E000120027502810D8B478EF1BF07AEF1BF0A7
:1036F00093EF1BF027C0D9FF28C0DAFFDF30E83294
:10370000E832070B2A6E080E2A6089EF1BF08BEF58
:103710001BF093EF1BF0010E296491EF1BF093EF68
:103720001BF0F8EF1BF0000E306E18EF1CF027C0F6
:10373000D9FF28C0DAFFDF30E832E832070B2A6E03
:10374000010E2B6E2A2AA7EF1BF0D8902B362A2EBB
:10375000A5EF1BF02B50FF0A2C6E27C0D9FF28C005
:10376000DAFFDF50070B2D6E2D50020D580EF3249B
:10377000D96E010EF420DA6EDECF2EF0DDCF2FF001
:103780002EC0D9FF2FC0DAFF2C50DF160DEF1CF032
:1037900027C0D9FF28C0DAFFDF30E832E832070B54
:1037A0002A6E010E2B6E2A2AD8EF1BF0D8902B36EA
:1037B0002A2ED6EF1BF027C0D9FF28C0DAFFDF5032
:1037C000070B2C6E2C50020D580EF324D96E010EEF
:1037D000F420DA6EDECF2DF0DDCF2EF02DC0D9FF34
:1037E0002EC0DAFF2B50DF120DEF1CF00DEF1CF096
:1037F00029502A6E2B6A2B50000AD8B402EF1CF015
:10380000F6EF1BF02A50000AD8B497EF1BF0010A1C
:10381000D8B4C8EF1BF0F6EF1BF027C0D9FF28C0C3
:10382000DAFF29B002D0DF9E01D0DF8E010E306EAC
:103830003050120027502810D8B421EF1CF023EF8D
:103840001CF03CEF1CF027C0D9FF28C0DAFFDF30A6
:10385000E832E832070B2A6E080E2A6032EF1CF0BD
:1038600034EF1CF03CEF1CF0010E29643AEF1CF021
:103870003CEF1CF0A1EF1CF0000E306EC1EF1CF00D
:1038800027C0D9FF28C0DAFFDF30E832E832070B63
:103890002A6E010E2B6E2A2A50EF1CF0D8902B3680
:1038A0002A2E4EEF1CF02B50FF0A2C6E27C0D9FF9A
:1038B00028C0DAFFDF50070B2D6E2D50020D620E6F
:1038C000F324D96E010EF420DA6EDECF2EF0DDCFB8
:1038D0002FF02EC0D9FF2FC0DAFF2C50DF16B6EF25
:1038E0001CF027C0D9FF28C0DAFFDF30E832E83209
:1038F000070B2A6E010E2B6E2A2A81EF1CF0D8903E
:103900002B362A2E7FEF1CF027C0D9FF28C0DAFF04
:10391000DF50070B2C6E2C50020D620EF324D96E73
:10392000010EF420DA6EDECF2DF0DDCF2EF02DC0AB
:10393000D9FF2EC0DAFF2B50DF12B6EF1CF0B6EF26
:103940001CF029502A6E2B6A2B50000AD8B4ABEF1A
:103950001CF09FEF1CF02A50000AD8B440EF1CF076
:10396000010AD8B471EF1CF09FEF1CF027C0D9FFFB
:1039700028C0DAFF29B002D0DF9C01D0DF8C010E15
:10398000306E3050120027502810D8A4CAEF1CF017
:10399000CCEF1CF038EF1DF0000E2B6E57EF1DF032
:1039A00020EE03F02750D9262850DA22DE04D8A4CE
:1039B000DCEF1CF0DEEF1CF0E1EF1CF0F18CF0EF1F
:1039C0001CF020EE03F02750D9262850DA22DF50D1
:1039D000D8A4EDEF1CF0EFEF1CF0F0EF1CF0F19C21
:1039E000010E2B6E57EF1DF020EE03F02750D92665
:1039F0002850DA22DE04D8A400EF1DF002EF1DF0FB
:103A000005EF1DF0F18AF0EF1CF020EE03F02750D7
:103A1000D9262850DA22DF50D8A411EF1DF013EF79
:103A20001DF0F0EF1CF0F19AF0EF1CF020EE03F027
:103A30002750D9262850DA22DE04D8A422EF1DF020
:103A400024EF1DF027EF1DF0F188F0EF1CF020EEC1
:103A500003F02750D9262850DA22DF50D8A433EFBC
:103A60001DF035EF1DF0F0EF1CF0F198F0EF1CF0B9
:103A700020EE04F02750D9262850DA22DF50296E94
:103A80002A6A2A50000AD8B448EF1DF0CCEF1CF087
:103A90002950000AD8B4D0EF1CF0010AD8B4F4EFD2
:103AA0001CF0030AD8B416EF1DF0CCEF1CF02B501D
:103AB000120029342A34306E3050D8A462EF1DF041
:103AC00064EF1DF06EEF1DF0000E276E000E286EE5
:103AD000000E296E000E2A6EDBEF1DF027C02BF0C2
:103AE00028C02CF029C02DF02AC02EF0200E7EEF29
:103AF0001DF0D8902E322D322C322B32E82E79EF59
:103B00001DF02B502F6E298EFF0E2716FF0E281644
:103B1000FF0E2916000E2A16960E305E30BE95EF67
:103B20001DF093EF1DF0ABEF1DF03050800A970FA2
:103B3000D8B09DEF1DF09FEF1DF0A1EF1DF064EFD9
:103B40001DF0D8902A32293228322732303EA1EF98
:103B50001DF0C3EF1DF01F0E3064B1EF1DF0B3EF89
:103B60001DF0BBEF1DF064EF1DF0D890273628360E
:103B700029362A3630063050D8A4C1EF1DF0C3EFE5
:103B80001DF0B5EF1DF02F50D8B4C9EF1DF0CBEFED
:103B90001DF0D3EF1DF02A1E291E281E276C000ED3
:103BA000282229222A2227C027F028C028F029C04D
:103BB00029F02AC02AF012002A502B10D8A4E3EFD3
:103BC0001DF0E5EF1DF0E7EF1DF04CEF1EF0C29089
:103BD00020EE03F02A50D9262B50DA22DF502C6E2B
:103BE0002C462C462C46C0502C18C70B2C18C06EE7
:103BF00020EE04F02A50D9262B50DA22DF502C6E0A
:103C0000C0502C18F80B2C18C06E20EE05F02A506E
:103C1000D9262B50DA22DF502C6E2C462C46C2506F
:103C20002C18C30B2C18C26E20EE05F02A50D92692
:103C30002B50DA22DF504DEC1EF09E9CF28EF28C5F
:103C40009D8C2AC0D9FF2BC0DAFFDECF39F0DDCF43
:103C50003AF020EE06F02A50D9262B50DA22DFB2B5
:103C600034EF1EF037EF1EF0010E38EF1EF0000E9D
:103C7000E9EC2EF020EE06F02A50D9262B50DA225D
:103C8000DFB045EF1EF048EF1EF0010E49EF1EF0C9
:103C9000000E5CEC2EF0C2801200296E77EF1EF051
:103CA0009280B8EF1EF09282B8EF1EF09284B8EFC7
:103CB0001EF09286B8EF1EF0928AB8EF1EF0968042
:103CC000B8EF1EF09682B8EF1EF09684B8EF1EF0A3
:103CD0009384B8EF1EF09386B8EF1EF09382B8EF8E
:103CE0001EF09388B8EF1EF09380B8EF1EF02950B5
:103CF000276E286A2850000AD8B481EF1EF0B8EF6A
:103D00001EF02750000AD8B450EF1EF0010AD8B4B4
:103D100053EF1EF0030AD8B456EF1EF0010AD8B4D0
:103D200059EF1EF0070AD8B45CEF1EF0010AD8B4B0
:103D30005FEF1EF0030AD8B462EF1EF0010AD8B498
:103D400065EF1EF00F0AD8B468EF1EF0010AD8B470
:103D50006BEF1EF0030AD8B46EEF1EF0010AD8B460
:103D600071EF1EF0070AD8B474EF1EF0B8EF1EF022
:103D700012003B04D8A4BFEF1EF0C1EF1EF0CEEF3F
:103D80001EF0492A3B0E4964C8EF1EF0CAEF1EF030
:103D900024EF1FF0000E496E24EF1FF0020E3B18B7
:103DA000D8A4D5EF1EF0D7EF1EF0E4EF1EF0482A9E
:103DB000170E4864DEEF1EF0E0EF1EF024EF1FF058
:103DC000000E486E24EF1FF0030E3B18D8A4EBEF53
:103DD0001EF0EDEF1EF0FAEF1EF0582A1E0E58648A
:103DE000F4EF1EF0F6EF1EF024EF1FF0010E586EF8
:103DF00024EF1FF0040E3B18D8A401EF1FF003EFCF
:103E00001FF010EF1FF0572A0C0E57640AEF1FF037
:103E10000CEF1FF024EF1FF0010E576E24EF1FF080
:103E2000050E3B18D8A417EF1FF019EF1FF024EF71
:103E30001FF0562A630E566420EF1FF022EF1FF08A
:103E400024EF1FF0010E566E12003B50D8A42BEF4A
:103E50001FF02DEF1FF036EF1FF056EC2AF020EE8A
:103E600041F0050EEBCFDBFFE806FCE23B2A060E35
:103E70003B18D8A43EEF1FF040EF1FF08FEF1FF06C
:103E8000000E3B6E000E126E000E136ED00E80EC14
:103E900029F0420E096E000E0A6E4950FCEC16F035
:103EA000010E126E42C013F0D00E80EC29F0410ECC
:103EB000096E000E0A6E4850FCEC16F0020E126EEF
:103EC00041C013F0D00E80EC29F0460E096E000EB2
:103ED0000A6E5850FCEC16F0040E126E46C013F039
:103EE000D00E80EC29F0450E096E000E0A6E575078
:103EF000FCEC16F0050E126E45C013F0D00E80ECEF
:103F000029F0440E096E000E0A6E5650FCEC16F0B5
:103F1000060E126E44C013F0D00E80EC29F0120091
:103F200059A295EF1FF0C1EF20F0FCEC30F0000932
:103F3000D8B49DEF1FF09FEF1FF0DBEF1FF0ADEF48
:103F40001FF046EC31F0F7EF1FF03DEC31F0F7EFEA
:103F50001FF02BEC31F0F7EF1FF0DAC080F0DBC080
:103F600081F002D8BEEF1FF00500FA6E0001CE51BD
:103F7000FD6ECF51FE6EFF6AFA5012000001826F93
:103F8000836B8351000AD8B4C8EF1FF0A9EF1FF06C
:103F90008251010AD8B4A9EF1FF0030AD8B4A1EFE7
:103FA0001FF0010AD8B4A5EF1FF0070AD8B4A9EF93
:103FB0001FF0A9EF1FF00001EB91E5C0D9FFE6C0AB
:103FC000DAFFE54BE62BDF5099EC31F00001E70713
:103FD000D8A0E807E751E811D8A4F1EF1FF0F3EFFC
:103FE0001FF0F6EF1FF0060EF7EF1FF0030E1200A2
:103FF00029502A10D8B4FFEF1FF001EF20F00AEF8C
:1040000020F029502A10D8A408EF20F00AEF20F061
:104010000FEF20F02750F8EC31F05CEF20F020EEAD
:1040200009F02950D9262A50DA22DE50DE10D8B401
:104030001CEF20F01EEF20F039EF20F020EE09F009
:104040002950D9262A50DA2210EE03F02950E12611
:104050002A50E222DE50E65CE650800A2F6EDE50E7
:10406000800A2F58D8B037EF20F039EF20F05CEFFE
:1040700020F020EE03F02950D9262A50DA22DECF94
:104080002BF0DDCF2CF029C0D9FF2AC0DAFFDECF1C
:104090002DF0DDCF2EF02B502D24D96E2C502E205C
:1040A000DA6E27C0DFFF20EE03F02950D9262A5010
:1040B000DA22DE2A000EDD22120033A062EF20F0A9
:1040C00064EF20F06EEF20F089C080F08AC081F0AC
:1040D00087C082F088C083F072EC2CF000018CBFA6
:1040E00074EF20F076EF20F07CEF20F08BC08FF0A3
:1040F0008CC090F080EF20F0000E906F000E8F6F5C
:10410000000E8E6F000E8D6F93EF20F0000E286E64
:10411000200E276E87C029F088C02AF0F8EC1FF027
:1041200000018D4B8E2B8F518D5D8E51800A306E2C
:104130009051800A3058D8A0A0EF20F0A2EF20F0D4
:1041400086EF20F033B0A7EF20F0A9EF20F0B3EF17
:1041500020F089C080F08AC081F087C082F088C0DA
:1041600083F072EC2CF089C027F08AC028F0BBECF9
:104170002DF000018F512724876F90512820886FE0
:10418000120006EC31F00009D8B4C9EF20F0CBEFF3
:1041900020F006EF21F0D9EF20F0B9EC31F022EF5A
:1041A00021F0B5EC31F022EF21F0ADEC31F022EF4F
:1041B00021F0DAC00AF0DBC00BF002D8EAEF20F001
:1041C0000500FA6E0001CE51FD6ECF51FE6EFF6A02
:1041D000FA5012000C6E0D6A0D50000AD8B4F3EFBD
:1041E00020F0D5EF20F00C50010AD8B4D5EF20F024
:1041F000030AD8B4CDEF20F0010AD8B4D1EF20F0F3
:10420000070AD8B4D5EF20F0D5EF20F00001EB91EC
:10421000E5C0D9FFE6C0DAFFE54BE62BDF50BDEC89
:1042200031F00001E707D8A0E807E751E811D8A46A
:104230001CEF21F01EEF21F021EF21F0060E22EFFE
:1042400021F0030E1200000E066E04BE2CEF21F0CA
:104250002AEF21F032EF21F0036C041ED8B0042ABB
:10426000010E066E02BE39EF21F037EF21F03FEF6D
:1042700021F0016C021ED8B0022A010E061A000EAF
:10428000086E000E076E03500410D8B44AEF21F0F8
:104290004CEF21F074EF21F0010E056E54EF21F088
:1042A000D89003360436052A04AE59EF21F05BEFAF
:1042B00021F050EF21F0D890073608360350015C0A
:1042C00004500258D8A067EF21F069EF21F06EEF9B
:1042D00021F00350015E0450025A0780D890043246
:1042E0000332052E5BEF21F00650D8B47AEF21F0AF
:1042F0007CEF21F080EF21F0076C081ED8B0082A6F
:1043000007C001F008C002F0120001500210D8B43A
:104310008CEF21F08EEF21F097EF21F00350041085
:10432000D8A495EF21F097EF21F099EF21F0E1EF7C
:1043300021F020EE06F00150D9260250DA22DFA249
:10434000A4EF21F0A6EF21F0BAEF21F0C450066EE1
:10435000056AC350076E086A0550072606500822F2
:1043600003C0D9FF04C0DAFF07C0DEFF08C0DDFFCD
:10437000E1EF21F020EE06F00150D9260250DA22BA
:10438000DFB2C5EF21F0C7EF21F0E1EF21F0C4501B
:10439000066E056AC350076E086A05500726065068
:1043A0000822060E096E083408320732092ED3EFB0
:1043B00021F003C0D9FF04C0DAFF07C0DEFF08C048
:1043C000DDFF120059A2E7EF21F095EF23F0CFECCB
:1043D00031F0E5C0D9FFE6C0DAFFDF6E0001E54B42
:1043E000E62BE707D8A0E807E751E811D8B4FBEFC0
:1043F00021F0FDEF21F002EF22F0C1EC31F0050ECB
:104400003AEF22F0EB870DEF22F010EC31F03AEFAB
:1044100022F019EC31F03AEF22F0D4C080F0D5C090
:1044200081F002D81DEF22F00500FA6EC851FD6E32
:10443000C951FE6EFF6AFA5012000001826F836B51
:104440008351000AD8B427EF22F009EF22F08251FD
:10445000010AD8B409EF22F0030AD8B405EF22F01C
:10446000010AD8B405EF22F0070AD8B409EF22F008
:1044700009EF22F0120020EE04F02750D926285030
:10448000DA22DFA046EF22F048EF22F092EF22F08E
:10449000AC8A20EE04F02750D9262850DA22DFA279
:1044A00054EF22F056EF22F066EF22F09D98F28E44
:1044B000F28C9D8820EE08F02750D9262850DA2269
:1044C000DECF1CF1DDCF1DF174EF22F020EE04F001
:1044D0002750D9262850DA22DFB271EF22F073EF8D
:1044E00022F074EF22F09D9820EE04F02750D92698
:1044F0002850DA22DFA47FEF22F081EF22F084EF50
:1045000022F0AC8C92EF22F020EE04F02750D92656
:104510002850DA22DFB48FEF22F091EF22F092EFF1
:1045200022F0AC9C1200000E066E02BE9CEF22F040
:104530009AEF22F0A2EF22F0016C021ED8B0022AFC
:10454000010E066E04BEA9EF22F0A7EF22F0ADEF38
:1045500022F0036C041ED8B0042A03500410D8B40F
:10456000B4EF22F0B6EF22F0DAEF22F0010E056E82
:10457000BEEF22F0D89003360436052A04AEC3EF0E
:1045800022F0C5EF22F0BAEF22F00350015C045094
:104590000258D8A0CEEF22F0D0EF22F0D4EF22F0D4
:1045A0000350015E0450025AD89004320332052EA3
:1045B000C5EF22F00650D8B4E0EF22F0E2EF22F08F
:1045C000E6EF22F0016C021ED8B0022A01C001F011
:1045D00002C002F01200000E0001936F000E946FF3
:1045E0008F519011D8B4F7EF22F0F9EF22F002EFDB
:1045F00023F091519211D8A400EF23F002EF23F0A1
:1046000022EF23F0000E956F3EEF23F08FC089F06C
:1046100090C08AF091C0F6FF92C0F7FF000EF86ECE
:104620000F0EF76403D00800F55005D0F6CFE9FF70
:10463000F7CFEAFFEF5000018B6FC0EC24F00001D0
:10464000914B922B91C0F6FF92C0F7FF000EF86ECF
:104650000F0EF76403D00800F55005D0F6CFE9FF40
:10466000F7CFEAFFEF500009D8A439EF23F03BEF72
:1046700023F006EF23F0010E0001956F9551120013
:104680002A502B10D8A447EF23F049EF23F074EF02
:1046900023F0000E2E6E93EF23F02AC0D9FF2BC01B
:1046A000DAFFDECF27F0DDCF28F0ADEC2FF02E6E55
:1046B00093EF23F02AC0D9FF2BC0DAFFDECF27F01B
:1046C000DDCF28F098EC2FF02E6E93EF23F02AC068
:1046D000D9FF2BC0DAFFDECF27F0DDCF28F083EC47
:1046E0002FF02E6E93EF23F020EE04F02A50D926FF
:1046F0002B50DA22DF502C6E2D6A2D50000AD8B4D0
:1047000084EF23F049EF23F02C50000AD8B44DEF8A
:1047100023F0010AD8B45AEF23F0030AD8B467EFA4
:1047200023F049EF23F02E501200E1EC31F0E5C008
:10473000D9FFE6C0DAFFDF6E0001E54BE62BE707A5
:10474000D8A0E807E751E811D8B4A9EF23F0ABEF00
:1047500023F0B0EF23F0C7EC31F0050EE7EF23F0C4
:10476000EB87BBEF23F0A1EC31F0E7EF23F0A5ECF2
:1047700031F0E7EF23F0D4C00AF0D5C00BF002D837
:10478000CBEF23F00500FA6EC851FD6EC951FE6EE5
:10479000FF6AFA5012000C6E0D6A0D50000AD8B470
:1047A000D4EF23F0B7EF23F00C50010AD8B4B7EFE1
:1047B00023F0030AD8B4B3EF23F0010AD8B4B3EF5F
:1047C00023F0070AD8B4B7EF23F0B7EF23F01200B5
:1047D00020EE06F02750D9262850DA22DFA0F3EF8A
:1047E00023F0F5EF23F031EF24F0AB8820EE06F054
:1047F0002750D9262850DA22DFA201EF24F003EF58
:1048000024F005EF24F013EF24F020EE06F02750FB
:10481000D9262850DA22DFB210EF24F012EF24F06C
:1048200013EF24F09D9A20EE06F02750D926285049
:10483000DA22DFA41EEF24F020EF24F023EF24F08F
:10484000AC8C31EF24F020EE06F02750D92628500A
:10485000DA22DFB42EEF24F030EF24F031EF24F031
:10486000AC9C1200276E010E286E0001EBB53BEFE9
:1048700024F03DEF24F077EF24F027C0E4F0EB9331
:10488000EB85EB910E0EE96F010EE36FF40EE26F14
:10489000EB87EA0EC86F620EC96F000ED46F000E70
:1048A000D56FEA0ECA6F620ECB6F000ED66F000E88
:1048B000D76FEA0ECC6F620ECD6F000ED86F000E70
:1048C000D96FEA0ECE6F620ECF6F000EDA6F000E58
:1048D000DB6FDC0ED06F620ED16F000EDC6F000E4E
:1048E000DD6FDDEC31F0F8EC2FF0000E286E285073
:1048F0001200016E010E026E0001EBB582EF24F092
:1049000084EF24F0BEEF24F001C0E4F0EB93EB85DC
:10491000EB910E0EE96F010EE36FF40EE26FEB8781
:10492000CE0EC86F630EC96F000ED46F000ED56F28
:10493000CE0ECA6F630ECB6F000ED66F000ED76F10
:10494000CE0ECC6F630ECD6F000ED86F000ED96FF8
:10495000CE0ECE6F630ECF6F000EDA6F000EDB6FE0
:10496000CA0ED06F630ED16F000EDC6F000EDD6FCC
:10497000F3EC31F009EC30F0000E026E0250120040
:10498000000E00018C6F000E8D6F89518A11D8A422
:10499000CCEF24F0CEEF24F0D2EF24F0000E8E6F97
:1049A00002EF25F089C027F08AC028F0010E296E99
:1049B00071EC1BF089C080F08AC081F000018B3956
:1049C0000F0B826FF0EC2AF000018D6F89C080F030
:1049D0008AC081F063EC2DF000018D6F89C080F0FA
:1049E0008AC081F08BC082F0F0EC2AF000018D6F5C
:1049F00089C080F08AC081F063EC2DF000018D6FDA
:104A0000010E8E6F8E511200000E00018C6F000E91
:104A10008D6F89518A11D8A410EF25F012EF25F07F
:104A200016EF25F0000E8E6F46EF25F089C027F0B7
:104A30008AC028F0000E296E71EC1BF089C080F04E
:104A40008AC081F000018B390F0B826FF0EC2AF0E5
:104A500000018D6F89C080F08AC081F063EC2DF079
:104A600000018D6F89C080F08AC081F08BC082F018
:104A7000F0EC2AF000018D6F89C080F08AC081F0CF
:104A800063EC2DF000018D6F010E8E6F8E511200C0
:104A900059A24DEF25F08AEF26F00001EB875EEF7B
:104AA00025F034EC31F08BEF25F0CDEC31F0030E36
:104AB0008BEF25F02BEC31F08BEF25F0D4C080F09C
:104AC000D5C081F002D86EEF25F00500FA6EC8510E
:104AD000FD6EC951FE6EFF6AFA5012000001826F2E
:104AE000836B8351000AD8B478EF25F05AEF25F094
:104AF0008251010AD8B45AEF25F0030AD8B451EF15
:104B000025F0010AD8B451EF25F0070AD8B455EFC3
:104B100025F05AEF25F01200740EF66E590EF76E5E
:104B2000000EF86E01EE4EF010EE47F00900F5CFE2
:104B3000EEFFE550E150FAE1EE0EF66E630EF76E11
:104B4000000EF86E0900F5CFFEF00900F5CFFFF07A
:104B5000CE0EF66E620EF76E000EF86E00EE4BF0A3
:104B600010EE0EF00900F5CFEEFFE550E150FAE14E
:104B700001EE00F04E0EEE6AE806FDE100EEC8F030
:104B8000360EEE6AE806FDE100EE31F01A0EEE6A2E
:104B9000E806FDE159905992000135EF08F02750E1
:104BA0002810D8A4D6EF25F0D8EF25F0EDEF25F0AA
:104BB000000E2B6E0CEF26F0F28EF28CF288010EB6
:104BC0002B6E0CEF26F0F28EF28CF086DFEF25F0E4
:104BD000F28EF28CF088DFEF25F020EE04F0275003
:104BE000D9262850DA22DF50296E2A6A2A50000A74
:104BF000D8B4FDEF25F0D8EF25F02950000AD8B43D
:104C0000DCEF25F0010AD8B4E3EF25F0030AD8B4AD
:104C1000E8EF25F0D8EF25F02B501200000E000130
:104C20009D6F000E9E6F97519811D8B41AEF26F021
:104C30001CEF26F035EF26F09B519C11D8B423EFE2
:104C400026F025EF26F035EF26F0050E99612BEFC3
:104C500026F02DEF26F035EF26F0280E9A6533EF7B
:104C600026F035EF26F037EF26F04BEF26F097C011
:104C70008FF098C090F099C091F09AC092F0EDEC4E
:104C800029F097C08FF098C090F09BC091F09CC025
:104C900092F0EBEC22F012000001886F000E000190
:104CA000896F0001885132EC24F00009D8B45BEF21
:104CB00026F05DEF26F051EF26F0180E2C6E5C0EFC
:104CC0002D6E890E2E6E000E2F6EADEC30F0300E74
:104CD000276E000E286E000E2A6E010E296EC2ECA1
:104CE0002FF0000E2C6E000E2D6E000E2E6E000E9C
:104CF0002F6E95EC30F095EC31F0FFEC2EF0E806DD
:104D0000D8B485EF26F087EF26F07DEF26F000017E
:104D1000895112000001EB879BEF26F0B1EC31F0D6
:104D2000C7EF26F0DFEC31F0030EC7EF26F0ADEC55
:104D300031F0C7EF26F0D4C00AF0D5C00BF002D88E
:104D4000ABEF26F00500FA6EC851FD6EC951FE6E3C
:104D5000FF6AFA5012000C6E0D6A0D50000AD8B4AA
:104D6000B4EF26F097EF26F00C50010AD8B497EF75
:104D700026F0030AD8B48EEF26F0010AD8B48EEFDD
:104D800026F0070AD8B492EF26F097EF26F012002B
:104D9000000188518911D8A4D0EF26F0D2EF26F077
:104DA000D4EF26F004EF27F088C027F089C028F060
:104DB000F5EC27F000018A6F88C027F089C028F041
:104DC0002EEC28F000018A1388C027F089C028F053
:104DD000C3EC1CF000018A1388C085F089C086F0FE
:104DE00042EC2EF000018A1388C02AF089C02BF013
:104DF00040EC23F000018A1388C027F089C028F016
:104E0000CFEC25F000018A1312002B6E27502810DA
:104E1000D8B40DEF27F00FEF27F029EF27F02B5034
:104E2000020DC80EF324D96E000EF420DA6E27C0EE
:104E3000DEFF28C0DDFF2B50020DD40EF324D96E07
:104E4000000EF420DA6E29C0DEFF2AC0DDFF41EF3C
:104E500027F02B50020DC80EF324D96E000EF4205B
:104E6000DA6EEA0EDE6E620EDD6E2B50020DD40E8F
:104E7000F324D96E000EF420DA6E000EDE6E000E02
:104E8000DD6E1200056E01500210D8B44AEF27F013
:104E90004CEF27F066EF27F00550020DC80EF32403
:104EA000D96E000EF420DA6E01C0DEFF02C0DDFF15
:104EB0000550020DD40EF324D96E000EF420DA6EE4
:104EC00003C0DEFF04C0DDFF7EEF27F00550020DBA
:104ED000C80EF324D96E000EF420DA6ECE0EDE6E0C
:104EE000630EDD6E0550020DD40EF324D96E000E54
:104EF000F420DA6E000EDE6E000EDD6E1200000E83
:104F000000019C6F000E9D6F97519811D8B48BEFE4
:104F100027F08DEF27F09DEF27F0050E996193EFB5
:104F200027F095EF27F09DEF27F0140E9A659BEF81
:104F300027F09DEF27F0A1EF27F0000E9E6FB9EF4D
:104F400027F097C08FF098C090F099C091F09AC068
:104F500092F0EDEC29F000019D6F97C089F098C0A8
:104F60008AF09BC08BF0C0EC24F000019D6F010E15
:104F70009E6F9E511200136E000E146E135079EC4A
:104F800024F00009D8B4C7EF27F0C9EF27F0BEEF2F
:104F900027F0820E066E5E0E076E140E086E000E6F
:104FA000096EC5EC30F0120E016E000E026E000E9E
:104FB000046E010E036EE6EC2FF0000E066E000E7E
:104FC000076E000E086E000E096EB9EC30F09DEC15
:104FD00031F06DEC2FF0E806D8B4F1EF27F0F3EFE5
:104FE00027F0E9EF27F01450120027502810D8A41A
:104FF000FCEF27F0FEEF27F00DEF28F0000E2B6EF0
:105000002CEF28F0F298010E2B6E2CEF28F0F09682
:1050100003EF28F0F09803EF28F020EE04F027507B
:10502000D9262850DA22DF50296E2A6A2A50000A2F
:10503000D8B41DEF28F0FEEF27F02950000AD8B4AD
:1050400002EF28F0010AD8B407EF28F0030AD8B419
:105050000AEF28F0FEEF27F02B50120027502810FF
:10506000D8A435EF28F037EF28F046EF28F0000EEF
:105070002B6E65EF28F0F292010E2B6E65EF28F093
:10508000F2923CEF28F0F2923CEF28F020EE04F090
:105090002750D9262850DA22DF50296E2A6A2A5052
:1050A000000AD8B456EF28F037EF28F02950000A4C
:1050B000D8B43BEF28F0010AD8B440EF28F0030A37
:1050C000D8B443EF28F037EF28F02B501200000E31
:1050D0000001836F80518111D8B471EF28F073EF14
:1050E00028F084EF28F080C0D9FF81C0DAFFDF30DC
:1050F000E832E832070B826F070E826582EF28F0F4
:1051000084EF28F088EF28F0000E846F9EEF28F0DF
:1051100080C027F081C028F0000E296E1AEC1CF028
:105120000001836F80C027F081C028F0000E296E37
:1051300071EC1BF00001836F010E846F845112002B
:1051400059A2A5EF28F0BDEF2AF00001EB91020E65
:10515000EA6FB3EF28F034EC31F0D8EF28F02BEC05
:1051600031F0D8EF28F0D8C080F0D9C081F002D853
:10517000C3EF28F00500FA6ECC51FD6ECD51FE6EE6
:10518000FF6AFA5012000001826F836B8351000A9C
:10519000D8B4CDEF28F0AFEF28F08251020AD8B48E
:1051A000ABEF28F0010AD8B4ABEF28F0AFEF28F04E
:1051B0001200DDEC31F00001EBA1E1EF28F0E3EFAC
:1051C00028F0F0EF28F0FCEC30F00009D8B4EBEF59
:1051D00028F0EDEF28F0F0EF28F00F0E0001E96F56
:1051E0000001E951020D010EF324F66E100EF420B9
:1051F000F76EF86A000EF8220900F5CF84F0090076
:10520000F5CF85F002D80EEF29F00500FA6E845133
:10521000FD6E8551FE6EFF6AFA5012000001E96FC3
:105220001200F3EC31F00001EBA119EF29F01BEFB4
:1052300029F028EF29F006EC31F00009D8B423EF6B
:1052400029F025EF29F028EF29F00F0E0001E96F72
:105250000001E951020D010EF324F66E100EF42048
:10526000F76EF86A000EF8220900F5CF0EF009007B
:10527000F5CF0FF002D846EF29F00500FA6E0E5078
:10528000FD6E0F50FE6EFF6AFA5012000001E96FCA
:105290001200306E305032EC24F00009D8B453EFD5
:1052A00029F055EF29F04AEF29F0AC0E2C6E5B0E79
:1052B0002D6E890E2E6E000E2F6EADEC30F0880E26
:1052C000276E000E286E000E2A6E010E296EC2ECAB
:1052D0002FF0000E2C6E000E2D6E000E2E6E000EA6
:1052E0002F6E95EC30F095EC31F0FFEC2EF0E806E7
:1052F000D8B47DEF29F07FEF29F075EF29F0120087
:10530000146E145079EC24F00009D8B48AEF29F017
:105310008CEF29F081EF29F02A0E066E5E0E076EE3
:10532000130E086E000E096EC5EC30F0120E016E01
:10533000000E026E000E046E010E036EE6EC2FF0FE
:10534000000E066E000E076E000E086E000E096E4F
:10535000B9EC30F09DEC31F06DEC2FF0E806D8B4EC
:10536000B4EF29F0B6EF29F0ACEF29F0120097C1A5
:10537000C5F098C1C6F0000E0101136F000E126F48
:10538000D9EF29F095C1B5F096C1B6F0C50E000170
:10539000B76F000EB86F99C1B9F09AC1BAF03EEC80
:1053A00015F00001B551010112270001B6510101AC
:1053B0001323C5C0F6FFC6C0F7FFF86A0800F55012
:1053C0000009D8A4E6EF29F0E8EF29F0C2EF29F0B0
:1053D00012C195F113C196F11200000E0001956FF4
:1053E000000E966F92070BEF2AF08FC089F090C0E5
:1053F0008AF09251800F8B6F04EC25F020EF2AF099
:105400008FC089F090C08AF09251C00F8B6F04EC6E
:1054100025F020EF2AF09151936F946B9451000A7C
:10542000D8B415EF2AF020EF2AF09351010AD8B42E
:10543000F5EF29F0030AD8B400EF2AF020EF2AF0A4
:10544000000E1200000E306ED00E4CEC26F0010162
:10545000086F010E306ED00E4CEC26F00101076F84
:10546000020E306ED00E4CEC26F00101066F040ED9
:10547000306ED00E4CEC26F001010B6F050E306E35
:10548000D00E4CEC26F001010A6F060E306ED00EE5
:105490004CEC26F00101096F21EE06F000EE8AF0D7
:1054A000050EDBCFEBFFE806FCE21200000E126EE9
:1054B000D00EBBEC27F00101086F010E126ED00E6A
:1054C000BBEC27F00101076F020E126ED00EBBEC91
:1054D00027F00101066F040E126ED00EBBEC27F010
:1054E00001010B6F050E126ED00EBBEC27F001010F
:1054F0000A6F060E126ED00EBBEC27F00101096F89
:1055000021EE06F000EE15F0050EDBCFEBFFE8060E
:10551000FCE21200F2EC30F0500E00018F6F000E32
:10552000906FC3EC1AF08F0E0001886F010E896F27
:10553000C8EC26F0890E0001886F010E896FC8EC57
:1055400026F0830E0001886F010E896FC8EC26F0EB
:10555000FE0E0001856F000E866FD2EC2BF07C0EE4
:105560002A6E010E2B6EDCEC1DF06C0E0001BB6F81
:10557000010EBC6FDEEC2CF012000001EB91020E6C
:10558000EA6FCBEF2AF0B1EC31F0EFEF2AF0ADEC9F
:1055900031F0EFEF2AF0D8C00AF0D9C00BF002D8F2
:1055A000DBEF2AF00500FA6ECC51FD6ECD51FE6E98
:1055B000FF6AFA5012000C6E0D6A0D50000AD8B442
:1055C000E4EF2AF0C7EF2AF00C50020AD8B4C3EF78
:1055D0002AF0010AD8B4C3EF2AF0C7EF2AF012006C
:1055E000000E0001876F000E886F17EF2BF08851B7
:1055F0008025836F000E8121846F020E8325276E24
:10560000000E8421286E88C085F082C086F0852B2C
:105610000CEF2BF0D8908633852F0AEF2BF000018A
:105620008651010B296E71EC1BF00001882B030ED3
:1056300088651DEF2BF01FEF2BF0F7EF2AF0875155
:105640001200000E0001836F80518111D8B42BEF3E
:105650002BF02DEF2BF03EEF2BF080C0D9FF81C057
:10566000DAFFDF30E832E832070B826F070E82651F
:105670003CEF2BF03EEF2BF042EF2BF0000E846F4F
:105680004DEF2BF080C027F081C028F0010E296E6D
:105690001AEC1CF0010E0001846F84511200000E00
:1056A0000001826F80518111D8A459EF2BF05BEF7C
:1056B0002BF05DEF2BF07AEF2BF080C027F081C04C
:1056C00028F0010E296E71EC1BF0000120EE01F0B4
:1056D0008051D9268151DA2280C0E1FF81C0E2FFEA
:1056E000E7BE75EF2BF078EF2BF0010E79EF2BF082
:1056F000000EDF6E1200000E0001826F80518111DA
:10570000D8A485EF2BF087EF2BF089EF2BF0A6EFD5
:105710002BF080C027F081C028F0000E296E71ECBC
:105720001BF0000120EE01F08051D9268151DA22D0
:1057300080C0E1FF81C0E2FFE7BEA1EF2BF0A4EF44
:105740002BF0010EA5EF2BF0000EDF6E1200000112
:10575000C76F0101AE51AF11D8A4B1EF2BF0B3EF79
:105760002BF0B5EF2BF0D1EF2BF0AEC127F0AFC18E
:1057700028F0000E2A6E000E296E000E2C6E040E0C
:105780002B6E54EC19F0AEC19BF1AFC19CF1660ECB
:1057900001019D6F100E9E6FC7C09FF1A06BFCECC6
:1057A0002BF01200000E0001876F85518611D8A4DE
:1057B000DCEF2BF0DEEF2BF0E0EF2BF0FBEF2BF02C
:1057C00085C080F086C081F067EC28F0000120EEF3
:1057D00001F08551D9268651DA2285C0E1FF86C0C5
:1057E000E2FFE7BEF6EF2BF0F9EF2BF0010EFAEF38
:1057F0002BF0000EDF6E12009F0E0101A16F010E53
:10580000A26F9BC1A3F19CC1A4F1000EA76F000E73
:10581000A66F000EAD6F000EAC6FA30E956F010E5C
:10582000966F9DC197F19EC198F1A10E996F010EDF
:105830009A6FB7EC29F00101A6519B25D96EA751AB
:105840009C21DA6E000EDF6E1200000E0101B56FB2
:10585000000EB66FB051B111D8A431EF2CF033EF78
:105860002CF035EF2CF04BEF2CF0FD0EAE6F000E50
:10587000AF6FB451A7EC2BF0B0C197F0B1C198F065
:10588000B2C199F0B3C19AF0FD0E00019B6F000EFA
:105890009C6F0EEC26F0120059A251EF2CF043EF52
:1058A0002DF0000120EE02F08051D9268151DA223C
:1058B000DECF27F0DDCF28F080C0D9FF81C0DAFF2E
:1058C000DECF29F0DDCF2AF0C2EC2FF0000E2C6ED7
:1058D000000E2D6E000E2E6E000E2F6EADEC30F011
:1058E000020E1200000E0001866F000E856F85EF1C
:1058F0002CF084C027F0286A82C029F083C02AF0E7
:10590000F8EC1FF00001854B862B85518025D96E60
:1059100086518121DA6EDF50846F8451D8A493EFD1
:105920002CF095EF2CF079EF2CF012000001866F2F
:10593000010E0001876FEBB3A0EF2CF0A2EF2CF06B
:10594000B7EF2CF0EB83000E876F8651D8B4ABEF26
:105950002CF0ADEF2CF0B1EF2CF0010EE96FB3EFAE
:105960002CF0020EE96FD7EC31F01AEC30F00001A8
:1059700087511200800F810F820F830F840F890FD0
:105980008A0F8B0F8C0F8D0F920F930F940F950F23
:10599000960F8025000003000000000000000000BA
:1059A000000070600005050002185D110102007220
:0B59B0003D090101004A3E010100001A
:1059BC000001BB51BC11D8A4E6EF2CF0E8EF2CF0A1
:1059CC00EAEF2CF000EF2DF0AB9E948E948CBBC0C4
:1059DC00AFF0BCC0B0F070EC0BF0BBC027F0BCC09B
:1059EC0028F03BEC22F0BBC027F0BCC028F0E8EC60
:1059FC0023F0AB8E1200106E010E116E0001EBB392
:105A0C000AEF2DF00CEF2DF021EF2DF0EB83000EB3
:105A1C00116E1050D8B415EF2DF017EF2DF01BEFC1
:105A2C002DF0010EE96F1DEF2DF0020EE96FEDEC7C
:105A3C0031F029EC30F0115012002ABE30EF2DF06D
:105A4C002A5006E12904D8B02EEF2DF030EF2DF0BE
:105A5C003EEF2DF029C02BF02AC02CF02B1E2C1E53
:105A6C002B4A2C2A2BC029F02CC02AF042EF2DF007
:105A7C0029C029F02AC02AF0120020EE02F00A50A8
:105A8C00D9260B50DA22DECF01F0DDCF02F00AC0AE
:105A9C00D9FF0BC0DAFFDECF03F0DDCF04F0E6EC6C
:105AAC002FF0000E066E000E076E000E086E000E34
:105ABC00096EC5EC30F0020E1200000E0001826F70
:105ACC00010E8025276E000E8121286E010E296E95
:105ADC0071EC1BF0030EE82EFED700F0010E000156
:105AEC008025276E000E8121286E000E296E71EC28
:105AFC001BF0000E1200000180518111D8A489EF17
:105B0C002DF08BEF2DF08DEF2DF09DEF2DF080C053
:105B1C002AF081C02BF082C02CF09EEC2DF02F6E61
:105B2C0080C027F081C028F0D4EC2FF02F6E12002B
:105B3C002A502B10D8A4A5EF2DF0A7EF2DF0ABEF2A
:105B4C002DF0000E2E6EB9EF2DF02CC02DF02D4641
:105B5C002D46C2502D18C30B2D18C26E2C504DEC77
:105B6C001EF0010E2E6E2E50120027C029F028C0F8
:105B7C002AF0C3EF2DF0274A282A27C0D9FF28C0C6
:105B8C00DAFFDF50D8A4CDEF2DF0CFEF2DF0C1EF21
:105B9C002DF02950275C276E2A502858286E1200A9
:105BAC0059A2DBEF2DF015EF2FF080C027F081C04C
:105BBC0028F0000E2A6E010E296EC2EC2FF0000E9A
:105BCC002C6E000E2D6E000E2E6E000E2F6EADEC98
:105BDC0030F0040E120059A2F6EF2DF02BEF2FF03F
:105BEC0080C027F081C028F0000E2A6E020E296EAC
:105BFC00C2EC2FF0000E2C6E000E2D6E000E2E6ED1
:105C0C00000E2F6EADEC30F0020E120059A211EF07
:105C1C002EF041EF2FF080C027F081C028F0000E4D
:105C2C002A6E010E296EC2EC2FF0000E2C6E000EA7
:105C3C002D6E000E2E6E000E2F6EADEC30F0020E9F
:105C4C00120059A22CEF2EF057EF2FF080C027F046
:105C5C0081C028F0000E2A6E020E296EC2EC2FF0C5
:105C6C00000E2C6E000E2D6E000E2E6E000E2F6E82
:105C7C00ADEC30F0040E1200000185518611D8A451
:105C8C004AEF2EF04CEF2EF050EF2EF0000E876FF7
:105C9C005AEF2EF0020E8525806F000E8621816F43
:105CAC0021EC2BF00001876F87511200276E27041F
:105CBC00D8A463EF2EF065EF2EF069EF2EF0C18AB9
:105CCC00C18873EF2EF02750D8A46FEF2EF071EF30
:105CDC002EF073EF2EF0C19AC1981200F0920001D1
:105CEC00F851F911D8B47DEF2EF07FEF2EF08BEF39
:105CFC002EF002D88BEF2EF00500FA6EF851FD6EE7
:105D0C00F951FE6EFF6AFA5012001200010E0001EA
:105D1C00FB6F3B2A040E3B18D8A497EF2EF099EF9B
:105D2C002EF0A3EF2EF0000EFB6F000E3B6E49C061
:105D3C0001F148C000F158C005F11200F090355047
:105D4C003610D8B4ACEF2EF0AEEF2EF0BAEF2EF03A
:105D5C0002D8BAEF2EF00500FA6E3550FD6E3650B3
:105D6C00FE6EFF6AFA5012001200F2923750381091
:105D7C00D8B4C3EF2EF0C5EF2EF0D1EF2EF002D831
:105D8C00D1EF2EF00500FA6E3750FD6E3850FE6ED6
:105D9C00FF6AFA50120012009E9C39503A10D8B487
:105DAC00DAEF2EF0DCEF2EF0E8EF2EF002D8E8EF71
:105DBC002EF00500FA6E3950FD6E3A50FE6EFF6AF9
:105DCC00FA5012001200276E2704D8A4F0EF2EF020
:105DDC00F2EF2EF0F5EF2EF0C08EFEEF2EF02750E6
:105DEC00D8A4FBEF2EF0FDEF2EF0FEEF2EF0C09EB0
:105DFC001200010E276E0001EBB307EF2FF009EF35
:105E0C002FF013EF2FF0EB95E469DDEC31F0D9ECCA
:105E1C0031F0DBEC31F0EAC027F0275012000AC059
:105E2C0001F00BC002F0000E046E010E036EE6ECE6
:105E3C002FF0000E066E000E076E000E086E000EA0
:105E4C00096EC5EC30F0040E12000AC001F00BC054
:105E5C0002F0000E046E020E036EE6EC2FF0000E44
:105E6C00066E000E076E000E086E000E096EC5EC75
:105E7C0030F0020E12000AC001F00BC002F0000E4E
:105E8C00046E010E036EE6EC2FF0000E066E000E93
:105E9C00076E000E086E000E096EC5EC30F0020E97
:105EAC0012000AC001F00BC002F0000E046E020ECC
:105EBC00036EE6EC2FF0000E066E000E076E000E61
:105ECC00086E000E096EC5EC30F0040E1200010EC7
:105EDC00016E0001EBB375EF2FF077EF2FF081EF30
:105EEC002FF0EB95E469F3EC31F0EFEC31F0F1ECE1
:105EFC0031F0EAC001F00150120027502810D8A44C
:105F0C008AEF2FF08CEF2FF090EF2FF0000E296E10
:105F1C0096EF2FF027C0F8F028C0F9F0010E296E8B
:105F2C002950120027502810D8A49FEF2FF0A1EF72
:105F3C002FF0A5EF2FF0000E296EABEF2FF027C03E
:105F4C0035F028C036F0010E296E2950120027506A
:105F5C002810D8A4B4EF2FF0B6EF2FF0BAEF2FF033
:105F6C00000E296EC0EF2FF027C037F028C038F094
:105F7C00010E296E295012000001EBA7C8EF2FF07B
:105F8C00CAEF2FF0D3EF2FF027C0E5F028C0E6F0D2
:105F9C0029C0E7F02AC0E8F0EB9712002750281030
:105FAC00D8A4DBEF2FF0DDEF2FF0E1EF2FF0000E98
:105FBC00296EE4EF2FF0C282010E296E29501200D7
:105FCC000001EBA7ECEF2FF0EEEF2FF0F7EF2FF037
:105FDC0001C0E5F002C0E6F003C0E7F004C0E8F051
:105FEC00EB971200C6BAFDEF2FF0FFEF2FF008EF82
:105FFC0030F0800EC76E080EC66E000EC56E030E16
:10600C00C86EC68A1200C6BA0EEF30F010EF30F030
:10601C0019EF30F0800EC76E080EC66E000EC56EFE
:10602C00030EC86EC68A120020EF30F04FEC31F030
:10603C00D9EC28F00001EBB326EF30F028EF30F06C
:10604C001CEF30F012002FEF30F057EC31F011EC68
:10605C0029F00001EBB335EF30F037EF30F02BEFD8
:10606C0030F012007C0E016E010E026E470E036EB4
:10607C00000E046E85EC21F0475046EC30F0120017
:10608C00016EACA24CEF30F04EEF30F053EF30F02D
:10609C009D8801C0ADFF53EF30F0120059A259EFAB
:1060AC0030F05FEF31F00001EB81E451010999EC24
:1060BC0031F0050E1200016EF2900150D8A469EF78
:1060CC0030F06BEF30F06DEF30F06DEF30F0120020
:1060DC00016EF2900150D8A476EF30F078EF30F0EA
:1060EC007AEF30F07AEF30F01200016EF29001503E
:1060FC00D8A483EF30F085EF30F087EF30F087EFE6
:10610C0030F01200016EF2900150D8A490EF30F0F4
:10611C0092EF30F094EF30F094EF30F012002CC08E
:10612C0027F02DC028F02EC029F02FC02AF0020E27
:10613C0005EC27F0120059A2A6EF30F07CEF31F0FD
:10614C000001EB81E45199EC31F0030E12002CC0EC
:10615C0027F02DC028F02EC029F02FC02AF0000EF9
:10616C0005EC27F0120006C001F007C002F008C0D1
:10617C0003F009C004F0020E42EC27F0120006C036
:10618C0001F007C002F008C003F009C004F0000ED3
:10619C0042EC27F0120059A2D6EF30F083EF31F029
:1061AC000001EB93000EEA6F0E0E120059A2E1EF04
:1061BC0030F089EF31F00001EB91D1EC31F0040EAD
:1061CC00120059A2ECEF30F08FEF31F00001EB939D
:1061DC00000EEA6F0E0E1200800EC76E080EC66E11
:1061EC00000EC56E030EC86EC69A1200C5BC01EF38
:1061FC0031F004EF31F0010E05EF31F0000E12001A
:10620C00C5BC0BEF31F00EEF31F0010E0FEF31F09A
:10621C00000E120059A215EF31F0A1EF31F0C4ECD1
:10622C0031F0090E120059A21EEF31F0A5EF31F03A
:10623C00C4EC31F00A0E120059A227EF31F0A9EF8D
:10624C0031F0C1EC31F0050E120059A230EF31F0F3
:10625C00ADEF31F0D3EC31F0000E120059A239EF52
:10626C0031F0B1EF31F0D5EC31F0010E120059A242
:10627C0042EF31F0B5EF31F0D5EC31F0020E1200F7
:10628C0059A24BEF31F0B9EF31F0D5EC31F0010EF2
:10629C0012009EA654EF31F056EF31F04FEF31F073
:1062AC0012009EA65CEF31F05EEF31F057EF31F04B
:1062BC0012000001EB81E4510109BDEC31F0050E37
:1062CC0012000101010104232B030B131B0101011B
:1062DC0059A273EF31F0E5EF31F0050E120059A21F
:1062EC007AEF31F0E7EF31F0010E12000001EB8193
:1062FC00E451BDEC31F0030E12000001EB93000EE3
:10630C00EA6F0E0E12000001EB91E3EC31F0040E7B
:10631C0012000001EB93000EEA6F0E0E1200000E3D
:10632C0096EC2CF01200276E27C0C9FF1200000E4D
:10633C0001EC2DF01200CAEC31F0090E1200CAEC7F
:10634C0031F00A0E1200C7EC31F0050E1200E9EC28
:10635C0031F0000E1200EBEC31F0010E1200EBEC00
:10636C0031F0020E1200EBEC31F0010E1200016E56
:10637C0001C0C9FF1200C59AC5881200C58AC5881C
:10638C001200C59AC5881200C58AC58812009E865F
:10639C001200C9501200C5861200C5841200C582B5
:1063AC001200C58012009D961200C69A12009E968D
:1063BC0012009E861200C9501200C5861200050EEE
:1063CC001200010E1200C5841200C5821200C58095
:1063DC0012009D961200C69A12009E9612009D986D
:0863EC00120033001200120040
:020000040030CA
:0E000000FF02091EFF8181FF0FC00FE00F40BD
:00000001FF
